{"contracts/TrashNFT.sol":{"TrashNFT":{"abi":[{"inputs":[],"stateMutability":"nonpayable","type":"constructor"},{"inputs":[{"internalType":"address","name":"sender","type":"address"},{"internalType":"uint256","name":"tokenId","type":"uint256"},{"internalType":"address","name":"owner","type":"address"}],"name":"ERC721IncorrectOwner","type":"error"},{"inputs":[{"internalType":"address","name":"operator","type":"address"},{"internalType":"uint256","name":"tokenId","type":"uint256"}],"name":"ERC721InsufficientApproval","type":"error"},{"inputs":[{"internalType":"address","name":"approver","type":"address"}],"name":"ERC721InvalidApprover","type":"error"},{"inputs":[{"internalType":"address","name":"operator","type":"address"}],"name":"ERC721InvalidOperator","type":"error"},{"inputs":[{"internalType":"address","name":"owner","type":"address"}],"name":"ERC721InvalidOwner","type":"error"},{"inputs":[{"internalType":"address","name":"receiver","type":"address"}],"name":"ERC721InvalidReceiver","type":"error"},{"inputs":[{"internalType":"address","name":"sender","type":"address"}],"name":"ERC721InvalidSender","type":"error"},{"inputs":[{"internalType":"uint256","name":"tokenId","type":"uint256"}],"name":"ERC721NonexistentToken","type":"error"},{"inputs":[{"internalType":"address","name":"owner","type":"address"}],"name":"OwnableInvalidOwner","type":"error"},{"inputs":[{"internalType":"address","name":"account","type":"address"}],"name":"OwnableUnauthorizedAccount","type":"error"},{"inputs":[{"internalType":"uint256","name":"value","type":"uint256"},{"internalType":"uint256","name":"length","type":"uint256"}],"name":"StringsInsufficientHexLength","type":"error"},{"anonymous":false,"inputs":[{"indexed":true,"internalType":"address","name":"owner","type":"address"},{"indexed":true,"internalType":"address","name":"approved","type":"address"},{"indexed":true,"internalType":"uint256","name":"tokenId","type":"uint256"}],"name":"Approval","type":"event"},{"anonymous":false,"inputs":[{"indexed":true,"internalType":"address","name":"owner","type":"address"},{"indexed":true,"internalType":"address","name":"operator","type":"address"},{"indexed":false,"internalType":"bool","name":"approved","type":"bool"}],"name":"ApprovalForAll","type":"event"},{"anonymous":false,"inputs":[{"indexed":false,"internalType":"uint256","name":"_fromTokenId","type":"uint256"},{"indexed":false,"internalType":"uint256","name":"_toTokenId","type":"uint256"}],"name":"BatchMetadataUpdate","type":"event"},{"anonymous":false,"inputs":[{"indexed":false,"internalType":"uint256","name":"_tokenId","type":"uint256"}],"name":"MetadataUpdate","type":"event"},{"anonymous":false,"inputs":[{"indexed":true,"internalType":"address","name":"previousOwner","type":"address"},{"indexed":true,"internalType":"address","name":"newOwner","type":"address"}],"name":"OwnershipTransferred","type":"event"},{"anonymous":false,"inputs":[{"indexed":true,"internalType":"address","name":"from","type":"address"},{"indexed":true,"internalType":"address","name":"to","type":"address"},{"indexed":true,"internalType":"uint256","name":"tokenId","type":"uint256"}],"name":"Transfer","type":"event"},{"anonymous":false,"inputs":[{"indexed":true,"internalType":"uint256","name":"tokenId","type":"uint256"},{"indexed":true,"internalType":"address","name":"from","type":"address"},{"indexed":true,"internalType":"address","name":"to","type":"address"},{"indexed":false,"internalType":"string","name":"trashName","type":"string"},{"indexed":false,"internalType":"uint8","name":"stinkLevel","type":"uint8"}],"name":"TrashThrown","type":"event"},{"inputs":[{"internalType":"address","name":"to","type":"address"},{"internalType":"uint256","name":"tokenId","type":"uint256"}],"name":"approve","outputs":[],"stateMutability":"nonpayable","type":"function"},{"inputs":[{"internalType":"address","name":"owner","type":"address"}],"name":"balanceOf","outputs":[{"internalType":"uint256","name":"","type":"uint256"}],"stateMutability":"view","type":"function"},{"inputs":[{"internalType":"uint256","name":"tokenId","type":"uint256"}],"name":"getApproved","outputs":[{"internalType":"address","name":"","type":"address"}],"stateMutability":"view","type":"function"},{"inputs":[{"internalType":"address","name":"owner","type":"address"},{"internalType":"address","name":"operator","type":"address"}],"name":"isApprovedForAll","outputs":[{"internalType":"bool","name":"","type":"bool"}],"stateMutability":"view","type":"function"},{"inputs":[],"name":"name","outputs":[{"internalType":"string","name":"","type":"string"}],"stateMutability":"view","type":"function"},{"inputs":[],"name":"owner","outputs":[{"internalType":"address","name":"","type":"address"}],"stateMutability":"view","type":"function"},{"inputs":[{"internalType":"uint256","name":"tokenId","type":"uint256"}],"name":"ownerOf","outputs":[{"internalType":"address","name":"","type":"address"}],"stateMutability":"view","type":"function"},{"inputs":[],"name":"renounceOwnership","outputs":[],"stateMutability":"nonpayable","type":"function"},{"inputs":[{"internalType":"address","name":"from","type":"address"},{"internalType":"address","name":"to","type":"address"},{"internalType":"uint256","name":"tokenId","type":"uint256"}],"name":"safeTransferFrom","outputs":[],"stateMutability":"nonpayable","type":"function"},{"inputs":[{"internalType":"address","name":"from","type":"address"},{"internalType":"address","name":"to","type":"address"},{"internalType":"uint256","name":"tokenId","type":"uint256"},{"internalType":"bytes","name":"data","type":"bytes"}],"name":"safeTransferFrom","outputs":[],"stateMutability":"nonpayable","type":"function"},{"inputs":[{"internalType":"address","name":"operator","type":"address"},{"internalType":"bool","name":"approved","type":"bool"}],"name":"setApprovalForAll","outputs":[],"stateMutability":"nonpayable","type":"function"},{"inputs":[{"internalType":"bytes4","name":"interfaceId","type":"bytes4"}],"name":"supportsInterface","outputs":[{"internalType":"bool","name":"","type":"bool"}],"stateMutability":"view","type":"function"},{"inputs":[],"name":"symbol","outputs":[{"internalType":"string","name":"","type":"string"}],"stateMutability":"view","type":"function"},{"inputs":[{"internalType":"address","name":"to","type":"address"},{"internalType":"string","name":"name","type":"string"},{"internalType":"string","name":"emoji","type":"string"},{"internalType":"string","name":"description","type":"string"},{"internalType":"uint8","name":"stinkLevel","type":"uint8"}],"name":"throwTrash","outputs":[{"internalType":"uint256","name":"","type":"uint256"}],"stateMutability":"nonpayable","type":"function"},{"inputs":[{"internalType":"uint256","name":"tokenId","type":"uint256"}],"name":"tokenURI","outputs":[{"internalType":"string","name":"","type":"string"}],"stateMutability":"view","type":"function"},{"inputs":[],"name":"totalSupply","outputs":[{"internalType":"uint256","name":"","type":"uint256"}],"stateMutability":"view","type":"function"},{"inputs":[{"internalType":"address","name":"from","type":"address"},{"internalType":"address","name":"to","type":"address"},{"internalType":"uint256","name":"tokenId","type":"uint256"}],"name":"transferFrom","outputs":[],"stateMutability":"nonpayable","type":"function"},{"inputs":[{"internalType":"address","name":"newOwner","type":"address"}],"name":"transferOwnership","outputs":[],"stateMutability":"nonpayable","type":"function"},{"inputs":[{"internalType":"uint256","name":"","type":"uint256"}],"name":"trashData","outputs":[{"internalType":"string","name":"name","type":"string"},{"internalType":"string","name":"emoji","type":"string"},{"internalType":"string","name":"description","type":"string"},{"internalType":"uint8","name":"stinkLevel","type":"uint8"},{"internalType":"uint256","name":"thrownAt","type":"uint256"},{"internalType":"address","name":"thrownBy","type":"address"}],"stateMutability":"view","type":"function"}],"evm":{"bytecode":{"linkReferences":{},"object":"60803462000377576001600160401b0390604081810183811183821017620003615781526009825260209168151c985cda0813919560ba1b83820152815193828501858110828211176200036157835260058552640a8a482a6960db1b84860152815181811162000361576000948554916001948584811c9416801562000356575b8385101462000342578190601f94858111620002ef575b5083908583116001146200028b5789926200027f575b5050600019600383901b1c191690851b1786555b86519283116200026b5783548481811c9116801562000260575b828210146200024c5782811162000204575b50809183116001146200019d57508495829394959262000191575b5050600019600383901b1c191690821b1790555b3315620001795760078054336001600160a01b03198216811790925591519290916001600160a01b0316907f8be0079c531659141344cd1fd0a4f28419497f9722a3daafe3b4186f6b6457e09080a361358790816200037d8239f35b51631e4fbdf760e01b81526004810191909152602490fd5b01519050388062000109565b90601f198316968487528287209287905b898210620001ec575050838596979810620001d2575b505050811b0190556200011d565b015160001960f88460031b161c19169055388080620001c4565b808785968294968601518155019501930190620001ae565b8487528187208380860160051c82019284871062000242575b0160051c019085905b82811062000236575050620000ee565b88815501859062000226565b925081926200021d565b634e487b7160e01b87526022600452602487fd5b90607f1690620000dc565b634e487b7160e01b86526041600452602486fd5b015190503880620000ae565b898052848a208894509190601f1984168b5b87828210620002d85750508411620002be575b505050811b018655620000c2565b015160001960f88460031b161c19169055388080620002b0565b8385015186558b979095019493840193016200029d565b9091508880528389208580850160051c82019286861062000338575b918991869594930160051c01915b8281106200032957505062000098565b8b815585945089910162000319565b925081926200030b565b634e487b7160e01b88526022600452602488fd5b93607f169362000081565b634e487b7160e01b600052604160045260246000fd5b600080fdfe608080604052600436101561001357600080fd5b60003560e01c90816301ffc9a71461285d5750806306fdde03146127ba578063081812fc1461277c578063095ea7b31461269557806318160ddd1461267757806323b872dd1461266057806342842e0e146126325780636352211e1461260257806370a08231146125a9578063715018a61461254c5780637c63f2791461249e5780638da5cb5b1461247557806395d89b41146123aa578063a22cb46514612305578063b15bf9a814611b13578063b88d4fde14611aa6578063c87b56dd146101d9578063e985e9c5146101835763f2fde38b146100f057600080fd5b3461017e57602036600319011261017e5761010961292a565b610111612b84565b6001600160a01b0390811690811561016557600754826bffffffffffffffffffffffff60a01b821617600755167f8be0079c531659141344cd1fd0a4f28419497f9722a3daafe3b4186f6b6457e0600080a3005b604051631e4fbdf760e01b815260006004820152602490fd5b600080fd5b3461017e57604036600319011261017e5761019c61292a565b6101a4612940565b9060018060a01b03809116600052600560205260406000209116600052602052602060ff604060002054166040519015158152f35b3461017e57602036600319011261017e576004356101f681612d4f565b506000526009602052604060002060405190610211826129c5565b61021a81612a6e565b825261022860018201612a6e565b602083015261023960028201612a6e565b6040830152600381015460ff1660608301819052600482015460808401526005909101546001600160a01b031660a08301526007811115611a545750604051610281816129fb565b60078152660234646303030360cc1b60208201525b81516040516102c2602082816102b581830196878151938492016128e2565b8101038084520182612a4d565b5190206040516ee8bc9de3818fe38186e38293e381a160881b6020820152600f81526102ed816129fb565b60208151910120148015611a01575b80156119dc5760405161030e816129fb565b60078152660234646443730360cc1b60208201525b8351604051610342602082816102b581830196878151938492016128e2565b5190206040516b1cd3901cf6b05cb0b6bcb33560a31b60208201908152600c82529061036d816129fb565b519020148015611989575b1561197f57604051610389816129fb565b6004815263f09f92a960e01b60208201525b6103ab60ff6060870151166131b3565b6103bb60ff606088015116613002565b9361040c603060405180976c029ba34b735902632bb32b61d1609d1b60208301526103f0815180926020602d860191016128e2565b81016202f31360ec1b602d820152036010810188520186612a4d565b1561195a57604080517f3c7465787420783d223132302220793d223132302220666f6e742d73697a653d60208201527f223330222066696c6c3d222346464437303022206f7061636974793d22302e399181019190915261111f60f11b6060820152621c539560eb1b606282015260008051602061353283398151915260658201527f2076616c7565733d22302e353b313b302e3522206475723d22302e357322207260858201527f6570656174436f756e743d22696e646566696e697465222f3e0000000000000060a58201526000805160206134d283398151915260be8201526000805160206134b283398151915260de8201527f22302e383b312e323b302e3822206475723d22302e357322207265706561744360fe8201527237bab73a1e9134b73232b334b734ba3291179f60691b61011e820152661e17ba32bc3a1f60c91b6101318201526101188152936001600160401b0361014086019081119086111761194457610140850160408190527f3c7465787420783d223238302220793d223132302220666f6e742d73697a653d6101608701527f223330222066696c6c3d222346464437303022206f7061636974793d22302e3961018087015261111f60f11b6101a0870152621c539560eb1b6101a28701526000805160206135328339815191526101a58701527f2076616c7565733d22302e353b313b302e3522206475723d22302e35732220626101c58701527f6567696e3d22302e3235732220726570656174436f756e743d22696e646566696101e5870152663734ba3291179f60c91b6102058701526000805160206134d283398151915261020c8701526000805160206134b283398151915261022c8701527f22302e383b312e323b302e3822206475723d22302e35732220626567696e3d2261024c8701527f302e3235732220726570656174436f756e743d22696e646566696e697465222f61026c870152601f60f91b61028c870152661e17ba32bc3a1f60c91b61028d870152610134815261138e95602095611297936101059391929091611121919061071390612a16565b610d6b89604051927f3c7465787420783d223130302220793d223230302220666f6e742d73697a653d828501527f223235222066696c6c3d222346464437303022206f7061636974793d22302e38604085015261111f60f11b6060850152621c539560eb1b606285015260008051602061353283398151915260658501527f2076616c7565733d22302e333b313b302e3322206475723d22302e367322206260858501527f6567696e3d22302e31732220726570656174436f756e743d22696e646566696e60a58501526534ba3291179f60d11b60c58501526000805160206134d283398151915260cb8501526000805160206134b283398151915260eb8501527f22302e373b312e333b302e3722206475723d22302e36732220626567696e3d2261010b8501527f302e31732220726570656174436f756e743d22696e646566696e697465222f3e61012b850152661e17ba32bc3a1f60c91b61014b850152610132845261088184612a16565b604080517f3c7465787420783d223330302220793d223230302220666f6e742d73697a653d848201527f223235222066696c6c3d222346464437303022206f7061636974793d22302e389181019190915261111f60f11b6060820152621c539560eb1b606282015260008051602061353283398151915260658201527f2076616c7565733d22302e333b313b302e3322206475723d22302e367322206260858201527f6567696e3d22302e3335732220726570656174436f756e743d22696e6465666960a5820152663734ba3291179f60c91b60c58201526000805160206134d283398151915260cc8201526000805160206134b283398151915260ec8201527f22302e373b312e333b302e3722206475723d22302e36732220626567696e3d2261010c8201527f302e3335732220726570656174436f756e743d22696e646566696e697465222f61012c820152601f60f91b61014c820152661e17ba32bc3a1f60c91b61014d82015261013481526109f981612a16565b604080517f3c7465787420783d223135302220793d223235302220666f6e742d73697a653d858201527f223230222066696c6c3d222346464437303022206f7061636974793d22302e379181019190915261111f60f11b6060820152621c539560eb1b606282015260008051602061353283398151915260658201527f2076616c7565733d22302e323b302e393b302e3222206475723d22302e37732260858201527f20626567696e3d22302e32732220726570656174436f756e743d22696e64656660a58201526734b734ba3291179f60c11b60c58201526000805160206134d283398151915260cd8201526000805160206134b283398151915260ed8201527f22302e363b312e343b302e3622206475723d22302e37732220626567696e3d2261010d8201527f302e32732220726570656174436f756e743d22696e646566696e697465222f3e61012d820152661e17ba32bc3a1f60c91b61014d8201526101348152610b6781612a16565b604080517f3c7465787420783d223235302220793d223235302220666f6e742d73697a653d868201527f223230222066696c6c3d222346464437303022206f7061636974793d22302e379181019190915261111f60f11b6060820152621c539560eb1b606282015260008051602061353283398151915260658201527f2076616c7565733d22302e323b302e393b302e3222206475723d22302e37732260858201527f20626567696e3d22302e3435732220726570656174436f756e743d22696e646560a5820152683334b734ba3291179f60b91b60c58201526000805160206134d283398151915260ce8201526000805160206134b283398151915260ee8201527f22302e363b312e343b302e3622206475723d22302e37732220626567696e3d2261010e8201527f302e3435732220726570656174436f756e743d22696e646566696e697465222f61012e820152601f60f91b61014e820152661e17ba32bc3a1f60c91b61014f820152610136815291610ce283612a16565b6040519684889551610cf9818989018a85016128e2565b8601610d1361014083015180936101608b850191016128e2565b01610d26825180938980850191016128e2565b01610d39825180938880850191016128e2565b01610d4c825180938780850191016128e2565b01610d5f825180938680850191016128e2565b01038084520182612a4d565b60405180987f3c3f786d6c2076657273696f6e3d22312e302220656e636f64696e673d2255548b8301526523169c111f9f60d11b60408301527f3c73766720786d6c6e733d22687474703a2f2f7777772e77332e6f72672f323060468301527f30302f737667222076696577426f783d2230203020343030203430302220776960668301527f6474683d2234303022206865696768743d22343030222070726573657276654160868301527f7370656374526174696f3d22784d6964594d6964206d656574223e000000000060a6830152651e3232b3399f60d11b60c18301527f3c72616469616c4772616469656e742069643d226267222063783d223530252260c7830152711031bc9e911a98129110391e911a9812911f60711b60e78301527f3c73746f70206f66667365743d22302522207374796c653d2273746f702d636f60f98301526d3637b91d1198b09830993291179f60911b6101198301527f3c73746f70206f66667365743d223130302522207374796c653d2273746f702d6101278301526f31b7b637b91d1198331833183311179f60811b610147830152701e17b930b234b0b623b930b234b2b73a1f60791b610157830152711e3334b63a32b91034b21e9133b637bb911f60711b6101688301527f3c6665476175737369616e426c757220737464446576696174696f6e3d22332261017a8301527f20726573756c743d22636f6c6f726564426c7572222f3e00000000000000000061019a8301527f3c66654d657267653e3c66654d657267654e6f646520696e3d22636f6c6f72656101b18301527f64426c7572222f3e3c66654d657267654e6f646520696e3d22536f75726365476101d1830152723930b83434b191179f1e17b332a6b2b933b29f60691b6101f1830152681e17b334b63a32b91f60b91b610204830152661e17b232b3399f60c91b61020d8301527f3c726563742077696474683d2234303022206865696768743d223430302220666102148301526f34b6361e913ab9361411b1339491179f60811b6102348301527f3c7465787420783d223230302220793d223138302220746578742d616e63686f6102448301527f723d226d6964646c652220666f6e742d73697a653d22313230222066696c74656102648301527f723d2275726c2823676c6f7729222066696c6c3d2223464646464646223e0000610284830152661e17ba32bc3a1f60c91b81516110f5816102a2948f86880191016128e2565b830191820152825190611111826102a9958e87850191016128e2565b0103610289810189520187612a4d565b8951604051998a937f3c7465787420783d223230302220793d223236302220746578742d616e63686f8a8601527f723d226d6964646c652220666f6e742d73697a653d223234222066696c6c3d226040860152611187815180928c6060890191016128e2565b8401917f2220666f6e742d66616d696c793d22417269616c2c2073616e732d7365726966928360608201527411103337b73a16bbb2b4b3b43a1e913137b632111f60591b60808201526111e3825180938d6095850191016128e2565b01661e17ba32bc3a1f60c91b60958201527f3c7465787420783d223230302220793d223330302220746578742d616e63686f609c8201527f723d226d6964646c652220666f6e742d73697a653d223136222066696c6c3d2260bc820152611253825180938c60dc850191016128e2565b019060dc82015261111f60f11b60fc820152611278825180938a60fe850191016128e2565b01661e17ba32bc3a1f60c91b60fe8201520360e5810188520186612a4d565b611362609c604051836112b382955180928980860191016128e2565b81017f3c7465787420783d223230302220793d223338302220746578742d616e63686f878201527f723d226d6964646c652220666f6e742d73697a653d223132222066696c6c3d2260408201527f233636362220666f6e742d66616d696c793d22417269616c2c2073616e732d7360608201527532b934b3111f2a2920a9a41027232a1e17ba32bc3a1f60511b6080820152651e17b9bb339f60d11b609682015203607c810184520182612a4d565b604051948261137a87945180928780880191016128e2565b8301610d4c825180938780850191016128e2565b602082015191611403602d825194604051958691693d913730b6b2911d101160b11b60208401526113c9815180926020602a870191016128e2565b8201600160fd1b602a8201526113e9825180936020602b850191016128e2565b0161088b60f21b602b82015203600d810186520184612a4d565b60408101519061141960ff606083015116613002565b60a08201516040519591906001600160a01b03168061143788612a32565b602a885260403660208a013787511561192e576030602089015387516001101561192e576078602189015360295b600181116118cf57506118b0576118ac6118458861180a8961182560208b8b6116446118198d61153a60538f6040519c8d918a8301996f113232b9b1b934b83a34b7b7111d101160811b8b526114c4815180928e6030880191016128e2565b83016f0103e1029ba34b735902632bb32b61d160851b60308201526114f2825180938e6040850191016128e2565b01700179898103e102a343937bbb710313c9d1607d1b6040820152611520825180938d6051850191016128e2565b0161088b60f21b605182015203603381018d52018b612a4d565b611678602f6040519b61154c8d612a32565b60408d526115a77f4142434445464748494a4b4c4d4e4f505152535455565758595a6162636465669d8e8b8201527f6768696a6b6c6d6e6f707172737475767778797a303132333435363738392b2f9c8d6040830152612f0a565b6040516116146046828d8101947f22696d616765223a2022646174613a696d6167652f7376672b786d6c3b626173865263194d8d0b60e21b60408301526115f9815160209281936044860191016128e2565b810161088b60f21b6044820152036026810184520182612a4d565b6116526040519a8b946116448e6116348189019b8c8151938492016128e2565b870191518f9381948401906128e2565b01915180938d8401906128e2565b016e2261747472696275746573223a205b60881b8a82015203600f810188520186612a4d565b6117f8602261168d60ff606088015116613002565b956040519061170c60808b8401997f7b2274726169745f74797065223a20225374696e6b204c6576656c222c2022768b5266030b63ab2911d160cd1b60408601526116e1815180928f6047890191016128e2565b840192611705604986611f4b60f21b96876047820152036029810188520186612a4d565b0151613002565b611776604760405180948e8201947f7b2274726169745f74797065223a20225468726f776e204174222c202276616c86526403ab2911d160dd1b6040840152611760815160209281936045870191016128e2565b8201906045820152036027810185520183612a4d565b6117df6040519161178683612a32565b602c83528c8301937f7b2274726169745f74797065223a202243617465676f7279222c202276616c7585526b65223a20225472617368227d60a01b60408501526040519a8b968f6116349089019e8f92519283916128e2565b01615d7d60f01b8a820152036002810186520184612a4d565b604051988995518092888801906128e2565b840191518093868401906128e2565b01038085520183612a4d565b6040519261183284612a32565b6040845260208401526040830152612f0a565b611898603d60405180937f646174613a6170706c69636174696f6e2f6a736f6e3b6261736536342c000000602083015261188881518092602086860191016128e2565b810103601d810184520182612a4d565b604051918291602083526020830190612905565b0390f35b6044906040519063e22e27eb60e01b8252600482015260146024820152fd5b906010600f8216101561192e57885182101561192e576f181899199a1a9b1b9c1cb0b131b232b360811b600f82161a8983016020015360041c9080156119185760001901611465565b634e487b7160e01b600052601160045260246000fd5b634e487b7160e01b600052603260045260246000fd5b634e487b7160e01b600052604160045260246000fd5b61129761010560209461138e96611121604051611976816129e0565b60008152610d6b565b602084015161039b565b5083516040516119a9602082816102b581830196878151938492016128e2565b51902060405160208101906b2334b730b6102bb2b0b837b760a11b8252600c81526119d3816129fb565b51902014610378565b6040516119e8816129fb565b60078152660233441444538360cc1b6020820152610323565b508151604051611a21602082816102b581830196878151938492016128e2565b51902060405160208101906b05368696e696e6720506f6f760a41b8252600c8152611a4b816129fb565b519020146102fc565b60041015611a8157604051611a68816129fb565b60078152660234646383830360cc1b6020820152610296565b604051611a8d816129fb565b60078152660233838464630360cc1b6020820152610296565b3461017e57608036600319011261017e57611abf61292a565b611ac7612940565b90604435606435926001600160401b03841161017e573660238501121561017e57611aff611b11943690602481600401359101612b2f565b92611b0b838383612bb0565b33612d8a565b005b3461017e5760a036600319011261017e57611b2c61292a565b6024356001600160401b03811161017e57611b4b903690600401612b66565b6044356001600160401b03811161017e57611b6a903690600401612b66565b906064356001600160401b03811161017e57611b8a903690600401612b66565b916084359060ff8216820361017e576001600160a01b038516156122c157600a60ff8316116122705782511561223257600854936000198514611918576001850160085560405191611bdb836129c5565b8483526020830152604082015260ff821660608201524260808201523360a0820152836000526009602052604060002081518051906001600160401b038211611944578190611c2a845461298b565b601f81116121e2575b50602090601f831160011461217c57600092612171575b50508160011b916000199060031b1c19161781555b60208201518051906001600160401b038211611944578190611c84600185015461298b565b601f811161211e575b50602090601f83116001146120b1576000926120a6575b50508160011b916000199060031b1c19161760018201555b60408201518051906001600160401b03821161194457611cdf600284015461298b565b601f811161205f575b50602090601f8311600114611fec57600593929160009183611fe1575b50508160011b916000199060031b1c19161760028201555b6003810160ff60608501511660ff1982541617905560808301516004820155019060a0600180821b0391015116906bffffffffffffffffffffffff60a01b918282541617905560405190611d70826129e0565b6000808352858152600260205260409020546001600160a01b03168015159186919083611faa575b6001600160a01b038916600081815260036020908152604080832080546001019055868352600290915281208054909316821790925591907fddf252ad1be2c89b69c2b068fc378daa952ba7f163c4a11628f55a4df523b3ef9080a4611f9157843b611e5b575b50827f0865d562d0b6b74e1077f5025ae1b9834ba89af77c7f1444cbdb18cbef8c352760209560ff611e3c60405196604088526040880190612905565b9416858801526001600160a01b031693339381900390a4604051908152f35b60405160208180611e95630a85bd0160e11b9586835233600484015260006024840152896044840152608060648401526084830190612905565b038160006001600160a01b038b165af160009181611f4c575b50611f1657853d15611f0e573d90611ec582612b14565b91611ed36040519384612a4d565b82523d6000602084013e5b81519182611f0757604051633250574960e11b81526001600160a01b0383166004820152602490fd5b6020915001fd5b606090611ede565b6001600160e01b03191603611f2b5782611dff565b604051633250574960e11b81526001600160a01b0385166004820152602490fd5b9091506020813d602011611f89575b81611f6860209383612a4d565b8101031261017e57516001600160e01b03198116810361017e579087611eae565b3d9150611f5b565b6040516339e3563760e11b815260006004820152602490fd5b600083815260046020526040902080546001600160a01b031916905581600052600360205260406000206000198154019055611d98565b015190508980611d05565b906002840160005260206000209160005b601f1985168110612047575091839160019360059695601f1981161061202e575b505050811b016002820155611d1d565b015160001960f88460031b161c1916905589808061201e565b91926020600181928685015181550194019201611ffd565b600284016000526020600020601f840160051c81016020851061209f575b601f830160051c82018110612093575050611ce8565b6000815560010161207d565b508061207d565b015190508880611ca4565b600185016000908152602081209350601f198516905b81811061210657509084600195949392106120ed575b505050811b016001820155611cbc565b015160001960f88460031b161c191690558880806120dd565b929360206001819287860151815501950193016120c7565b909150600184016000526020600020601f840160051c81016020851061216a575b90849392915b601f830160051c8201811061215b575050611c8d565b60008155859450600101612145565b508061213f565b015190508880611c4a565b6000858152602081209350601f198516905b8181106121ca57509084600195949392106121b1575b505050811b018155611c5f565b015160001960f88460031b161c191690558880806121a4565b9293602060018192878601518155019501930161218e565b909150836000526020600020601f840160051c81016020851061222b575b90849392915b601f830160051c8201811061221c575050611c33565b60008155859450600101612206565b5080612200565b60405162461bcd60e51b81526020600482015260166024820152755472617368206d75737420686176652061206e616d6560501b6044820152606490fd5b60405162461bcd60e51b815260206004820152602360248201527f5374696e6b206c6576656c20746f6f2068696768206576656e20666f722074726044820152620c2e6d60eb1b6064820152608490fd5b606460405162461bcd60e51b815260206004820152602060248201527f43616e6e6f74207468726f7720747261736820696e746f2074686520766f69646044820152fd5b3461017e57604036600319011261017e5761231e61292a565b6024359081151580920361017e576001600160a01b031690811561239157336000526005602052604060002082600052602052604060002060ff1981541660ff83161790556040519081527f17307eab39ab6107e8899845ad3d59bd9653f200f220920489ca2b5937696c3160203392a3005b604051630b61174360e31b815260048101839052602490fd5b3461017e57600036600319011261017e57604051600060018054906123ce8261298b565b8085529181811690811561244e57506001146123f5575b6118ac8461189881860382612a4d565b600081815292507fb10e2d527612073b26eecdfd717e6a320cf44b4afac2b0732d9fcbe2b7fa0cf65b828410612436575050508101602001611898826123e5565b8054602085870181019190915290930192810161241e565b60ff191660208087019190915292151560051b8501909201925061189891508390506123e5565b3461017e57600036600319011261017e576007546040516001600160a01b039091168152602090f35b3461017e57602036600319011261017e57600435600052600960205261251c60406000206124cb81612a6e565b906124d860018201612a6e565b6124e460028301612a6e565b9161253860ff6003830154169361252a600484015493600560018060a01b03910154169460405198899860c08a5260c08a0190612905565b9088820360208a0152612905565b908682036040880152612905565b926060850152608084015260a08301520390f35b3461017e57600036600319011261017e57612565612b84565b600780546001600160a01b031981169091556000906001600160a01b03167f8be0079c531659141344cd1fd0a4f28419497f9722a3daafe3b4186f6b6457e08280a3005b3461017e57602036600319011261017e576001600160a01b036125ca61292a565b1680156125e95760005260036020526020604060002054604051908152f35b6040516322718ad960e21b815260006004820152602490fd5b3461017e57602036600319011261017e576020612620600435612d4f565b6040516001600160a01b039091168152f35b3461017e57611b1161264336612956565b9060405192612651846129e0565b60008452611b0b838383612bb0565b3461017e57611b1161267136612956565b91612bb0565b3461017e57600036600319011261017e576020600854604051908152f35b3461017e57604036600319011261017e576126ae61292a565b6024356126ba81612d4f565b33151580612769575b8061273c575b612724576001600160a01b039283169282918491167f8c5be1e5ebec7d5bd14f71427d1e84f3dd0314c0f7b2291e5b200ac8c7c3b925600080a4600090815260046020526040902080546001600160a01b0319169091179055005b60405163a9fbf51f60e01b8152336004820152602490fd5b5060018060a01b038116600052600560205260406000203360005260205260ff60406000205416156126c9565b506001600160a01b0381163314156126c3565b3461017e57602036600319011261017e5760043561279981612d4f565b506000526004602052602060018060a01b0360406000205416604051908152f35b3461017e57600036600319011261017e57604051600080546127db8161298b565b8084529060019081811690811561244e5750600114612804576118ac8461189881860382612a4d565b600080805292507f290decd9548b62a8d60345a988386fc84ba6bc95484008f6362f93160ef3e5635b828410612845575050508101602001611898826123e5565b8054602085870181019190915290930192810161282d565b3461017e57602036600319011261017e576004359063ffffffff60e01b821680920361017e57602091632483248360e11b811490811561289f575b5015158152f35b6380ac58cd60e01b8114915081156128d1575b81156128c0575b5083612898565b6301ffc9a760e01b149050836128b9565b635b5e139f60e01b811491506128b2565b60005b8381106128f55750506000910152565b81810151838201526020016128e5565b9060209161291e815180928185528580860191016128e2565b601f01601f1916010190565b600435906001600160a01b038216820361017e57565b602435906001600160a01b038216820361017e57565b606090600319011261017e576001600160a01b0390600435828116810361017e5791602435908116810361017e579060443590565b90600182811c921680156129bb575b60208310146129a557565b634e487b7160e01b600052602260045260246000fd5b91607f169161299a565b60c081019081106001600160401b0382111761194457604052565b602081019081106001600160401b0382111761194457604052565b604081019081106001600160401b0382111761194457604052565b61016081019081106001600160401b0382111761194457604052565b606081019081106001600160401b0382111761194457604052565b90601f801991011681019081106001600160401b0382111761194457604052565b9060405191826000825492612a828461298b565b908184526001948581169081600014612af15750600114612aae575b5050612aac92500383612a4d565b565b9093915060005260209081600020936000915b818310612ad9575050612aac93508201013880612a9e565b85548884018501529485019487945091830191612ac1565b915050612aac94506020925060ff191682840152151560051b8201013880612a9e565b6001600160401b03811161194457601f01601f191660200190565b929192612b3b82612b14565b91612b496040519384612a4d565b82948184528183011161017e578281602093846000960137010152565b9080601f8301121561017e57816020612b8193359101612b2f565b90565b6007546001600160a01b03163303612b9857565b60405163118cdaa760e01b8152336004820152602490fd5b6001600160a01b039182169290918315612d3657600092828452826020956002875260409684888820541696879133151580612ca0575b509060027fddf252ad1be2c89b69c2b068fc378daa952ba7f163c4a11628f55a4df523b3ef9284612c6d575b858352600381528b8320805460010190558683525289812080546001600160a01b0319168517905580a41692838303612c4c5750505050565b6064945051926364283d7b60e01b8452600484015260248301526044820152fd5b600087815260046020526040902080546001600160a01b0319169055848352600381528b83208054600019019055612c13565b91939450915080612cf5575b15612cbc57859291879138612be7565b878688612cd9576024915190637e27328960e01b82526004820152fd5b604491519063177e802f60e01b82523360048301526024820152fd5b503387148015612d1a575b80612cac5750858252600481523385898420541614612cac565b5086825260058152878220338352815260ff8883205416612d00565b604051633250574960e11b815260006004820152602490fd5b6000818152600260205260409020546001600160a01b0316908115612d72575090565b60249060405190637e27328960e01b82526004820152fd5b90939192833b612d9c575b5050505050565b604051630a85bd0160e11b8082526001600160a01b039384166004830152958316602482015260448101919091526080606482015294921692602092918590612de9906084830190612905565b039483816000978189895af1869181612e94575b50612e5e575050503d600014612e55573d612e1781612b14565b90612e256040519283612a4d565b81528093823d92013e5b82519283612e5057604051633250574960e11b815260048101849052602490fd5b019050fd5b60609250612e2f565b919450915063ffffffff60e01b1603612e7c57503880808080612d95565b60249060405190633250574960e11b82526004820152fd5b9091508481813d8311612ed1575b612eac8183612a4d565b81010312612ecd57516001600160e01b031981168103612ecd579038612dfd565b8680fd5b503d612ea2565b90612ee282612b14565b612eef6040519182612a4d565b8281528092612f00601f1991612b14565b0190602036910137565b805115612fed578051600291828201809211611918576003918290046001600160fe1b038116810361191857612f43908495941b612ed8565b936020850193829183518401906020820192835194600085525b838110612f9c575050505052510680600114612f8957600214612f7e575090565b603d90600019015390565b50603d9081600019820153600119015390565b87600491999293949901918251600190603f9082828260121c16880101518453828282600c1c16880101518385015382828260061c1688010151888501531685010151898201530197929190612f5d565b5050604051612ffb816129e0565b6000815290565b806000917a184f03e93ff9f4daa797ed6e38ed64bf6a1f01000000000000000080821015613137575b506d04ee2d6d415b85acef810000000080831015613128575b50662386f26fc1000080831015613119575b506305f5e1008083101561310a575b50612710808310156130fb575b5060648210156130eb575b600a809210156130e1575b600190816021613099828701612ed8565b95860101905b6130ab575b5050505090565b600019019083906f181899199a1a9b1b9c1cb0b131b232b360811b8282061a8353049182156130dc5791908261309f565b6130a4565b9160010191613088565b919060646002910491019161307d565b60049193920491019138613072565b60089193920491019138613065565b60109193920491019138613056565b60209193920491019138613044565b60409350810491503861302b565b60008051602061353283398151915281527f2076616c7565733d22302e363b302e323b302e3622206475723d22312e35732260208201527f20726570656174436f756e743d22696e646566696e697465222f3e3c2f706174604082015261341f60f11b606082015260620190565b600360ff8216106134a45760011c607f166005811161349c575b60409081516131db816129e0565b6000815282516131ea816129e0565b6000815283516131f9816129e0565b60008152928451613209816129e0565b6000815260ff865161321a816129e0565b600081529216956001871015613435575b60028710156133ce575b6003871015613363575b866004612b81979810156132f8575b60051115613283575b51958693855161326f8160209889808a0191016128e2565b8501610d26825180938980850191016128e2565b809250517f3c7061746820643d224d3236302c31343020513237302c313230203236302c316020820152600080516020613512833981519152838201526000805160206134f283398151915260608201526132f2816132e460808201613145565b03601f198101835282612a4d565b91613257565b9150600581517f3c7061746820643d224d3233302c31343020513234302c313230203233302c316020820152600080516020613512833981519152838201526000805160206134f2833981519152606082015261335b816132e460808201613145565b92905061324e565b612b81955080517f3c7061746820643d224d3230302c31343020513231302c313230203230302c316020820152600080516020613512833981519152828201526000805160206134f283398151915260608201526133c7816132e460808201613145565b955061323f565b809350517f3c7061746820643d224d3137302c31343020513138302c313230203137302c316020820152600080516020613512833981519152848201526000805160206134f2833981519152606082015261342f816132e460808201613145565b92613235565b809450517f3c7061746820643d224d3134302c31343020513135302c313230203134302c316020820152600080516020613512833981519152858201526000805160206134f28339815191526060820152613496816132e460808201613145565b9361322b565b5060056131cd565b50604051612ffb816129e056fe227472616e73666f726d2220747970653d227363616c65222076616c7565733d3c616e696d6174655472616e73666f726d206174747269627574654e616d653d683d2233222066696c6c3d226e6f6e6522206f7061636974793d22302e36223e303022207374726f6b653d222338344343313622207374726f6b652d776964743c616e696d617465206174747269627574654e616d653d226f70616369747922a264697066735822122031c64b87093599d4465195754e4838ed9a5964722ae40cb54792caf805da2c4164736f6c63430008140033","opcodes":"PUSH1 0x80 CALLVALUE PUSH3 0x377 JUMPI PUSH1 0x1 PUSH1 0x1 PUSH1 0x40 SHL SUB SWAP1 PUSH1 0x40 DUP2 DUP2 ADD DUP4 DUP2 GT DUP4 DUP3 LT OR PUSH3 0x361 JUMPI DUP2 MSTORE PUSH1 0x9 DUP3 MSTORE PUSH1 0x20 SWAP2 PUSH9 0x151C985CDA08139195 PUSH1 0xBA SHL DUP4 DUP3 ADD MSTORE DUP2 MLOAD SWAP4 DUP3 DUP6 ADD DUP6 DUP2 LT DUP3 DUP3 GT OR PUSH3 0x361 JUMPI DUP4 MSTORE PUSH1 0x5 DUP6 MSTORE PUSH5 0xA8A482A69 PUSH1 0xDB SHL DUP5 DUP7 ADD MSTORE DUP2 MLOAD DUP2 DUP2 GT PUSH3 0x361 JUMPI PUSH1 0x0 SWAP5 DUP6 SLOAD SWAP2 PUSH1 0x1 SWAP5 DUP6 DUP5 DUP2 SHR SWAP5 AND DUP1 ISZERO PUSH3 0x356 JUMPI JUMPDEST DUP4 DUP6 LT EQ PUSH3 0x342 JUMPI DUP2 SWAP1 PUSH1 0x1F SWAP5 DUP6 DUP2 GT PUSH3 0x2EF JUMPI JUMPDEST POP DUP4 SWAP1 DUP6 DUP4 GT PUSH1 0x1 EQ PUSH3 0x28B JUMPI DUP10 SWAP3 PUSH3 0x27F JUMPI JUMPDEST POP POP PUSH1 0x0 NOT PUSH1 0x3 DUP4 SWAP1 SHL SHR NOT AND SWAP1 DUP6 SHL OR DUP7 SSTORE JUMPDEST DUP7 MLOAD SWAP3 DUP4 GT PUSH3 0x26B JUMPI DUP4 SLOAD DUP5 DUP2 DUP2 SHR SWAP2 AND DUP1 ISZERO PUSH3 0x260 JUMPI JUMPDEST DUP3 DUP3 LT EQ PUSH3 0x24C JUMPI DUP3 DUP2 GT PUSH3 0x204 JUMPI JUMPDEST POP DUP1 SWAP2 DUP4 GT PUSH1 0x1 EQ PUSH3 0x19D JUMPI POP DUP5 SWAP6 DUP3 SWAP4 SWAP5 SWAP6 SWAP3 PUSH3 0x191 JUMPI JUMPDEST POP POP PUSH1 0x0 NOT PUSH1 0x3 DUP4 SWAP1 SHL SHR NOT AND SWAP1 DUP3 SHL OR SWAP1 SSTORE JUMPDEST CALLER ISZERO PUSH3 0x179 JUMPI PUSH1 0x7 DUP1 SLOAD CALLER PUSH1 0x1 PUSH1 0x1 PUSH1 0xA0 SHL SUB NOT DUP3 AND DUP2 OR SWAP1 SWAP3 SSTORE SWAP2 MLOAD SWAP3 SWAP1 SWAP2 PUSH1 0x1 PUSH1 0x1 PUSH1 0xA0 SHL SUB AND SWAP1 PUSH32 0x8BE0079C531659141344CD1FD0A4F28419497F9722A3DAAFE3B4186F6B6457E0 SWAP1 DUP1 LOG3 PUSH2 0x3587 SWAP1 DUP2 PUSH3 0x37D DUP3 CODECOPY RETURN JUMPDEST MLOAD PUSH4 0x1E4FBDF7 PUSH1 0xE0 SHL DUP2 MSTORE PUSH1 0x4 DUP2 ADD SWAP2 SWAP1 SWAP2 MSTORE PUSH1 0x24 SWAP1 REVERT JUMPDEST ADD MLOAD SWAP1 POP CODESIZE DUP1 PUSH3 0x109 JUMP JUMPDEST SWAP1 PUSH1 0x1F NOT DUP4 AND SWAP7 DUP5 DUP8 MSTORE DUP3 DUP8 KECCAK256 SWAP3 DUP8 SWAP1 JUMPDEST DUP10 DUP3 LT PUSH3 0x1EC JUMPI POP POP DUP4 DUP6 SWAP7 SWAP8 SWAP9 LT PUSH3 0x1D2 JUMPI JUMPDEST POP POP POP DUP2 SHL ADD SWAP1 SSTORE PUSH3 0x11D JUMP JUMPDEST ADD MLOAD PUSH1 0x0 NOT PUSH1 0xF8 DUP5 PUSH1 0x3 SHL AND SHR NOT AND SWAP1 SSTORE CODESIZE DUP1 DUP1 PUSH3 0x1C4 JUMP JUMPDEST DUP1 DUP8 DUP6 SWAP7 DUP3 SWAP5 SWAP7 DUP7 ADD MLOAD DUP2 SSTORE ADD SWAP6 ADD SWAP4 ADD SWAP1 PUSH3 0x1AE JUMP JUMPDEST DUP5 DUP8 MSTORE DUP2 DUP8 KECCAK256 DUP4 DUP1 DUP7 ADD PUSH1 0x5 SHR DUP3 ADD SWAP3 DUP5 DUP8 LT PUSH3 0x242 JUMPI JUMPDEST ADD PUSH1 0x5 SHR ADD SWAP1 DUP6 SWAP1 JUMPDEST DUP3 DUP2 LT PUSH3 0x236 JUMPI POP POP PUSH3 0xEE JUMP JUMPDEST DUP9 DUP2 SSTORE ADD DUP6 SWAP1 PUSH3 0x226 JUMP JUMPDEST SWAP3 POP DUP2 SWAP3 PUSH3 0x21D JUMP JUMPDEST PUSH4 0x4E487B71 PUSH1 0xE0 SHL DUP8 MSTORE PUSH1 0x22 PUSH1 0x4 MSTORE PUSH1 0x24 DUP8 REVERT JUMPDEST SWAP1 PUSH1 0x7F AND SWAP1 PUSH3 0xDC JUMP JUMPDEST PUSH4 0x4E487B71 PUSH1 0xE0 SHL DUP7 MSTORE PUSH1 0x41 PUSH1 0x4 MSTORE PUSH1 0x24 DUP7 REVERT JUMPDEST ADD MLOAD SWAP1 POP CODESIZE DUP1 PUSH3 0xAE JUMP JUMPDEST DUP10 DUP1 MSTORE DUP5 DUP11 KECCAK256 DUP9 SWAP5 POP SWAP2 SWAP1 PUSH1 0x1F NOT DUP5 AND DUP12 JUMPDEST DUP8 DUP3 DUP3 LT PUSH3 0x2D8 JUMPI POP POP DUP5 GT PUSH3 0x2BE JUMPI JUMPDEST POP POP POP DUP2 SHL ADD DUP7 SSTORE PUSH3 0xC2 JUMP JUMPDEST ADD MLOAD PUSH1 0x0 NOT PUSH1 0xF8 DUP5 PUSH1 0x3 SHL AND SHR NOT AND SWAP1 SSTORE CODESIZE DUP1 DUP1 PUSH3 0x2B0 JUMP JUMPDEST DUP4 DUP6 ADD MLOAD DUP7 SSTORE DUP12 SWAP8 SWAP1 SWAP6 ADD SWAP5 SWAP4 DUP5 ADD SWAP4 ADD PUSH3 0x29D JUMP JUMPDEST SWAP1 SWAP2 POP DUP9 DUP1 MSTORE DUP4 DUP10 KECCAK256 DUP6 DUP1 DUP6 ADD PUSH1 0x5 SHR DUP3 ADD SWAP3 DUP7 DUP7 LT PUSH3 0x338 JUMPI JUMPDEST SWAP2 DUP10 SWAP2 DUP7 SWAP6 SWAP5 SWAP4 ADD PUSH1 0x5 SHR ADD SWAP2 JUMPDEST DUP3 DUP2 LT PUSH3 0x329 JUMPI POP POP PUSH3 0x98 JUMP JUMPDEST DUP12 DUP2 SSTORE DUP6 SWAP5 POP DUP10 SWAP2 ADD PUSH3 0x319 JUMP JUMPDEST SWAP3 POP DUP2 SWAP3 PUSH3 0x30B JUMP JUMPDEST PUSH4 0x4E487B71 PUSH1 0xE0 SHL DUP9 MSTORE PUSH1 0x22 PUSH1 0x4 MSTORE PUSH1 0x24 DUP9 REVERT JUMPDEST SWAP4 PUSH1 0x7F AND SWAP4 PUSH3 0x81 JUMP JUMPDEST PUSH4 0x4E487B71 PUSH1 0xE0 SHL PUSH1 0x0 MSTORE PUSH1 0x41 PUSH1 0x4 MSTORE PUSH1 0x24 PUSH1 0x0 REVERT JUMPDEST PUSH1 0x0 DUP1 REVERT INVALID PUSH1 0x80 DUP1 PUSH1 0x40 MSTORE PUSH1 0x4 CALLDATASIZE LT ISZERO PUSH2 0x13 JUMPI PUSH1 0x0 DUP1 REVERT JUMPDEST PUSH1 0x0 CALLDATALOAD PUSH1 0xE0 SHR SWAP1 DUP2 PUSH4 0x1FFC9A7 EQ PUSH2 0x285D JUMPI POP DUP1 PUSH4 0x6FDDE03 EQ PUSH2 0x27BA JUMPI DUP1 PUSH4 0x81812FC EQ PUSH2 0x277C JUMPI DUP1 PUSH4 0x95EA7B3 EQ PUSH2 0x2695 JUMPI DUP1 PUSH4 0x18160DDD EQ PUSH2 0x2677 JUMPI DUP1 PUSH4 0x23B872DD EQ PUSH2 0x2660 JUMPI DUP1 PUSH4 0x42842E0E EQ PUSH2 0x2632 JUMPI DUP1 PUSH4 0x6352211E EQ PUSH2 0x2602 JUMPI DUP1 PUSH4 0x70A08231 EQ PUSH2 0x25A9 JUMPI DUP1 PUSH4 0x715018A6 EQ PUSH2 0x254C JUMPI DUP1 PUSH4 0x7C63F279 EQ PUSH2 0x249E JUMPI DUP1 PUSH4 0x8DA5CB5B EQ PUSH2 0x2475 JUMPI DUP1 PUSH4 0x95D89B41 EQ PUSH2 0x23AA JUMPI DUP1 PUSH4 0xA22CB465 EQ PUSH2 0x2305 JUMPI DUP1 PUSH4 0xB15BF9A8 EQ PUSH2 0x1B13 JUMPI DUP1 PUSH4 0xB88D4FDE EQ PUSH2 0x1AA6 JUMPI DUP1 PUSH4 0xC87B56DD EQ PUSH2 0x1D9 JUMPI DUP1 PUSH4 0xE985E9C5 EQ PUSH2 0x183 JUMPI PUSH4 0xF2FDE38B EQ PUSH2 0xF0 JUMPI PUSH1 0x0 DUP1 REVERT JUMPDEST CALLVALUE PUSH2 0x17E JUMPI PUSH1 0x20 CALLDATASIZE PUSH1 0x3 NOT ADD SLT PUSH2 0x17E JUMPI PUSH2 0x109 PUSH2 0x292A JUMP JUMPDEST PUSH2 0x111 PUSH2 0x2B84 JUMP JUMPDEST PUSH1 0x1 PUSH1 0x1 PUSH1 0xA0 SHL SUB SWAP1 DUP2 AND SWAP1 DUP2 ISZERO PUSH2 0x165 JUMPI PUSH1 0x7 SLOAD DUP3 PUSH12 0xFFFFFFFFFFFFFFFFFFFFFFFF PUSH1 0xA0 SHL DUP3 AND OR PUSH1 0x7 SSTORE AND PUSH32 0x8BE0079C531659141344CD1FD0A4F28419497F9722A3DAAFE3B4186F6B6457E0 PUSH1 0x0 DUP1 LOG3 STOP JUMPDEST PUSH1 0x40 MLOAD PUSH4 0x1E4FBDF7 PUSH1 0xE0 SHL DUP2 MSTORE PUSH1 0x0 PUSH1 0x4 DUP3 ADD MSTORE PUSH1 0x24 SWAP1 REVERT JUMPDEST PUSH1 0x0 DUP1 REVERT JUMPDEST CALLVALUE PUSH2 0x17E JUMPI PUSH1 0x40 CALLDATASIZE PUSH1 0x3 NOT ADD SLT PUSH2 0x17E JUMPI PUSH2 0x19C PUSH2 0x292A JUMP JUMPDEST PUSH2 0x1A4 PUSH2 0x2940 JUMP JUMPDEST SWAP1 PUSH1 0x1 DUP1 PUSH1 0xA0 SHL SUB DUP1 SWAP2 AND PUSH1 0x0 MSTORE PUSH1 0x5 PUSH1 0x20 MSTORE PUSH1 0x40 PUSH1 0x0 KECCAK256 SWAP2 AND PUSH1 0x0 MSTORE PUSH1 0x20 MSTORE PUSH1 0x20 PUSH1 0xFF PUSH1 0x40 PUSH1 0x0 KECCAK256 SLOAD AND PUSH1 0x40 MLOAD SWAP1 ISZERO ISZERO DUP2 MSTORE RETURN JUMPDEST CALLVALUE PUSH2 0x17E JUMPI PUSH1 0x20 CALLDATASIZE PUSH1 0x3 NOT ADD SLT PUSH2 0x17E JUMPI PUSH1 0x4 CALLDATALOAD PUSH2 0x1F6 DUP2 PUSH2 0x2D4F JUMP JUMPDEST POP PUSH1 0x0 MSTORE PUSH1 0x9 PUSH1 0x20 MSTORE PUSH1 0x40 PUSH1 0x0 KECCAK256 PUSH1 0x40 MLOAD SWAP1 PUSH2 0x211 DUP3 PUSH2 0x29C5 JUMP JUMPDEST PUSH2 0x21A DUP2 PUSH2 0x2A6E JUMP JUMPDEST DUP3 MSTORE PUSH2 0x228 PUSH1 0x1 DUP3 ADD PUSH2 0x2A6E JUMP JUMPDEST PUSH1 0x20 DUP4 ADD MSTORE PUSH2 0x239 PUSH1 0x2 DUP3 ADD PUSH2 0x2A6E JUMP JUMPDEST PUSH1 0x40 DUP4 ADD MSTORE PUSH1 0x3 DUP2 ADD SLOAD PUSH1 0xFF AND PUSH1 0x60 DUP4 ADD DUP2 SWAP1 MSTORE PUSH1 0x4 DUP3 ADD SLOAD PUSH1 0x80 DUP5 ADD MSTORE PUSH1 0x5 SWAP1 SWAP2 ADD SLOAD PUSH1 0x1 PUSH1 0x1 PUSH1 0xA0 SHL SUB AND PUSH1 0xA0 DUP4 ADD MSTORE PUSH1 0x7 DUP2 GT ISZERO PUSH2 0x1A54 JUMPI POP PUSH1 0x40 MLOAD PUSH2 0x281 DUP2 PUSH2 0x29FB JUMP JUMPDEST PUSH1 0x7 DUP2 MSTORE PUSH7 0x2346463030303 PUSH1 0xCC SHL PUSH1 0x20 DUP3 ADD MSTORE JUMPDEST DUP2 MLOAD PUSH1 0x40 MLOAD PUSH2 0x2C2 PUSH1 0x20 DUP3 DUP2 PUSH2 0x2B5 DUP2 DUP4 ADD SWAP7 DUP8 DUP2 MLOAD SWAP4 DUP5 SWAP3 ADD PUSH2 0x28E2 JUMP JUMPDEST DUP2 ADD SUB DUP1 DUP5 MSTORE ADD DUP3 PUSH2 0x2A4D JUMP JUMPDEST MLOAD SWAP1 KECCAK256 PUSH1 0x40 MLOAD PUSH15 0xE8BC9DE3818FE38186E38293E381A1 PUSH1 0x88 SHL PUSH1 0x20 DUP3 ADD MSTORE PUSH1 0xF DUP2 MSTORE PUSH2 0x2ED DUP2 PUSH2 0x29FB JUMP JUMPDEST PUSH1 0x20 DUP2 MLOAD SWAP2 ADD KECCAK256 EQ DUP1 ISZERO PUSH2 0x1A01 JUMPI JUMPDEST DUP1 ISZERO PUSH2 0x19DC JUMPI PUSH1 0x40 MLOAD PUSH2 0x30E DUP2 PUSH2 0x29FB JUMP JUMPDEST PUSH1 0x7 DUP2 MSTORE PUSH7 0x2346464437303 PUSH1 0xCC SHL PUSH1 0x20 DUP3 ADD MSTORE JUMPDEST DUP4 MLOAD PUSH1 0x40 MLOAD PUSH2 0x342 PUSH1 0x20 DUP3 DUP2 PUSH2 0x2B5 DUP2 DUP4 ADD SWAP7 DUP8 DUP2 MLOAD SWAP4 DUP5 SWAP3 ADD PUSH2 0x28E2 JUMP JUMPDEST MLOAD SWAP1 KECCAK256 PUSH1 0x40 MLOAD PUSH12 0x1CD3901CF6B05CB0B6BCB335 PUSH1 0xA3 SHL PUSH1 0x20 DUP3 ADD SWAP1 DUP2 MSTORE PUSH1 0xC DUP3 MSTORE SWAP1 PUSH2 0x36D DUP2 PUSH2 0x29FB JUMP JUMPDEST MLOAD SWAP1 KECCAK256 EQ DUP1 ISZERO PUSH2 0x1989 JUMPI JUMPDEST ISZERO PUSH2 0x197F JUMPI PUSH1 0x40 MLOAD PUSH2 0x389 DUP2 PUSH2 0x29FB JUMP JUMPDEST PUSH1 0x4 DUP2 MSTORE PUSH4 0xF09F92A9 PUSH1 0xE0 SHL PUSH1 0x20 DUP3 ADD MSTORE JUMPDEST PUSH2 0x3AB PUSH1 0xFF PUSH1 0x60 DUP8 ADD MLOAD AND PUSH2 0x31B3 JUMP JUMPDEST PUSH2 0x3BB PUSH1 0xFF PUSH1 0x60 DUP9 ADD MLOAD AND PUSH2 0x3002 JUMP JUMPDEST SWAP4 PUSH2 0x40C PUSH1 0x30 PUSH1 0x40 MLOAD DUP1 SWAP8 PUSH13 0x29BA34B735902632BB32B61D1 PUSH1 0x9D SHL PUSH1 0x20 DUP4 ADD MSTORE PUSH2 0x3F0 DUP2 MLOAD DUP1 SWAP3 PUSH1 0x20 PUSH1 0x2D DUP7 ADD SWAP2 ADD PUSH2 0x28E2 JUMP JUMPDEST DUP2 ADD PUSH3 0x2F313 PUSH1 0xEC SHL PUSH1 0x2D DUP3 ADD MSTORE SUB PUSH1 0x10 DUP2 ADD DUP9 MSTORE ADD DUP7 PUSH2 0x2A4D JUMP JUMPDEST ISZERO PUSH2 0x195A JUMPI PUSH1 0x40 DUP1 MLOAD PUSH32 0x3C7465787420783D223132302220793D223132302220666F6E742D73697A653D PUSH1 0x20 DUP3 ADD MSTORE PUSH32 0x223330222066696C6C3D222346464437303022206F7061636974793D22302E39 SWAP2 DUP2 ADD SWAP2 SWAP1 SWAP2 MSTORE PUSH2 0x111F PUSH1 0xF1 SHL PUSH1 0x60 DUP3 ADD MSTORE PUSH3 0x1C5395 PUSH1 0xEB SHL PUSH1 0x62 DUP3 ADD MSTORE PUSH1 0x0 DUP1 MLOAD PUSH1 0x20 PUSH2 0x3532 DUP4 CODECOPY DUP2 MLOAD SWAP2 MSTORE PUSH1 0x65 DUP3 ADD MSTORE PUSH32 0x2076616C7565733D22302E353B313B302E3522206475723D22302E3573222072 PUSH1 0x85 DUP3 ADD MSTORE PUSH32 0x6570656174436F756E743D22696E646566696E697465222F3E00000000000000 PUSH1 0xA5 DUP3 ADD MSTORE PUSH1 0x0 DUP1 MLOAD PUSH1 0x20 PUSH2 0x34D2 DUP4 CODECOPY DUP2 MLOAD SWAP2 MSTORE PUSH1 0xBE DUP3 ADD MSTORE PUSH1 0x0 DUP1 MLOAD PUSH1 0x20 PUSH2 0x34B2 DUP4 CODECOPY DUP2 MLOAD SWAP2 MSTORE PUSH1 0xDE DUP3 ADD MSTORE PUSH32 0x22302E383B312E323B302E3822206475723D22302E3573222072657065617443 PUSH1 0xFE DUP3 ADD MSTORE PUSH19 0x37BAB73A1E9134B73232B334B734BA3291179F PUSH1 0x69 SHL PUSH2 0x11E DUP3 ADD MSTORE PUSH7 0x1E17BA32BC3A1F PUSH1 0xC9 SHL PUSH2 0x131 DUP3 ADD MSTORE PUSH2 0x118 DUP2 MSTORE SWAP4 PUSH1 0x1 PUSH1 0x1 PUSH1 0x40 SHL SUB PUSH2 0x140 DUP7 ADD SWAP1 DUP2 GT SWAP1 DUP7 GT OR PUSH2 0x1944 JUMPI PUSH2 0x140 DUP6 ADD PUSH1 0x40 DUP2 SWAP1 MSTORE PUSH32 0x3C7465787420783D223238302220793D223132302220666F6E742D73697A653D PUSH2 0x160 DUP8 ADD MSTORE PUSH32 0x223330222066696C6C3D222346464437303022206F7061636974793D22302E39 PUSH2 0x180 DUP8 ADD MSTORE PUSH2 0x111F PUSH1 0xF1 SHL PUSH2 0x1A0 DUP8 ADD MSTORE PUSH3 0x1C5395 PUSH1 0xEB SHL PUSH2 0x1A2 DUP8 ADD MSTORE PUSH1 0x0 DUP1 MLOAD PUSH1 0x20 PUSH2 0x3532 DUP4 CODECOPY DUP2 MLOAD SWAP2 MSTORE PUSH2 0x1A5 DUP8 ADD MSTORE PUSH32 0x2076616C7565733D22302E353B313B302E3522206475723D22302E3573222062 PUSH2 0x1C5 DUP8 ADD MSTORE PUSH32 0x6567696E3D22302E3235732220726570656174436F756E743D22696E64656669 PUSH2 0x1E5 DUP8 ADD MSTORE PUSH7 0x3734BA3291179F PUSH1 0xC9 SHL PUSH2 0x205 DUP8 ADD MSTORE PUSH1 0x0 DUP1 MLOAD PUSH1 0x20 PUSH2 0x34D2 DUP4 CODECOPY DUP2 MLOAD SWAP2 MSTORE PUSH2 0x20C DUP8 ADD MSTORE PUSH1 0x0 DUP1 MLOAD PUSH1 0x20 PUSH2 0x34B2 DUP4 CODECOPY DUP2 MLOAD SWAP2 MSTORE PUSH2 0x22C DUP8 ADD MSTORE PUSH32 0x22302E383B312E323B302E3822206475723D22302E35732220626567696E3D22 PUSH2 0x24C DUP8 ADD MSTORE PUSH32 0x302E3235732220726570656174436F756E743D22696E646566696E697465222F PUSH2 0x26C DUP8 ADD MSTORE PUSH1 0x1F PUSH1 0xF9 SHL PUSH2 0x28C DUP8 ADD MSTORE PUSH7 0x1E17BA32BC3A1F PUSH1 0xC9 SHL PUSH2 0x28D DUP8 ADD MSTORE PUSH2 0x134 DUP2 MSTORE PUSH2 0x138E SWAP6 PUSH1 0x20 SWAP6 PUSH2 0x1297 SWAP4 PUSH2 0x105 SWAP4 SWAP2 SWAP3 SWAP1 SWAP2 PUSH2 0x1121 SWAP2 SWAP1 PUSH2 0x713 SWAP1 PUSH2 0x2A16 JUMP JUMPDEST PUSH2 0xD6B DUP10 PUSH1 0x40 MLOAD SWAP3 PUSH32 0x3C7465787420783D223130302220793D223230302220666F6E742D73697A653D DUP3 DUP6 ADD MSTORE PUSH32 0x223235222066696C6C3D222346464437303022206F7061636974793D22302E38 PUSH1 0x40 DUP6 ADD MSTORE PUSH2 0x111F PUSH1 0xF1 SHL PUSH1 0x60 DUP6 ADD MSTORE PUSH3 0x1C5395 PUSH1 0xEB SHL PUSH1 0x62 DUP6 ADD MSTORE PUSH1 0x0 DUP1 MLOAD PUSH1 0x20 PUSH2 0x3532 DUP4 CODECOPY DUP2 MLOAD SWAP2 MSTORE PUSH1 0x65 DUP6 ADD MSTORE PUSH32 0x2076616C7565733D22302E333B313B302E3322206475723D22302E3673222062 PUSH1 0x85 DUP6 ADD MSTORE PUSH32 0x6567696E3D22302E31732220726570656174436F756E743D22696E646566696E PUSH1 0xA5 DUP6 ADD MSTORE PUSH6 0x34BA3291179F PUSH1 0xD1 SHL PUSH1 0xC5 DUP6 ADD MSTORE PUSH1 0x0 DUP1 MLOAD PUSH1 0x20 PUSH2 0x34D2 DUP4 CODECOPY DUP2 MLOAD SWAP2 MSTORE PUSH1 0xCB DUP6 ADD MSTORE PUSH1 0x0 DUP1 MLOAD PUSH1 0x20 PUSH2 0x34B2 DUP4 CODECOPY DUP2 MLOAD SWAP2 MSTORE PUSH1 0xEB DUP6 ADD MSTORE PUSH32 0x22302E373B312E333B302E3722206475723D22302E36732220626567696E3D22 PUSH2 0x10B DUP6 ADD MSTORE PUSH32 0x302E31732220726570656174436F756E743D22696E646566696E697465222F3E PUSH2 0x12B DUP6 ADD MSTORE PUSH7 0x1E17BA32BC3A1F PUSH1 0xC9 SHL PUSH2 0x14B DUP6 ADD MSTORE PUSH2 0x132 DUP5 MSTORE PUSH2 0x881 DUP5 PUSH2 0x2A16 JUMP JUMPDEST PUSH1 0x40 DUP1 MLOAD PUSH32 0x3C7465787420783D223330302220793D223230302220666F6E742D73697A653D DUP5 DUP3 ADD MSTORE PUSH32 0x223235222066696C6C3D222346464437303022206F7061636974793D22302E38 SWAP2 DUP2 ADD SWAP2 SWAP1 SWAP2 MSTORE PUSH2 0x111F PUSH1 0xF1 SHL PUSH1 0x60 DUP3 ADD MSTORE PUSH3 0x1C5395 PUSH1 0xEB SHL PUSH1 0x62 DUP3 ADD MSTORE PUSH1 0x0 DUP1 MLOAD PUSH1 0x20 PUSH2 0x3532 DUP4 CODECOPY DUP2 MLOAD SWAP2 MSTORE PUSH1 0x65 DUP3 ADD MSTORE PUSH32 0x2076616C7565733D22302E333B313B302E3322206475723D22302E3673222062 PUSH1 0x85 DUP3 ADD MSTORE PUSH32 0x6567696E3D22302E3335732220726570656174436F756E743D22696E64656669 PUSH1 0xA5 DUP3 ADD MSTORE PUSH7 0x3734BA3291179F PUSH1 0xC9 SHL PUSH1 0xC5 DUP3 ADD MSTORE PUSH1 0x0 DUP1 MLOAD PUSH1 0x20 PUSH2 0x34D2 DUP4 CODECOPY DUP2 MLOAD SWAP2 MSTORE PUSH1 0xCC DUP3 ADD MSTORE PUSH1 0x0 DUP1 MLOAD PUSH1 0x20 PUSH2 0x34B2 DUP4 CODECOPY DUP2 MLOAD SWAP2 MSTORE PUSH1 0xEC DUP3 ADD MSTORE PUSH32 0x22302E373B312E333B302E3722206475723D22302E36732220626567696E3D22 PUSH2 0x10C DUP3 ADD MSTORE PUSH32 0x302E3335732220726570656174436F756E743D22696E646566696E697465222F PUSH2 0x12C DUP3 ADD MSTORE PUSH1 0x1F PUSH1 0xF9 SHL PUSH2 0x14C DUP3 ADD MSTORE PUSH7 0x1E17BA32BC3A1F PUSH1 0xC9 SHL PUSH2 0x14D DUP3 ADD MSTORE PUSH2 0x134 DUP2 MSTORE PUSH2 0x9F9 DUP2 PUSH2 0x2A16 JUMP JUMPDEST PUSH1 0x40 DUP1 MLOAD PUSH32 0x3C7465787420783D223135302220793D223235302220666F6E742D73697A653D DUP6 DUP3 ADD MSTORE PUSH32 0x223230222066696C6C3D222346464437303022206F7061636974793D22302E37 SWAP2 DUP2 ADD SWAP2 SWAP1 SWAP2 MSTORE PUSH2 0x111F PUSH1 0xF1 SHL PUSH1 0x60 DUP3 ADD MSTORE PUSH3 0x1C5395 PUSH1 0xEB SHL PUSH1 0x62 DUP3 ADD MSTORE PUSH1 0x0 DUP1 MLOAD PUSH1 0x20 PUSH2 0x3532 DUP4 CODECOPY DUP2 MLOAD SWAP2 MSTORE PUSH1 0x65 DUP3 ADD MSTORE PUSH32 0x2076616C7565733D22302E323B302E393B302E3222206475723D22302E377322 PUSH1 0x85 DUP3 ADD MSTORE PUSH32 0x20626567696E3D22302E32732220726570656174436F756E743D22696E646566 PUSH1 0xA5 DUP3 ADD MSTORE PUSH8 0x34B734BA3291179F PUSH1 0xC1 SHL PUSH1 0xC5 DUP3 ADD MSTORE PUSH1 0x0 DUP1 MLOAD PUSH1 0x20 PUSH2 0x34D2 DUP4 CODECOPY DUP2 MLOAD SWAP2 MSTORE PUSH1 0xCD DUP3 ADD MSTORE PUSH1 0x0 DUP1 MLOAD PUSH1 0x20 PUSH2 0x34B2 DUP4 CODECOPY DUP2 MLOAD SWAP2 MSTORE PUSH1 0xED DUP3 ADD MSTORE PUSH32 0x22302E363B312E343B302E3622206475723D22302E37732220626567696E3D22 PUSH2 0x10D DUP3 ADD MSTORE PUSH32 0x302E32732220726570656174436F756E743D22696E646566696E697465222F3E PUSH2 0x12D DUP3 ADD MSTORE PUSH7 0x1E17BA32BC3A1F PUSH1 0xC9 SHL PUSH2 0x14D DUP3 ADD MSTORE PUSH2 0x134 DUP2 MSTORE PUSH2 0xB67 DUP2 PUSH2 0x2A16 JUMP JUMPDEST PUSH1 0x40 DUP1 MLOAD PUSH32 0x3C7465787420783D223235302220793D223235302220666F6E742D73697A653D DUP7 DUP3 ADD MSTORE PUSH32 0x223230222066696C6C3D222346464437303022206F7061636974793D22302E37 SWAP2 DUP2 ADD SWAP2 SWAP1 SWAP2 MSTORE PUSH2 0x111F PUSH1 0xF1 SHL PUSH1 0x60 DUP3 ADD MSTORE PUSH3 0x1C5395 PUSH1 0xEB SHL PUSH1 0x62 DUP3 ADD MSTORE PUSH1 0x0 DUP1 MLOAD PUSH1 0x20 PUSH2 0x3532 DUP4 CODECOPY DUP2 MLOAD SWAP2 MSTORE PUSH1 0x65 DUP3 ADD MSTORE PUSH32 0x2076616C7565733D22302E323B302E393B302E3222206475723D22302E377322 PUSH1 0x85 DUP3 ADD MSTORE PUSH32 0x20626567696E3D22302E3435732220726570656174436F756E743D22696E6465 PUSH1 0xA5 DUP3 ADD MSTORE PUSH9 0x3334B734BA3291179F PUSH1 0xB9 SHL PUSH1 0xC5 DUP3 ADD MSTORE PUSH1 0x0 DUP1 MLOAD PUSH1 0x20 PUSH2 0x34D2 DUP4 CODECOPY DUP2 MLOAD SWAP2 MSTORE PUSH1 0xCE DUP3 ADD MSTORE PUSH1 0x0 DUP1 MLOAD PUSH1 0x20 PUSH2 0x34B2 DUP4 CODECOPY DUP2 MLOAD SWAP2 MSTORE PUSH1 0xEE DUP3 ADD MSTORE PUSH32 0x22302E363B312E343B302E3622206475723D22302E37732220626567696E3D22 PUSH2 0x10E DUP3 ADD MSTORE PUSH32 0x302E3435732220726570656174436F756E743D22696E646566696E697465222F PUSH2 0x12E DUP3 ADD MSTORE PUSH1 0x1F PUSH1 0xF9 SHL PUSH2 0x14E DUP3 ADD MSTORE PUSH7 0x1E17BA32BC3A1F PUSH1 0xC9 SHL PUSH2 0x14F DUP3 ADD MSTORE PUSH2 0x136 DUP2 MSTORE SWAP2 PUSH2 0xCE2 DUP4 PUSH2 0x2A16 JUMP JUMPDEST PUSH1 0x40 MLOAD SWAP7 DUP5 DUP9 SWAP6 MLOAD PUSH2 0xCF9 DUP2 DUP10 DUP10 ADD DUP11 DUP6 ADD PUSH2 0x28E2 JUMP JUMPDEST DUP7 ADD PUSH2 0xD13 PUSH2 0x140 DUP4 ADD MLOAD DUP1 SWAP4 PUSH2 0x160 DUP12 DUP6 ADD SWAP2 ADD PUSH2 0x28E2 JUMP JUMPDEST ADD PUSH2 0xD26 DUP3 MLOAD DUP1 SWAP4 DUP10 DUP1 DUP6 ADD SWAP2 ADD PUSH2 0x28E2 JUMP JUMPDEST ADD PUSH2 0xD39 DUP3 MLOAD DUP1 SWAP4 DUP9 DUP1 DUP6 ADD SWAP2 ADD PUSH2 0x28E2 JUMP JUMPDEST ADD PUSH2 0xD4C DUP3 MLOAD DUP1 SWAP4 DUP8 DUP1 DUP6 ADD SWAP2 ADD PUSH2 0x28E2 JUMP JUMPDEST ADD PUSH2 0xD5F DUP3 MLOAD DUP1 SWAP4 DUP7 DUP1 DUP6 ADD SWAP2 ADD PUSH2 0x28E2 JUMP JUMPDEST ADD SUB DUP1 DUP5 MSTORE ADD DUP3 PUSH2 0x2A4D JUMP JUMPDEST PUSH1 0x40 MLOAD DUP1 SWAP9 PUSH32 0x3C3F786D6C2076657273696F6E3D22312E302220656E636F64696E673D225554 DUP12 DUP4 ADD MSTORE PUSH6 0x23169C111F9F PUSH1 0xD1 SHL PUSH1 0x40 DUP4 ADD MSTORE PUSH32 0x3C73766720786D6C6E733D22687474703A2F2F7777772E77332E6F72672F3230 PUSH1 0x46 DUP4 ADD MSTORE PUSH32 0x30302F737667222076696577426F783D22302030203430302034303022207769 PUSH1 0x66 DUP4 ADD MSTORE PUSH32 0x6474683D2234303022206865696768743D223430302220707265736572766541 PUSH1 0x86 DUP4 ADD MSTORE PUSH32 0x7370656374526174696F3D22784D6964594D6964206D656574223E0000000000 PUSH1 0xA6 DUP4 ADD MSTORE PUSH6 0x1E3232B3399F PUSH1 0xD1 SHL PUSH1 0xC1 DUP4 ADD MSTORE PUSH32 0x3C72616469616C4772616469656E742069643D226267222063783D2235302522 PUSH1 0xC7 DUP4 ADD MSTORE PUSH18 0x1031BC9E911A98129110391E911A9812911F PUSH1 0x71 SHL PUSH1 0xE7 DUP4 ADD MSTORE PUSH32 0x3C73746F70206F66667365743D22302522207374796C653D2273746F702D636F PUSH1 0xF9 DUP4 ADD MSTORE PUSH14 0x3637B91D1198B09830993291179F PUSH1 0x91 SHL PUSH2 0x119 DUP4 ADD MSTORE PUSH32 0x3C73746F70206F66667365743D223130302522207374796C653D2273746F702D PUSH2 0x127 DUP4 ADD MSTORE PUSH16 0x31B7B637B91D1198331833183311179F PUSH1 0x81 SHL PUSH2 0x147 DUP4 ADD MSTORE PUSH17 0x1E17B930B234B0B623B930B234B2B73A1F PUSH1 0x79 SHL PUSH2 0x157 DUP4 ADD MSTORE PUSH18 0x1E3334B63A32B91034B21E9133B637BB911F PUSH1 0x71 SHL PUSH2 0x168 DUP4 ADD MSTORE PUSH32 0x3C6665476175737369616E426C757220737464446576696174696F6E3D223322 PUSH2 0x17A DUP4 ADD MSTORE PUSH32 0x20726573756C743D22636F6C6F726564426C7572222F3E000000000000000000 PUSH2 0x19A DUP4 ADD MSTORE PUSH32 0x3C66654D657267653E3C66654D657267654E6F646520696E3D22636F6C6F7265 PUSH2 0x1B1 DUP4 ADD MSTORE PUSH32 0x64426C7572222F3E3C66654D657267654E6F646520696E3D22536F7572636547 PUSH2 0x1D1 DUP4 ADD MSTORE PUSH19 0x3930B83434B191179F1E17B332A6B2B933B29F PUSH1 0x69 SHL PUSH2 0x1F1 DUP4 ADD MSTORE PUSH9 0x1E17B334B63A32B91F PUSH1 0xB9 SHL PUSH2 0x204 DUP4 ADD MSTORE PUSH7 0x1E17B232B3399F PUSH1 0xC9 SHL PUSH2 0x20D DUP4 ADD MSTORE PUSH32 0x3C726563742077696474683D2234303022206865696768743D22343030222066 PUSH2 0x214 DUP4 ADD MSTORE PUSH16 0x34B6361E913AB9361411B1339491179F PUSH1 0x81 SHL PUSH2 0x234 DUP4 ADD MSTORE PUSH32 0x3C7465787420783D223230302220793D223138302220746578742D616E63686F PUSH2 0x244 DUP4 ADD MSTORE PUSH32 0x723D226D6964646C652220666F6E742D73697A653D22313230222066696C7465 PUSH2 0x264 DUP4 ADD MSTORE PUSH32 0x723D2275726C2823676C6F7729222066696C6C3D2223464646464646223E0000 PUSH2 0x284 DUP4 ADD MSTORE PUSH7 0x1E17BA32BC3A1F PUSH1 0xC9 SHL DUP2 MLOAD PUSH2 0x10F5 DUP2 PUSH2 0x2A2 SWAP5 DUP16 DUP7 DUP9 ADD SWAP2 ADD PUSH2 0x28E2 JUMP JUMPDEST DUP4 ADD SWAP2 DUP3 ADD MSTORE DUP3 MLOAD SWAP1 PUSH2 0x1111 DUP3 PUSH2 0x2A9 SWAP6 DUP15 DUP8 DUP6 ADD SWAP2 ADD PUSH2 0x28E2 JUMP JUMPDEST ADD SUB PUSH2 0x289 DUP2 ADD DUP10 MSTORE ADD DUP8 PUSH2 0x2A4D JUMP JUMPDEST DUP10 MLOAD PUSH1 0x40 MLOAD SWAP10 DUP11 SWAP4 PUSH32 0x3C7465787420783D223230302220793D223236302220746578742D616E63686F DUP11 DUP7 ADD MSTORE PUSH32 0x723D226D6964646C652220666F6E742D73697A653D223234222066696C6C3D22 PUSH1 0x40 DUP7 ADD MSTORE PUSH2 0x1187 DUP2 MLOAD DUP1 SWAP3 DUP13 PUSH1 0x60 DUP10 ADD SWAP2 ADD PUSH2 0x28E2 JUMP JUMPDEST DUP5 ADD SWAP2 PUSH32 0x2220666F6E742D66616D696C793D22417269616C2C2073616E732D7365726966 SWAP3 DUP4 PUSH1 0x60 DUP3 ADD MSTORE PUSH21 0x11103337B73A16BBB2B4B3B43A1E913137B632111F PUSH1 0x59 SHL PUSH1 0x80 DUP3 ADD MSTORE PUSH2 0x11E3 DUP3 MLOAD DUP1 SWAP4 DUP14 PUSH1 0x95 DUP6 ADD SWAP2 ADD PUSH2 0x28E2 JUMP JUMPDEST ADD PUSH7 0x1E17BA32BC3A1F PUSH1 0xC9 SHL PUSH1 0x95 DUP3 ADD MSTORE PUSH32 0x3C7465787420783D223230302220793D223330302220746578742D616E63686F PUSH1 0x9C DUP3 ADD MSTORE PUSH32 0x723D226D6964646C652220666F6E742D73697A653D223136222066696C6C3D22 PUSH1 0xBC DUP3 ADD MSTORE PUSH2 0x1253 DUP3 MLOAD DUP1 SWAP4 DUP13 PUSH1 0xDC DUP6 ADD SWAP2 ADD PUSH2 0x28E2 JUMP JUMPDEST ADD SWAP1 PUSH1 0xDC DUP3 ADD MSTORE PUSH2 0x111F PUSH1 0xF1 SHL PUSH1 0xFC DUP3 ADD MSTORE PUSH2 0x1278 DUP3 MLOAD DUP1 SWAP4 DUP11 PUSH1 0xFE DUP6 ADD SWAP2 ADD PUSH2 0x28E2 JUMP JUMPDEST ADD PUSH7 0x1E17BA32BC3A1F PUSH1 0xC9 SHL PUSH1 0xFE DUP3 ADD MSTORE SUB PUSH1 0xE5 DUP2 ADD DUP9 MSTORE ADD DUP7 PUSH2 0x2A4D JUMP JUMPDEST PUSH2 0x1362 PUSH1 0x9C PUSH1 0x40 MLOAD DUP4 PUSH2 0x12B3 DUP3 SWAP6 MLOAD DUP1 SWAP3 DUP10 DUP1 DUP7 ADD SWAP2 ADD PUSH2 0x28E2 JUMP JUMPDEST DUP2 ADD PUSH32 0x3C7465787420783D223230302220793D223338302220746578742D616E63686F DUP8 DUP3 ADD MSTORE PUSH32 0x723D226D6964646C652220666F6E742D73697A653D223132222066696C6C3D22 PUSH1 0x40 DUP3 ADD MSTORE PUSH32 0x233636362220666F6E742D66616D696C793D22417269616C2C2073616E732D73 PUSH1 0x60 DUP3 ADD MSTORE PUSH22 0x32B934B3111F2A2920A9A41027232A1E17BA32BC3A1F PUSH1 0x51 SHL PUSH1 0x80 DUP3 ADD MSTORE PUSH6 0x1E17B9BB339F PUSH1 0xD1 SHL PUSH1 0x96 DUP3 ADD MSTORE SUB PUSH1 0x7C DUP2 ADD DUP5 MSTORE ADD DUP3 PUSH2 0x2A4D JUMP JUMPDEST PUSH1 0x40 MLOAD SWAP5 DUP3 PUSH2 0x137A DUP8 SWAP5 MLOAD DUP1 SWAP3 DUP8 DUP1 DUP9 ADD SWAP2 ADD PUSH2 0x28E2 JUMP JUMPDEST DUP4 ADD PUSH2 0xD4C DUP3 MLOAD DUP1 SWAP4 DUP8 DUP1 DUP6 ADD SWAP2 ADD PUSH2 0x28E2 JUMP JUMPDEST PUSH1 0x20 DUP3 ADD MLOAD SWAP2 PUSH2 0x1403 PUSH1 0x2D DUP3 MLOAD SWAP5 PUSH1 0x40 MLOAD SWAP6 DUP7 SWAP2 PUSH10 0x3D913730B6B2911D1011 PUSH1 0xB1 SHL PUSH1 0x20 DUP5 ADD MSTORE PUSH2 0x13C9 DUP2 MLOAD DUP1 SWAP3 PUSH1 0x20 PUSH1 0x2A DUP8 ADD SWAP2 ADD PUSH2 0x28E2 JUMP JUMPDEST DUP3 ADD PUSH1 0x1 PUSH1 0xFD SHL PUSH1 0x2A DUP3 ADD MSTORE PUSH2 0x13E9 DUP3 MLOAD DUP1 SWAP4 PUSH1 0x20 PUSH1 0x2B DUP6 ADD SWAP2 ADD PUSH2 0x28E2 JUMP JUMPDEST ADD PUSH2 0x88B PUSH1 0xF2 SHL PUSH1 0x2B DUP3 ADD MSTORE SUB PUSH1 0xD DUP2 ADD DUP7 MSTORE ADD DUP5 PUSH2 0x2A4D JUMP JUMPDEST PUSH1 0x40 DUP2 ADD MLOAD SWAP1 PUSH2 0x1419 PUSH1 0xFF PUSH1 0x60 DUP4 ADD MLOAD AND PUSH2 0x3002 JUMP JUMPDEST PUSH1 0xA0 DUP3 ADD MLOAD PUSH1 0x40 MLOAD SWAP6 SWAP2 SWAP1 PUSH1 0x1 PUSH1 0x1 PUSH1 0xA0 SHL SUB AND DUP1 PUSH2 0x1437 DUP9 PUSH2 0x2A32 JUMP JUMPDEST PUSH1 0x2A DUP9 MSTORE PUSH1 0x40 CALLDATASIZE PUSH1 0x20 DUP11 ADD CALLDATACOPY DUP8 MLOAD ISZERO PUSH2 0x192E JUMPI PUSH1 0x30 PUSH1 0x20 DUP10 ADD MSTORE8 DUP8 MLOAD PUSH1 0x1 LT ISZERO PUSH2 0x192E JUMPI PUSH1 0x78 PUSH1 0x21 DUP10 ADD MSTORE8 PUSH1 0x29 JUMPDEST PUSH1 0x1 DUP2 GT PUSH2 0x18CF JUMPI POP PUSH2 0x18B0 JUMPI PUSH2 0x18AC PUSH2 0x1845 DUP9 PUSH2 0x180A DUP10 PUSH2 0x1825 PUSH1 0x20 DUP12 DUP12 PUSH2 0x1644 PUSH2 0x1819 DUP14 PUSH2 0x153A PUSH1 0x53 DUP16 PUSH1 0x40 MLOAD SWAP13 DUP14 SWAP2 DUP11 DUP4 ADD SWAP10 PUSH16 0x113232B9B1B934B83A34B7B7111D1011 PUSH1 0x81 SHL DUP12 MSTORE PUSH2 0x14C4 DUP2 MLOAD DUP1 SWAP3 DUP15 PUSH1 0x30 DUP9 ADD SWAP2 ADD PUSH2 0x28E2 JUMP JUMPDEST DUP4 ADD PUSH16 0x103E1029BA34B735902632BB32B61D1 PUSH1 0x85 SHL PUSH1 0x30 DUP3 ADD MSTORE PUSH2 0x14F2 DUP3 MLOAD DUP1 SWAP4 DUP15 PUSH1 0x40 DUP6 ADD SWAP2 ADD PUSH2 0x28E2 JUMP JUMPDEST ADD PUSH17 0x179898103E102A343937BBB710313C9D1 PUSH1 0x7D SHL PUSH1 0x40 DUP3 ADD MSTORE PUSH2 0x1520 DUP3 MLOAD DUP1 SWAP4 DUP14 PUSH1 0x51 DUP6 ADD SWAP2 ADD PUSH2 0x28E2 JUMP JUMPDEST ADD PUSH2 0x88B PUSH1 0xF2 SHL PUSH1 0x51 DUP3 ADD MSTORE SUB PUSH1 0x33 DUP2 ADD DUP14 MSTORE ADD DUP12 PUSH2 0x2A4D JUMP JUMPDEST PUSH2 0x1678 PUSH1 0x2F PUSH1 0x40 MLOAD SWAP12 PUSH2 0x154C DUP14 PUSH2 0x2A32 JUMP JUMPDEST PUSH1 0x40 DUP14 MSTORE PUSH2 0x15A7 PUSH32 0x4142434445464748494A4B4C4D4E4F505152535455565758595A616263646566 SWAP14 DUP15 DUP12 DUP3 ADD MSTORE PUSH32 0x6768696A6B6C6D6E6F707172737475767778797A303132333435363738392B2F SWAP13 DUP14 PUSH1 0x40 DUP4 ADD MSTORE PUSH2 0x2F0A JUMP JUMPDEST PUSH1 0x40 MLOAD PUSH2 0x1614 PUSH1 0x46 DUP3 DUP14 DUP2 ADD SWAP5 PUSH32 0x22696D616765223A2022646174613A696D6167652F7376672B786D6C3B626173 DUP7 MSTORE PUSH4 0x194D8D0B PUSH1 0xE2 SHL PUSH1 0x40 DUP4 ADD MSTORE PUSH2 0x15F9 DUP2 MLOAD PUSH1 0x20 SWAP3 DUP2 SWAP4 PUSH1 0x44 DUP7 ADD SWAP2 ADD PUSH2 0x28E2 JUMP JUMPDEST DUP2 ADD PUSH2 0x88B PUSH1 0xF2 SHL PUSH1 0x44 DUP3 ADD MSTORE SUB PUSH1 0x26 DUP2 ADD DUP5 MSTORE ADD DUP3 PUSH2 0x2A4D JUMP JUMPDEST PUSH2 0x1652 PUSH1 0x40 MLOAD SWAP11 DUP12 SWAP5 PUSH2 0x1644 DUP15 PUSH2 0x1634 DUP2 DUP10 ADD SWAP12 DUP13 DUP2 MLOAD SWAP4 DUP5 SWAP3 ADD PUSH2 0x28E2 JUMP JUMPDEST DUP8 ADD SWAP2 MLOAD DUP16 SWAP4 DUP2 SWAP5 DUP5 ADD SWAP1 PUSH2 0x28E2 JUMP JUMPDEST ADD SWAP2 MLOAD DUP1 SWAP4 DUP14 DUP5 ADD SWAP1 PUSH2 0x28E2 JUMP JUMPDEST ADD PUSH15 0x2261747472696275746573223A205B PUSH1 0x88 SHL DUP11 DUP3 ADD MSTORE SUB PUSH1 0xF DUP2 ADD DUP9 MSTORE ADD DUP7 PUSH2 0x2A4D JUMP JUMPDEST PUSH2 0x17F8 PUSH1 0x22 PUSH2 0x168D PUSH1 0xFF PUSH1 0x60 DUP9 ADD MLOAD AND PUSH2 0x3002 JUMP JUMPDEST SWAP6 PUSH1 0x40 MLOAD SWAP1 PUSH2 0x170C PUSH1 0x80 DUP12 DUP5 ADD SWAP10 PUSH32 0x7B2274726169745F74797065223A20225374696E6B204C6576656C222C202276 DUP12 MSTORE PUSH7 0x30B63AB2911D1 PUSH1 0xCD SHL PUSH1 0x40 DUP7 ADD MSTORE PUSH2 0x16E1 DUP2 MLOAD DUP1 SWAP3 DUP16 PUSH1 0x47 DUP10 ADD SWAP2 ADD PUSH2 0x28E2 JUMP JUMPDEST DUP5 ADD SWAP3 PUSH2 0x1705 PUSH1 0x49 DUP7 PUSH2 0x1F4B PUSH1 0xF2 SHL SWAP7 DUP8 PUSH1 0x47 DUP3 ADD MSTORE SUB PUSH1 0x29 DUP2 ADD DUP9 MSTORE ADD DUP7 PUSH2 0x2A4D JUMP JUMPDEST ADD MLOAD PUSH2 0x3002 JUMP JUMPDEST PUSH2 0x1776 PUSH1 0x47 PUSH1 0x40 MLOAD DUP1 SWAP5 DUP15 DUP3 ADD SWAP5 PUSH32 0x7B2274726169745F74797065223A20225468726F776E204174222C202276616C DUP7 MSTORE PUSH5 0x3AB2911D1 PUSH1 0xDD SHL PUSH1 0x40 DUP5 ADD MSTORE PUSH2 0x1760 DUP2 MLOAD PUSH1 0x20 SWAP3 DUP2 SWAP4 PUSH1 0x45 DUP8 ADD SWAP2 ADD PUSH2 0x28E2 JUMP JUMPDEST DUP3 ADD SWAP1 PUSH1 0x45 DUP3 ADD MSTORE SUB PUSH1 0x27 DUP2 ADD DUP6 MSTORE ADD DUP4 PUSH2 0x2A4D JUMP JUMPDEST PUSH2 0x17DF PUSH1 0x40 MLOAD SWAP2 PUSH2 0x1786 DUP4 PUSH2 0x2A32 JUMP JUMPDEST PUSH1 0x2C DUP4 MSTORE DUP13 DUP4 ADD SWAP4 PUSH32 0x7B2274726169745F74797065223A202243617465676F7279222C202276616C75 DUP6 MSTORE PUSH12 0x65223A20225472617368227D PUSH1 0xA0 SHL PUSH1 0x40 DUP6 ADD MSTORE PUSH1 0x40 MLOAD SWAP11 DUP12 SWAP7 DUP16 PUSH2 0x1634 SWAP1 DUP10 ADD SWAP15 DUP16 SWAP3 MLOAD SWAP3 DUP4 SWAP2 PUSH2 0x28E2 JUMP JUMPDEST ADD PUSH2 0x5D7D PUSH1 0xF0 SHL DUP11 DUP3 ADD MSTORE SUB PUSH1 0x2 DUP2 ADD DUP7 MSTORE ADD DUP5 PUSH2 0x2A4D JUMP JUMPDEST PUSH1 0x40 MLOAD SWAP9 DUP10 SWAP6 MLOAD DUP1 SWAP3 DUP9 DUP9 ADD SWAP1 PUSH2 0x28E2 JUMP JUMPDEST DUP5 ADD SWAP2 MLOAD DUP1 SWAP4 DUP7 DUP5 ADD SWAP1 PUSH2 0x28E2 JUMP JUMPDEST ADD SUB DUP1 DUP6 MSTORE ADD DUP4 PUSH2 0x2A4D JUMP JUMPDEST PUSH1 0x40 MLOAD SWAP3 PUSH2 0x1832 DUP5 PUSH2 0x2A32 JUMP JUMPDEST PUSH1 0x40 DUP5 MSTORE PUSH1 0x20 DUP5 ADD MSTORE PUSH1 0x40 DUP4 ADD MSTORE PUSH2 0x2F0A JUMP JUMPDEST PUSH2 0x1898 PUSH1 0x3D PUSH1 0x40 MLOAD DUP1 SWAP4 PUSH32 0x646174613A6170706C69636174696F6E2F6A736F6E3B6261736536342C000000 PUSH1 0x20 DUP4 ADD MSTORE PUSH2 0x1888 DUP2 MLOAD DUP1 SWAP3 PUSH1 0x20 DUP7 DUP7 ADD SWAP2 ADD PUSH2 0x28E2 JUMP JUMPDEST DUP2 ADD SUB PUSH1 0x1D DUP2 ADD DUP5 MSTORE ADD DUP3 PUSH2 0x2A4D JUMP JUMPDEST PUSH1 0x40 MLOAD SWAP2 DUP3 SWAP2 PUSH1 0x20 DUP4 MSTORE PUSH1 0x20 DUP4 ADD SWAP1 PUSH2 0x2905 JUMP JUMPDEST SUB SWAP1 RETURN JUMPDEST PUSH1 0x44 SWAP1 PUSH1 0x40 MLOAD SWAP1 PUSH4 0xE22E27EB PUSH1 0xE0 SHL DUP3 MSTORE PUSH1 0x4 DUP3 ADD MSTORE PUSH1 0x14 PUSH1 0x24 DUP3 ADD MSTORE REVERT JUMPDEST SWAP1 PUSH1 0x10 PUSH1 0xF DUP3 AND LT ISZERO PUSH2 0x192E JUMPI DUP9 MLOAD DUP3 LT ISZERO PUSH2 0x192E JUMPI PUSH16 0x181899199A1A9B1B9C1CB0B131B232B3 PUSH1 0x81 SHL PUSH1 0xF DUP3 AND BYTE DUP10 DUP4 ADD PUSH1 0x20 ADD MSTORE8 PUSH1 0x4 SHR SWAP1 DUP1 ISZERO PUSH2 0x1918 JUMPI PUSH1 0x0 NOT ADD PUSH2 0x1465 JUMP JUMPDEST PUSH4 0x4E487B71 PUSH1 0xE0 SHL PUSH1 0x0 MSTORE PUSH1 0x11 PUSH1 0x4 MSTORE PUSH1 0x24 PUSH1 0x0 REVERT JUMPDEST PUSH4 0x4E487B71 PUSH1 0xE0 SHL PUSH1 0x0 MSTORE PUSH1 0x32 PUSH1 0x4 MSTORE PUSH1 0x24 PUSH1 0x0 REVERT JUMPDEST PUSH4 0x4E487B71 PUSH1 0xE0 SHL PUSH1 0x0 MSTORE PUSH1 0x41 PUSH1 0x4 MSTORE PUSH1 0x24 PUSH1 0x0 REVERT JUMPDEST PUSH2 0x1297 PUSH2 0x105 PUSH1 0x20 SWAP5 PUSH2 0x138E SWAP7 PUSH2 0x1121 PUSH1 0x40 MLOAD PUSH2 0x1976 DUP2 PUSH2 0x29E0 JUMP JUMPDEST PUSH1 0x0 DUP2 MSTORE PUSH2 0xD6B JUMP JUMPDEST PUSH1 0x20 DUP5 ADD MLOAD PUSH2 0x39B JUMP JUMPDEST POP DUP4 MLOAD PUSH1 0x40 MLOAD PUSH2 0x19A9 PUSH1 0x20 DUP3 DUP2 PUSH2 0x2B5 DUP2 DUP4 ADD SWAP7 DUP8 DUP2 MLOAD SWAP4 DUP5 SWAP3 ADD PUSH2 0x28E2 JUMP JUMPDEST MLOAD SWAP1 KECCAK256 PUSH1 0x40 MLOAD PUSH1 0x20 DUP2 ADD SWAP1 PUSH12 0x2334B730B6102BB2B0B837B7 PUSH1 0xA1 SHL DUP3 MSTORE PUSH1 0xC DUP2 MSTORE PUSH2 0x19D3 DUP2 PUSH2 0x29FB JUMP JUMPDEST MLOAD SWAP1 KECCAK256 EQ PUSH2 0x378 JUMP JUMPDEST PUSH1 0x40 MLOAD PUSH2 0x19E8 DUP2 PUSH2 0x29FB JUMP JUMPDEST PUSH1 0x7 DUP2 MSTORE PUSH7 0x2334414445383 PUSH1 0xCC SHL PUSH1 0x20 DUP3 ADD MSTORE PUSH2 0x323 JUMP JUMPDEST POP DUP2 MLOAD PUSH1 0x40 MLOAD PUSH2 0x1A21 PUSH1 0x20 DUP3 DUP2 PUSH2 0x2B5 DUP2 DUP4 ADD SWAP7 DUP8 DUP2 MLOAD SWAP4 DUP5 SWAP3 ADD PUSH2 0x28E2 JUMP JUMPDEST MLOAD SWAP1 KECCAK256 PUSH1 0x40 MLOAD PUSH1 0x20 DUP2 ADD SWAP1 PUSH12 0x5368696E696E6720506F6F7 PUSH1 0xA4 SHL DUP3 MSTORE PUSH1 0xC DUP2 MSTORE PUSH2 0x1A4B DUP2 PUSH2 0x29FB JUMP JUMPDEST MLOAD SWAP1 KECCAK256 EQ PUSH2 0x2FC JUMP JUMPDEST PUSH1 0x4 LT ISZERO PUSH2 0x1A81 JUMPI PUSH1 0x40 MLOAD PUSH2 0x1A68 DUP2 PUSH2 0x29FB JUMP JUMPDEST PUSH1 0x7 DUP2 MSTORE PUSH7 0x2346463838303 PUSH1 0xCC SHL PUSH1 0x20 DUP3 ADD MSTORE PUSH2 0x296 JUMP JUMPDEST PUSH1 0x40 MLOAD PUSH2 0x1A8D DUP2 PUSH2 0x29FB JUMP JUMPDEST PUSH1 0x7 DUP2 MSTORE PUSH7 0x2338384646303 PUSH1 0xCC SHL PUSH1 0x20 DUP3 ADD MSTORE PUSH2 0x296 JUMP JUMPDEST CALLVALUE PUSH2 0x17E JUMPI PUSH1 0x80 CALLDATASIZE PUSH1 0x3 NOT ADD SLT PUSH2 0x17E JUMPI PUSH2 0x1ABF PUSH2 0x292A JUMP JUMPDEST PUSH2 0x1AC7 PUSH2 0x2940 JUMP JUMPDEST SWAP1 PUSH1 0x44 CALLDATALOAD PUSH1 0x64 CALLDATALOAD SWAP3 PUSH1 0x1 PUSH1 0x1 PUSH1 0x40 SHL SUB DUP5 GT PUSH2 0x17E JUMPI CALLDATASIZE PUSH1 0x23 DUP6 ADD SLT ISZERO PUSH2 0x17E JUMPI PUSH2 0x1AFF PUSH2 0x1B11 SWAP5 CALLDATASIZE SWAP1 PUSH1 0x24 DUP2 PUSH1 0x4 ADD CALLDATALOAD SWAP2 ADD PUSH2 0x2B2F JUMP JUMPDEST SWAP3 PUSH2 0x1B0B DUP4 DUP4 DUP4 PUSH2 0x2BB0 JUMP JUMPDEST CALLER PUSH2 0x2D8A JUMP JUMPDEST STOP JUMPDEST CALLVALUE PUSH2 0x17E JUMPI PUSH1 0xA0 CALLDATASIZE PUSH1 0x3 NOT ADD SLT PUSH2 0x17E JUMPI PUSH2 0x1B2C PUSH2 0x292A JUMP JUMPDEST PUSH1 0x24 CALLDATALOAD PUSH1 0x1 PUSH1 0x1 PUSH1 0x40 SHL SUB DUP2 GT PUSH2 0x17E JUMPI PUSH2 0x1B4B SWAP1 CALLDATASIZE SWAP1 PUSH1 0x4 ADD PUSH2 0x2B66 JUMP JUMPDEST PUSH1 0x44 CALLDATALOAD PUSH1 0x1 PUSH1 0x1 PUSH1 0x40 SHL SUB DUP2 GT PUSH2 0x17E JUMPI PUSH2 0x1B6A SWAP1 CALLDATASIZE SWAP1 PUSH1 0x4 ADD PUSH2 0x2B66 JUMP JUMPDEST SWAP1 PUSH1 0x64 CALLDATALOAD PUSH1 0x1 PUSH1 0x1 PUSH1 0x40 SHL SUB DUP2 GT PUSH2 0x17E JUMPI PUSH2 0x1B8A SWAP1 CALLDATASIZE SWAP1 PUSH1 0x4 ADD PUSH2 0x2B66 JUMP JUMPDEST SWAP2 PUSH1 0x84 CALLDATALOAD SWAP1 PUSH1 0xFF DUP3 AND DUP3 SUB PUSH2 0x17E JUMPI PUSH1 0x1 PUSH1 0x1 PUSH1 0xA0 SHL SUB DUP6 AND ISZERO PUSH2 0x22C1 JUMPI PUSH1 0xA PUSH1 0xFF DUP4 AND GT PUSH2 0x2270 JUMPI DUP3 MLOAD ISZERO PUSH2 0x2232 JUMPI PUSH1 0x8 SLOAD SWAP4 PUSH1 0x0 NOT DUP6 EQ PUSH2 0x1918 JUMPI PUSH1 0x1 DUP6 ADD PUSH1 0x8 SSTORE PUSH1 0x40 MLOAD SWAP2 PUSH2 0x1BDB DUP4 PUSH2 0x29C5 JUMP JUMPDEST DUP5 DUP4 MSTORE PUSH1 0x20 DUP4 ADD MSTORE PUSH1 0x40 DUP3 ADD MSTORE PUSH1 0xFF DUP3 AND PUSH1 0x60 DUP3 ADD MSTORE TIMESTAMP PUSH1 0x80 DUP3 ADD MSTORE CALLER PUSH1 0xA0 DUP3 ADD MSTORE DUP4 PUSH1 0x0 MSTORE PUSH1 0x9 PUSH1 0x20 MSTORE PUSH1 0x40 PUSH1 0x0 KECCAK256 DUP2 MLOAD DUP1 MLOAD SWAP1 PUSH1 0x1 PUSH1 0x1 PUSH1 0x40 SHL SUB DUP3 GT PUSH2 0x1944 JUMPI DUP2 SWAP1 PUSH2 0x1C2A DUP5 SLOAD PUSH2 0x298B JUMP JUMPDEST PUSH1 0x1F DUP2 GT PUSH2 0x21E2 JUMPI JUMPDEST POP PUSH1 0x20 SWAP1 PUSH1 0x1F DUP4 GT PUSH1 0x1 EQ PUSH2 0x217C JUMPI PUSH1 0x0 SWAP3 PUSH2 0x2171 JUMPI JUMPDEST POP POP DUP2 PUSH1 0x1 SHL SWAP2 PUSH1 0x0 NOT SWAP1 PUSH1 0x3 SHL SHR NOT AND OR DUP2 SSTORE JUMPDEST PUSH1 0x20 DUP3 ADD MLOAD DUP1 MLOAD SWAP1 PUSH1 0x1 PUSH1 0x1 PUSH1 0x40 SHL SUB DUP3 GT PUSH2 0x1944 JUMPI DUP2 SWAP1 PUSH2 0x1C84 PUSH1 0x1 DUP6 ADD SLOAD PUSH2 0x298B JUMP JUMPDEST PUSH1 0x1F DUP2 GT PUSH2 0x211E JUMPI JUMPDEST POP PUSH1 0x20 SWAP1 PUSH1 0x1F DUP4 GT PUSH1 0x1 EQ PUSH2 0x20B1 JUMPI PUSH1 0x0 SWAP3 PUSH2 0x20A6 JUMPI JUMPDEST POP POP DUP2 PUSH1 0x1 SHL SWAP2 PUSH1 0x0 NOT SWAP1 PUSH1 0x3 SHL SHR NOT AND OR PUSH1 0x1 DUP3 ADD SSTORE JUMPDEST PUSH1 0x40 DUP3 ADD MLOAD DUP1 MLOAD SWAP1 PUSH1 0x1 PUSH1 0x1 PUSH1 0x40 SHL SUB DUP3 GT PUSH2 0x1944 JUMPI PUSH2 0x1CDF PUSH1 0x2 DUP5 ADD SLOAD PUSH2 0x298B JUMP JUMPDEST PUSH1 0x1F DUP2 GT PUSH2 0x205F JUMPI JUMPDEST POP PUSH1 0x20 SWAP1 PUSH1 0x1F DUP4 GT PUSH1 0x1 EQ PUSH2 0x1FEC JUMPI PUSH1 0x5 SWAP4 SWAP3 SWAP2 PUSH1 0x0 SWAP2 DUP4 PUSH2 0x1FE1 JUMPI JUMPDEST POP POP DUP2 PUSH1 0x1 SHL SWAP2 PUSH1 0x0 NOT SWAP1 PUSH1 0x3 SHL SHR NOT AND OR PUSH1 0x2 DUP3 ADD SSTORE JUMPDEST PUSH1 0x3 DUP2 ADD PUSH1 0xFF PUSH1 0x60 DUP6 ADD MLOAD AND PUSH1 0xFF NOT DUP3 SLOAD AND OR SWAP1 SSTORE PUSH1 0x80 DUP4 ADD MLOAD PUSH1 0x4 DUP3 ADD SSTORE ADD SWAP1 PUSH1 0xA0 PUSH1 0x1 DUP1 DUP3 SHL SUB SWAP2 ADD MLOAD AND SWAP1 PUSH12 0xFFFFFFFFFFFFFFFFFFFFFFFF PUSH1 0xA0 SHL SWAP2 DUP3 DUP3 SLOAD AND OR SWAP1 SSTORE PUSH1 0x40 MLOAD SWAP1 PUSH2 0x1D70 DUP3 PUSH2 0x29E0 JUMP JUMPDEST PUSH1 0x0 DUP1 DUP4 MSTORE DUP6 DUP2 MSTORE PUSH1 0x2 PUSH1 0x20 MSTORE PUSH1 0x40 SWAP1 KECCAK256 SLOAD PUSH1 0x1 PUSH1 0x1 PUSH1 0xA0 SHL SUB AND DUP1 ISZERO ISZERO SWAP2 DUP7 SWAP2 SWAP1 DUP4 PUSH2 0x1FAA JUMPI JUMPDEST PUSH1 0x1 PUSH1 0x1 PUSH1 0xA0 SHL SUB DUP10 AND PUSH1 0x0 DUP2 DUP2 MSTORE PUSH1 0x3 PUSH1 0x20 SWAP1 DUP2 MSTORE PUSH1 0x40 DUP1 DUP4 KECCAK256 DUP1 SLOAD PUSH1 0x1 ADD SWAP1 SSTORE DUP7 DUP4 MSTORE PUSH1 0x2 SWAP1 SWAP2 MSTORE DUP2 KECCAK256 DUP1 SLOAD SWAP1 SWAP4 AND DUP3 OR SWAP1 SWAP3 SSTORE SWAP2 SWAP1 PUSH32 0xDDF252AD1BE2C89B69C2B068FC378DAA952BA7F163C4A11628F55A4DF523B3EF SWAP1 DUP1 LOG4 PUSH2 0x1F91 JUMPI DUP5 EXTCODESIZE PUSH2 0x1E5B JUMPI JUMPDEST POP DUP3 PUSH32 0x865D562D0B6B74E1077F5025AE1B9834BA89AF77C7F1444CBDB18CBEF8C3527 PUSH1 0x20 SWAP6 PUSH1 0xFF PUSH2 0x1E3C PUSH1 0x40 MLOAD SWAP7 PUSH1 0x40 DUP9 MSTORE PUSH1 0x40 DUP9 ADD SWAP1 PUSH2 0x2905 JUMP JUMPDEST SWAP5 AND DUP6 DUP9 ADD MSTORE PUSH1 0x1 PUSH1 0x1 PUSH1 0xA0 SHL SUB AND SWAP4 CALLER SWAP4 DUP2 SWAP1 SUB SWAP1 LOG4 PUSH1 0x40 MLOAD SWAP1 DUP2 MSTORE RETURN JUMPDEST PUSH1 0x40 MLOAD PUSH1 0x20 DUP2 DUP1 PUSH2 0x1E95 PUSH4 0xA85BD01 PUSH1 0xE1 SHL SWAP6 DUP7 DUP4 MSTORE CALLER PUSH1 0x4 DUP5 ADD MSTORE PUSH1 0x0 PUSH1 0x24 DUP5 ADD MSTORE DUP10 PUSH1 0x44 DUP5 ADD MSTORE PUSH1 0x80 PUSH1 0x64 DUP5 ADD MSTORE PUSH1 0x84 DUP4 ADD SWAP1 PUSH2 0x2905 JUMP JUMPDEST SUB DUP2 PUSH1 0x0 PUSH1 0x1 PUSH1 0x1 PUSH1 0xA0 SHL SUB DUP12 AND GAS CALL PUSH1 0x0 SWAP2 DUP2 PUSH2 0x1F4C JUMPI JUMPDEST POP PUSH2 0x1F16 JUMPI DUP6 RETURNDATASIZE ISZERO PUSH2 0x1F0E JUMPI RETURNDATASIZE SWAP1 PUSH2 0x1EC5 DUP3 PUSH2 0x2B14 JUMP JUMPDEST SWAP2 PUSH2 0x1ED3 PUSH1 0x40 MLOAD SWAP4 DUP5 PUSH2 0x2A4D JUMP JUMPDEST DUP3 MSTORE RETURNDATASIZE PUSH1 0x0 PUSH1 0x20 DUP5 ADD RETURNDATACOPY JUMPDEST DUP2 MLOAD SWAP2 DUP3 PUSH2 0x1F07 JUMPI PUSH1 0x40 MLOAD PUSH4 0x32505749 PUSH1 0xE1 SHL DUP2 MSTORE PUSH1 0x1 PUSH1 0x1 PUSH1 0xA0 SHL SUB DUP4 AND PUSH1 0x4 DUP3 ADD MSTORE PUSH1 0x24 SWAP1 REVERT JUMPDEST PUSH1 0x20 SWAP2 POP ADD REVERT JUMPDEST PUSH1 0x60 SWAP1 PUSH2 0x1EDE JUMP JUMPDEST PUSH1 0x1 PUSH1 0x1 PUSH1 0xE0 SHL SUB NOT AND SUB PUSH2 0x1F2B JUMPI DUP3 PUSH2 0x1DFF JUMP JUMPDEST PUSH1 0x40 MLOAD PUSH4 0x32505749 PUSH1 0xE1 SHL DUP2 MSTORE PUSH1 0x1 PUSH1 0x1 PUSH1 0xA0 SHL SUB DUP6 AND PUSH1 0x4 DUP3 ADD MSTORE PUSH1 0x24 SWAP1 REVERT JUMPDEST SWAP1 SWAP2 POP PUSH1 0x20 DUP2 RETURNDATASIZE PUSH1 0x20 GT PUSH2 0x1F89 JUMPI JUMPDEST DUP2 PUSH2 0x1F68 PUSH1 0x20 SWAP4 DUP4 PUSH2 0x2A4D JUMP JUMPDEST DUP2 ADD SUB SLT PUSH2 0x17E JUMPI MLOAD PUSH1 0x1 PUSH1 0x1 PUSH1 0xE0 SHL SUB NOT DUP2 AND DUP2 SUB PUSH2 0x17E JUMPI SWAP1 DUP8 PUSH2 0x1EAE JUMP JUMPDEST RETURNDATASIZE SWAP2 POP PUSH2 0x1F5B JUMP JUMPDEST PUSH1 0x40 MLOAD PUSH4 0x39E35637 PUSH1 0xE1 SHL DUP2 MSTORE PUSH1 0x0 PUSH1 0x4 DUP3 ADD MSTORE PUSH1 0x24 SWAP1 REVERT JUMPDEST PUSH1 0x0 DUP4 DUP2 MSTORE PUSH1 0x4 PUSH1 0x20 MSTORE PUSH1 0x40 SWAP1 KECCAK256 DUP1 SLOAD PUSH1 0x1 PUSH1 0x1 PUSH1 0xA0 SHL SUB NOT AND SWAP1 SSTORE DUP2 PUSH1 0x0 MSTORE PUSH1 0x3 PUSH1 0x20 MSTORE PUSH1 0x40 PUSH1 0x0 KECCAK256 PUSH1 0x0 NOT DUP2 SLOAD ADD SWAP1 SSTORE PUSH2 0x1D98 JUMP JUMPDEST ADD MLOAD SWAP1 POP DUP10 DUP1 PUSH2 0x1D05 JUMP JUMPDEST SWAP1 PUSH1 0x2 DUP5 ADD PUSH1 0x0 MSTORE PUSH1 0x20 PUSH1 0x0 KECCAK256 SWAP2 PUSH1 0x0 JUMPDEST PUSH1 0x1F NOT DUP6 AND DUP2 LT PUSH2 0x2047 JUMPI POP SWAP2 DUP4 SWAP2 PUSH1 0x1 SWAP4 PUSH1 0x5 SWAP7 SWAP6 PUSH1 0x1F NOT DUP2 AND LT PUSH2 0x202E JUMPI JUMPDEST POP POP POP DUP2 SHL ADD PUSH1 0x2 DUP3 ADD SSTORE PUSH2 0x1D1D JUMP JUMPDEST ADD MLOAD PUSH1 0x0 NOT PUSH1 0xF8 DUP5 PUSH1 0x3 SHL AND SHR NOT AND SWAP1 SSTORE DUP10 DUP1 DUP1 PUSH2 0x201E JUMP JUMPDEST SWAP2 SWAP3 PUSH1 0x20 PUSH1 0x1 DUP2 SWAP3 DUP7 DUP6 ADD MLOAD DUP2 SSTORE ADD SWAP5 ADD SWAP3 ADD PUSH2 0x1FFD JUMP JUMPDEST PUSH1 0x2 DUP5 ADD PUSH1 0x0 MSTORE PUSH1 0x20 PUSH1 0x0 KECCAK256 PUSH1 0x1F DUP5 ADD PUSH1 0x5 SHR DUP2 ADD PUSH1 0x20 DUP6 LT PUSH2 0x209F JUMPI JUMPDEST PUSH1 0x1F DUP4 ADD PUSH1 0x5 SHR DUP3 ADD DUP2 LT PUSH2 0x2093 JUMPI POP POP PUSH2 0x1CE8 JUMP JUMPDEST PUSH1 0x0 DUP2 SSTORE PUSH1 0x1 ADD PUSH2 0x207D JUMP JUMPDEST POP DUP1 PUSH2 0x207D JUMP JUMPDEST ADD MLOAD SWAP1 POP DUP9 DUP1 PUSH2 0x1CA4 JUMP JUMPDEST PUSH1 0x1 DUP6 ADD PUSH1 0x0 SWAP1 DUP2 MSTORE PUSH1 0x20 DUP2 KECCAK256 SWAP4 POP PUSH1 0x1F NOT DUP6 AND SWAP1 JUMPDEST DUP2 DUP2 LT PUSH2 0x2106 JUMPI POP SWAP1 DUP5 PUSH1 0x1 SWAP6 SWAP5 SWAP4 SWAP3 LT PUSH2 0x20ED JUMPI JUMPDEST POP POP POP DUP2 SHL ADD PUSH1 0x1 DUP3 ADD SSTORE PUSH2 0x1CBC JUMP JUMPDEST ADD MLOAD PUSH1 0x0 NOT PUSH1 0xF8 DUP5 PUSH1 0x3 SHL AND SHR NOT AND SWAP1 SSTORE DUP9 DUP1 DUP1 PUSH2 0x20DD JUMP JUMPDEST SWAP3 SWAP4 PUSH1 0x20 PUSH1 0x1 DUP2 SWAP3 DUP8 DUP7 ADD MLOAD DUP2 SSTORE ADD SWAP6 ADD SWAP4 ADD PUSH2 0x20C7 JUMP JUMPDEST SWAP1 SWAP2 POP PUSH1 0x1 DUP5 ADD PUSH1 0x0 MSTORE PUSH1 0x20 PUSH1 0x0 KECCAK256 PUSH1 0x1F DUP5 ADD PUSH1 0x5 SHR DUP2 ADD PUSH1 0x20 DUP6 LT PUSH2 0x216A JUMPI JUMPDEST SWAP1 DUP5 SWAP4 SWAP3 SWAP2 JUMPDEST PUSH1 0x1F DUP4 ADD PUSH1 0x5 SHR DUP3 ADD DUP2 LT PUSH2 0x215B JUMPI POP POP PUSH2 0x1C8D JUMP JUMPDEST PUSH1 0x0 DUP2 SSTORE DUP6 SWAP5 POP PUSH1 0x1 ADD PUSH2 0x2145 JUMP JUMPDEST POP DUP1 PUSH2 0x213F JUMP JUMPDEST ADD MLOAD SWAP1 POP DUP9 DUP1 PUSH2 0x1C4A JUMP JUMPDEST PUSH1 0x0 DUP6 DUP2 MSTORE PUSH1 0x20 DUP2 KECCAK256 SWAP4 POP PUSH1 0x1F NOT DUP6 AND SWAP1 JUMPDEST DUP2 DUP2 LT PUSH2 0x21CA JUMPI POP SWAP1 DUP5 PUSH1 0x1 SWAP6 SWAP5 SWAP4 SWAP3 LT PUSH2 0x21B1 JUMPI JUMPDEST POP POP POP DUP2 SHL ADD DUP2 SSTORE PUSH2 0x1C5F JUMP JUMPDEST ADD MLOAD PUSH1 0x0 NOT PUSH1 0xF8 DUP5 PUSH1 0x3 SHL AND SHR NOT AND SWAP1 SSTORE DUP9 DUP1 DUP1 PUSH2 0x21A4 JUMP JUMPDEST SWAP3 SWAP4 PUSH1 0x20 PUSH1 0x1 DUP2 SWAP3 DUP8 DUP7 ADD MLOAD DUP2 SSTORE ADD SWAP6 ADD SWAP4 ADD PUSH2 0x218E JUMP JUMPDEST SWAP1 SWAP2 POP DUP4 PUSH1 0x0 MSTORE PUSH1 0x20 PUSH1 0x0 KECCAK256 PUSH1 0x1F DUP5 ADD PUSH1 0x5 SHR DUP2 ADD PUSH1 0x20 DUP6 LT PUSH2 0x222B JUMPI JUMPDEST SWAP1 DUP5 SWAP4 SWAP3 SWAP2 JUMPDEST PUSH1 0x1F DUP4 ADD PUSH1 0x5 SHR DUP3 ADD DUP2 LT PUSH2 0x221C JUMPI POP POP PUSH2 0x1C33 JUMP JUMPDEST PUSH1 0x0 DUP2 SSTORE DUP6 SWAP5 POP PUSH1 0x1 ADD PUSH2 0x2206 JUMP JUMPDEST POP DUP1 PUSH2 0x2200 JUMP JUMPDEST PUSH1 0x40 MLOAD PUSH3 0x461BCD PUSH1 0xE5 SHL DUP2 MSTORE PUSH1 0x20 PUSH1 0x4 DUP3 ADD MSTORE PUSH1 0x16 PUSH1 0x24 DUP3 ADD MSTORE PUSH22 0x5472617368206D75737420686176652061206E616D65 PUSH1 0x50 SHL PUSH1 0x44 DUP3 ADD MSTORE PUSH1 0x64 SWAP1 REVERT JUMPDEST PUSH1 0x40 MLOAD PUSH3 0x461BCD PUSH1 0xE5 SHL DUP2 MSTORE PUSH1 0x20 PUSH1 0x4 DUP3 ADD MSTORE PUSH1 0x23 PUSH1 0x24 DUP3 ADD MSTORE PUSH32 0x5374696E6B206C6576656C20746F6F2068696768206576656E20666F72207472 PUSH1 0x44 DUP3 ADD MSTORE PUSH3 0xC2E6D PUSH1 0xEB SHL PUSH1 0x64 DUP3 ADD MSTORE PUSH1 0x84 SWAP1 REVERT JUMPDEST PUSH1 0x64 PUSH1 0x40 MLOAD PUSH3 0x461BCD PUSH1 0xE5 SHL DUP2 MSTORE PUSH1 0x20 PUSH1 0x4 DUP3 ADD MSTORE PUSH1 0x20 PUSH1 0x24 DUP3 ADD MSTORE PUSH32 0x43616E6E6F74207468726F7720747261736820696E746F2074686520766F6964 PUSH1 0x44 DUP3 ADD MSTORE REVERT JUMPDEST CALLVALUE PUSH2 0x17E JUMPI PUSH1 0x40 CALLDATASIZE PUSH1 0x3 NOT ADD SLT PUSH2 0x17E JUMPI PUSH2 0x231E PUSH2 0x292A JUMP JUMPDEST PUSH1 0x24 CALLDATALOAD SWAP1 DUP2 ISZERO ISZERO DUP1 SWAP3 SUB PUSH2 0x17E JUMPI PUSH1 0x1 PUSH1 0x1 PUSH1 0xA0 SHL SUB AND SWAP1 DUP2 ISZERO PUSH2 0x2391 JUMPI CALLER PUSH1 0x0 MSTORE PUSH1 0x5 PUSH1 0x20 MSTORE PUSH1 0x40 PUSH1 0x0 KECCAK256 DUP3 PUSH1 0x0 MSTORE PUSH1 0x20 MSTORE PUSH1 0x40 PUSH1 0x0 KECCAK256 PUSH1 0xFF NOT DUP2 SLOAD AND PUSH1 0xFF DUP4 AND OR SWAP1 SSTORE PUSH1 0x40 MLOAD SWAP1 DUP2 MSTORE PUSH32 0x17307EAB39AB6107E8899845AD3D59BD9653F200F220920489CA2B5937696C31 PUSH1 0x20 CALLER SWAP3 LOG3 STOP JUMPDEST PUSH1 0x40 MLOAD PUSH4 0xB611743 PUSH1 0xE3 SHL DUP2 MSTORE PUSH1 0x4 DUP2 ADD DUP4 SWAP1 MSTORE PUSH1 0x24 SWAP1 REVERT JUMPDEST CALLVALUE PUSH2 0x17E JUMPI PUSH1 0x0 CALLDATASIZE PUSH1 0x3 NOT ADD SLT PUSH2 0x17E JUMPI PUSH1 0x40 MLOAD PUSH1 0x0 PUSH1 0x1 DUP1 SLOAD SWAP1 PUSH2 0x23CE DUP3 PUSH2 0x298B JUMP JUMPDEST DUP1 DUP6 MSTORE SWAP2 DUP2 DUP2 AND SWAP1 DUP2 ISZERO PUSH2 0x244E JUMPI POP PUSH1 0x1 EQ PUSH2 0x23F5 JUMPI JUMPDEST PUSH2 0x18AC DUP5 PUSH2 0x1898 DUP2 DUP7 SUB DUP3 PUSH2 0x2A4D JUMP JUMPDEST PUSH1 0x0 DUP2 DUP2 MSTORE SWAP3 POP PUSH32 0xB10E2D527612073B26EECDFD717E6A320CF44B4AFAC2B0732D9FCBE2B7FA0CF6 JUMPDEST DUP3 DUP5 LT PUSH2 0x2436 JUMPI POP POP POP DUP2 ADD PUSH1 0x20 ADD PUSH2 0x1898 DUP3 PUSH2 0x23E5 JUMP JUMPDEST DUP1 SLOAD PUSH1 0x20 DUP6 DUP8 ADD DUP2 ADD SWAP2 SWAP1 SWAP2 MSTORE SWAP1 SWAP4 ADD SWAP3 DUP2 ADD PUSH2 0x241E JUMP JUMPDEST PUSH1 0xFF NOT AND PUSH1 0x20 DUP1 DUP8 ADD SWAP2 SWAP1 SWAP2 MSTORE SWAP3 ISZERO ISZERO PUSH1 0x5 SHL DUP6 ADD SWAP1 SWAP3 ADD SWAP3 POP PUSH2 0x1898 SWAP2 POP DUP4 SWAP1 POP PUSH2 0x23E5 JUMP JUMPDEST CALLVALUE PUSH2 0x17E JUMPI PUSH1 0x0 CALLDATASIZE PUSH1 0x3 NOT ADD SLT PUSH2 0x17E JUMPI PUSH1 0x7 SLOAD PUSH1 0x40 MLOAD PUSH1 0x1 PUSH1 0x1 PUSH1 0xA0 SHL SUB SWAP1 SWAP2 AND DUP2 MSTORE PUSH1 0x20 SWAP1 RETURN JUMPDEST CALLVALUE PUSH2 0x17E JUMPI PUSH1 0x20 CALLDATASIZE PUSH1 0x3 NOT ADD SLT PUSH2 0x17E JUMPI PUSH1 0x4 CALLDATALOAD PUSH1 0x0 MSTORE PUSH1 0x9 PUSH1 0x20 MSTORE PUSH2 0x251C PUSH1 0x40 PUSH1 0x0 KECCAK256 PUSH2 0x24CB DUP2 PUSH2 0x2A6E JUMP JUMPDEST SWAP1 PUSH2 0x24D8 PUSH1 0x1 DUP3 ADD PUSH2 0x2A6E JUMP JUMPDEST PUSH2 0x24E4 PUSH1 0x2 DUP4 ADD PUSH2 0x2A6E JUMP JUMPDEST SWAP2 PUSH2 0x2538 PUSH1 0xFF PUSH1 0x3 DUP4 ADD SLOAD AND SWAP4 PUSH2 0x252A PUSH1 0x4 DUP5 ADD SLOAD SWAP4 PUSH1 0x5 PUSH1 0x1 DUP1 PUSH1 0xA0 SHL SUB SWAP2 ADD SLOAD AND SWAP5 PUSH1 0x40 MLOAD SWAP9 DUP10 SWAP9 PUSH1 0xC0 DUP11 MSTORE PUSH1 0xC0 DUP11 ADD SWAP1 PUSH2 0x2905 JUMP JUMPDEST SWAP1 DUP9 DUP3 SUB PUSH1 0x20 DUP11 ADD MSTORE PUSH2 0x2905 JUMP JUMPDEST SWAP1 DUP7 DUP3 SUB PUSH1 0x40 DUP9 ADD MSTORE PUSH2 0x2905 JUMP JUMPDEST SWAP3 PUSH1 0x60 DUP6 ADD MSTORE PUSH1 0x80 DUP5 ADD MSTORE PUSH1 0xA0 DUP4 ADD MSTORE SUB SWAP1 RETURN JUMPDEST CALLVALUE PUSH2 0x17E JUMPI PUSH1 0x0 CALLDATASIZE PUSH1 0x3 NOT ADD SLT PUSH2 0x17E JUMPI PUSH2 0x2565 PUSH2 0x2B84 JUMP JUMPDEST PUSH1 0x7 DUP1 SLOAD PUSH1 0x1 PUSH1 0x1 PUSH1 0xA0 SHL SUB NOT DUP2 AND SWAP1 SWAP2 SSTORE PUSH1 0x0 SWAP1 PUSH1 0x1 PUSH1 0x1 PUSH1 0xA0 SHL SUB AND PUSH32 0x8BE0079C531659141344CD1FD0A4F28419497F9722A3DAAFE3B4186F6B6457E0 DUP3 DUP1 LOG3 STOP JUMPDEST CALLVALUE PUSH2 0x17E JUMPI PUSH1 0x20 CALLDATASIZE PUSH1 0x3 NOT ADD SLT PUSH2 0x17E JUMPI PUSH1 0x1 PUSH1 0x1 PUSH1 0xA0 SHL SUB PUSH2 0x25CA PUSH2 0x292A JUMP JUMPDEST AND DUP1 ISZERO PUSH2 0x25E9 JUMPI PUSH1 0x0 MSTORE PUSH1 0x3 PUSH1 0x20 MSTORE PUSH1 0x20 PUSH1 0x40 PUSH1 0x0 KECCAK256 SLOAD PUSH1 0x40 MLOAD SWAP1 DUP2 MSTORE RETURN JUMPDEST PUSH1 0x40 MLOAD PUSH4 0x22718AD9 PUSH1 0xE2 SHL DUP2 MSTORE PUSH1 0x0 PUSH1 0x4 DUP3 ADD MSTORE PUSH1 0x24 SWAP1 REVERT JUMPDEST CALLVALUE PUSH2 0x17E JUMPI PUSH1 0x20 CALLDATASIZE PUSH1 0x3 NOT ADD SLT PUSH2 0x17E JUMPI PUSH1 0x20 PUSH2 0x2620 PUSH1 0x4 CALLDATALOAD PUSH2 0x2D4F JUMP JUMPDEST PUSH1 0x40 MLOAD PUSH1 0x1 PUSH1 0x1 PUSH1 0xA0 SHL SUB SWAP1 SWAP2 AND DUP2 MSTORE RETURN JUMPDEST CALLVALUE PUSH2 0x17E JUMPI PUSH2 0x1B11 PUSH2 0x2643 CALLDATASIZE PUSH2 0x2956 JUMP JUMPDEST SWAP1 PUSH1 0x40 MLOAD SWAP3 PUSH2 0x2651 DUP5 PUSH2 0x29E0 JUMP JUMPDEST PUSH1 0x0 DUP5 MSTORE PUSH2 0x1B0B DUP4 DUP4 DUP4 PUSH2 0x2BB0 JUMP JUMPDEST CALLVALUE PUSH2 0x17E JUMPI PUSH2 0x1B11 PUSH2 0x2671 CALLDATASIZE PUSH2 0x2956 JUMP JUMPDEST SWAP2 PUSH2 0x2BB0 JUMP JUMPDEST CALLVALUE PUSH2 0x17E JUMPI PUSH1 0x0 CALLDATASIZE PUSH1 0x3 NOT ADD SLT PUSH2 0x17E JUMPI PUSH1 0x20 PUSH1 0x8 SLOAD PUSH1 0x40 MLOAD SWAP1 DUP2 MSTORE RETURN JUMPDEST CALLVALUE PUSH2 0x17E JUMPI PUSH1 0x40 CALLDATASIZE PUSH1 0x3 NOT ADD SLT PUSH2 0x17E JUMPI PUSH2 0x26AE PUSH2 0x292A JUMP JUMPDEST PUSH1 0x24 CALLDATALOAD PUSH2 0x26BA DUP2 PUSH2 0x2D4F JUMP JUMPDEST CALLER ISZERO ISZERO DUP1 PUSH2 0x2769 JUMPI JUMPDEST DUP1 PUSH2 0x273C JUMPI JUMPDEST PUSH2 0x2724 JUMPI PUSH1 0x1 PUSH1 0x1 PUSH1 0xA0 SHL SUB SWAP3 DUP4 AND SWAP3 DUP3 SWAP2 DUP5 SWAP2 AND PUSH32 0x8C5BE1E5EBEC7D5BD14F71427D1E84F3DD0314C0F7B2291E5B200AC8C7C3B925 PUSH1 0x0 DUP1 LOG4 PUSH1 0x0 SWAP1 DUP2 MSTORE PUSH1 0x4 PUSH1 0x20 MSTORE PUSH1 0x40 SWAP1 KECCAK256 DUP1 SLOAD PUSH1 0x1 PUSH1 0x1 PUSH1 0xA0 SHL SUB NOT AND SWAP1 SWAP2 OR SWAP1 SSTORE STOP JUMPDEST PUSH1 0x40 MLOAD PUSH4 0xA9FBF51F PUSH1 0xE0 SHL DUP2 MSTORE CALLER PUSH1 0x4 DUP3 ADD MSTORE PUSH1 0x24 SWAP1 REVERT JUMPDEST POP PUSH1 0x1 DUP1 PUSH1 0xA0 SHL SUB DUP2 AND PUSH1 0x0 MSTORE PUSH1 0x5 PUSH1 0x20 MSTORE PUSH1 0x40 PUSH1 0x0 KECCAK256 CALLER PUSH1 0x0 MSTORE PUSH1 0x20 MSTORE PUSH1 0xFF PUSH1 0x40 PUSH1 0x0 KECCAK256 SLOAD AND ISZERO PUSH2 0x26C9 JUMP JUMPDEST POP PUSH1 0x1 PUSH1 0x1 PUSH1 0xA0 SHL SUB DUP2 AND CALLER EQ ISZERO PUSH2 0x26C3 JUMP JUMPDEST CALLVALUE PUSH2 0x17E JUMPI PUSH1 0x20 CALLDATASIZE PUSH1 0x3 NOT ADD SLT PUSH2 0x17E JUMPI PUSH1 0x4 CALLDATALOAD PUSH2 0x2799 DUP2 PUSH2 0x2D4F JUMP JUMPDEST POP PUSH1 0x0 MSTORE PUSH1 0x4 PUSH1 0x20 MSTORE PUSH1 0x20 PUSH1 0x1 DUP1 PUSH1 0xA0 SHL SUB PUSH1 0x40 PUSH1 0x0 KECCAK256 SLOAD AND PUSH1 0x40 MLOAD SWAP1 DUP2 MSTORE RETURN JUMPDEST CALLVALUE PUSH2 0x17E JUMPI PUSH1 0x0 CALLDATASIZE PUSH1 0x3 NOT ADD SLT PUSH2 0x17E JUMPI PUSH1 0x40 MLOAD PUSH1 0x0 DUP1 SLOAD PUSH2 0x27DB DUP2 PUSH2 0x298B JUMP JUMPDEST DUP1 DUP5 MSTORE SWAP1 PUSH1 0x1 SWAP1 DUP2 DUP2 AND SWAP1 DUP2 ISZERO PUSH2 0x244E JUMPI POP PUSH1 0x1 EQ PUSH2 0x2804 JUMPI PUSH2 0x18AC DUP5 PUSH2 0x1898 DUP2 DUP7 SUB DUP3 PUSH2 0x2A4D JUMP JUMPDEST PUSH1 0x0 DUP1 DUP1 MSTORE SWAP3 POP PUSH32 0x290DECD9548B62A8D60345A988386FC84BA6BC95484008F6362F93160EF3E563 JUMPDEST DUP3 DUP5 LT PUSH2 0x2845 JUMPI POP POP POP DUP2 ADD PUSH1 0x20 ADD PUSH2 0x1898 DUP3 PUSH2 0x23E5 JUMP JUMPDEST DUP1 SLOAD PUSH1 0x20 DUP6 DUP8 ADD DUP2 ADD SWAP2 SWAP1 SWAP2 MSTORE SWAP1 SWAP4 ADD SWAP3 DUP2 ADD PUSH2 0x282D JUMP JUMPDEST CALLVALUE PUSH2 0x17E JUMPI PUSH1 0x20 CALLDATASIZE PUSH1 0x3 NOT ADD SLT PUSH2 0x17E JUMPI PUSH1 0x4 CALLDATALOAD SWAP1 PUSH4 0xFFFFFFFF PUSH1 0xE0 SHL DUP3 AND DUP1 SWAP3 SUB PUSH2 0x17E JUMPI PUSH1 0x20 SWAP2 PUSH4 0x24832483 PUSH1 0xE1 SHL DUP2 EQ SWAP1 DUP2 ISZERO PUSH2 0x289F JUMPI JUMPDEST POP ISZERO ISZERO DUP2 MSTORE RETURN JUMPDEST PUSH4 0x80AC58CD PUSH1 0xE0 SHL DUP2 EQ SWAP2 POP DUP2 ISZERO PUSH2 0x28D1 JUMPI JUMPDEST DUP2 ISZERO PUSH2 0x28C0 JUMPI JUMPDEST POP DUP4 PUSH2 0x2898 JUMP JUMPDEST PUSH4 0x1FFC9A7 PUSH1 0xE0 SHL EQ SWAP1 POP DUP4 PUSH2 0x28B9 JUMP JUMPDEST PUSH4 0x5B5E139F PUSH1 0xE0 SHL DUP2 EQ SWAP2 POP PUSH2 0x28B2 JUMP JUMPDEST PUSH1 0x0 JUMPDEST DUP4 DUP2 LT PUSH2 0x28F5 JUMPI POP POP PUSH1 0x0 SWAP2 ADD MSTORE JUMP JUMPDEST DUP2 DUP2 ADD MLOAD DUP4 DUP3 ADD MSTORE PUSH1 0x20 ADD PUSH2 0x28E5 JUMP JUMPDEST SWAP1 PUSH1 0x20 SWAP2 PUSH2 0x291E DUP2 MLOAD DUP1 SWAP3 DUP2 DUP6 MSTORE DUP6 DUP1 DUP7 ADD SWAP2 ADD PUSH2 0x28E2 JUMP JUMPDEST PUSH1 0x1F ADD PUSH1 0x1F NOT AND ADD ADD SWAP1 JUMP JUMPDEST PUSH1 0x4 CALLDATALOAD SWAP1 PUSH1 0x1 PUSH1 0x1 PUSH1 0xA0 SHL SUB DUP3 AND DUP3 SUB PUSH2 0x17E JUMPI JUMP JUMPDEST PUSH1 0x24 CALLDATALOAD SWAP1 PUSH1 0x1 PUSH1 0x1 PUSH1 0xA0 SHL SUB DUP3 AND DUP3 SUB PUSH2 0x17E JUMPI JUMP JUMPDEST PUSH1 0x60 SWAP1 PUSH1 0x3 NOT ADD SLT PUSH2 0x17E JUMPI PUSH1 0x1 PUSH1 0x1 PUSH1 0xA0 SHL SUB SWAP1 PUSH1 0x4 CALLDATALOAD DUP3 DUP2 AND DUP2 SUB PUSH2 0x17E JUMPI SWAP2 PUSH1 0x24 CALLDATALOAD SWAP1 DUP2 AND DUP2 SUB PUSH2 0x17E JUMPI SWAP1 PUSH1 0x44 CALLDATALOAD SWAP1 JUMP JUMPDEST SWAP1 PUSH1 0x1 DUP3 DUP2 SHR SWAP3 AND DUP1 ISZERO PUSH2 0x29BB JUMPI JUMPDEST PUSH1 0x20 DUP4 LT EQ PUSH2 0x29A5 JUMPI JUMP JUMPDEST PUSH4 0x4E487B71 PUSH1 0xE0 SHL PUSH1 0x0 MSTORE PUSH1 0x22 PUSH1 0x4 MSTORE PUSH1 0x24 PUSH1 0x0 REVERT JUMPDEST SWAP2 PUSH1 0x7F AND SWAP2 PUSH2 0x299A JUMP JUMPDEST PUSH1 0xC0 DUP2 ADD SWAP1 DUP2 LT PUSH1 0x1 PUSH1 0x1 PUSH1 0x40 SHL SUB DUP3 GT OR PUSH2 0x1944 JUMPI PUSH1 0x40 MSTORE JUMP JUMPDEST PUSH1 0x20 DUP2 ADD SWAP1 DUP2 LT PUSH1 0x1 PUSH1 0x1 PUSH1 0x40 SHL SUB DUP3 GT OR PUSH2 0x1944 JUMPI PUSH1 0x40 MSTORE JUMP JUMPDEST PUSH1 0x40 DUP2 ADD SWAP1 DUP2 LT PUSH1 0x1 PUSH1 0x1 PUSH1 0x40 SHL SUB DUP3 GT OR PUSH2 0x1944 JUMPI PUSH1 0x40 MSTORE JUMP JUMPDEST PUSH2 0x160 DUP2 ADD SWAP1 DUP2 LT PUSH1 0x1 PUSH1 0x1 PUSH1 0x40 SHL SUB DUP3 GT OR PUSH2 0x1944 JUMPI PUSH1 0x40 MSTORE JUMP JUMPDEST PUSH1 0x60 DUP2 ADD SWAP1 DUP2 LT PUSH1 0x1 PUSH1 0x1 PUSH1 0x40 SHL SUB DUP3 GT OR PUSH2 0x1944 JUMPI PUSH1 0x40 MSTORE JUMP JUMPDEST SWAP1 PUSH1 0x1F DUP1 NOT SWAP2 ADD AND DUP2 ADD SWAP1 DUP2 LT PUSH1 0x1 PUSH1 0x1 PUSH1 0x40 SHL SUB DUP3 GT OR PUSH2 0x1944 JUMPI PUSH1 0x40 MSTORE JUMP JUMPDEST SWAP1 PUSH1 0x40 MLOAD SWAP2 DUP3 PUSH1 0x0 DUP3 SLOAD SWAP3 PUSH2 0x2A82 DUP5 PUSH2 0x298B JUMP JUMPDEST SWAP1 DUP2 DUP5 MSTORE PUSH1 0x1 SWAP5 DUP6 DUP2 AND SWAP1 DUP2 PUSH1 0x0 EQ PUSH2 0x2AF1 JUMPI POP PUSH1 0x1 EQ PUSH2 0x2AAE JUMPI JUMPDEST POP POP PUSH2 0x2AAC SWAP3 POP SUB DUP4 PUSH2 0x2A4D JUMP JUMPDEST JUMP JUMPDEST SWAP1 SWAP4 SWAP2 POP PUSH1 0x0 MSTORE PUSH1 0x20 SWAP1 DUP2 PUSH1 0x0 KECCAK256 SWAP4 PUSH1 0x0 SWAP2 JUMPDEST DUP2 DUP4 LT PUSH2 0x2AD9 JUMPI POP POP PUSH2 0x2AAC SWAP4 POP DUP3 ADD ADD CODESIZE DUP1 PUSH2 0x2A9E JUMP JUMPDEST DUP6 SLOAD DUP9 DUP5 ADD DUP6 ADD MSTORE SWAP5 DUP6 ADD SWAP5 DUP8 SWAP5 POP SWAP2 DUP4 ADD SWAP2 PUSH2 0x2AC1 JUMP JUMPDEST SWAP2 POP POP PUSH2 0x2AAC SWAP5 POP PUSH1 0x20 SWAP3 POP PUSH1 0xFF NOT AND DUP3 DUP5 ADD MSTORE ISZERO ISZERO PUSH1 0x5 SHL DUP3 ADD ADD CODESIZE DUP1 PUSH2 0x2A9E JUMP JUMPDEST PUSH1 0x1 PUSH1 0x1 PUSH1 0x40 SHL SUB DUP2 GT PUSH2 0x1944 JUMPI PUSH1 0x1F ADD PUSH1 0x1F NOT AND PUSH1 0x20 ADD SWAP1 JUMP JUMPDEST SWAP3 SWAP2 SWAP3 PUSH2 0x2B3B DUP3 PUSH2 0x2B14 JUMP JUMPDEST SWAP2 PUSH2 0x2B49 PUSH1 0x40 MLOAD SWAP4 DUP5 PUSH2 0x2A4D JUMP JUMPDEST DUP3 SWAP5 DUP2 DUP5 MSTORE DUP2 DUP4 ADD GT PUSH2 0x17E JUMPI DUP3 DUP2 PUSH1 0x20 SWAP4 DUP5 PUSH1 0x0 SWAP7 ADD CALLDATACOPY ADD ADD MSTORE JUMP JUMPDEST SWAP1 DUP1 PUSH1 0x1F DUP4 ADD SLT ISZERO PUSH2 0x17E JUMPI DUP2 PUSH1 0x20 PUSH2 0x2B81 SWAP4 CALLDATALOAD SWAP2 ADD PUSH2 0x2B2F JUMP JUMPDEST SWAP1 JUMP JUMPDEST PUSH1 0x7 SLOAD PUSH1 0x1 PUSH1 0x1 PUSH1 0xA0 SHL SUB AND CALLER SUB PUSH2 0x2B98 JUMPI JUMP JUMPDEST PUSH1 0x40 MLOAD PUSH4 0x118CDAA7 PUSH1 0xE0 SHL DUP2 MSTORE CALLER PUSH1 0x4 DUP3 ADD MSTORE PUSH1 0x24 SWAP1 REVERT JUMPDEST PUSH1 0x1 PUSH1 0x1 PUSH1 0xA0 SHL SUB SWAP2 DUP3 AND SWAP3 SWAP1 SWAP2 DUP4 ISZERO PUSH2 0x2D36 JUMPI PUSH1 0x0 SWAP3 DUP3 DUP5 MSTORE DUP3 PUSH1 0x20 SWAP6 PUSH1 0x2 DUP8 MSTORE PUSH1 0x40 SWAP7 DUP5 DUP9 DUP9 KECCAK256 SLOAD AND SWAP7 DUP8 SWAP2 CALLER ISZERO ISZERO DUP1 PUSH2 0x2CA0 JUMPI JUMPDEST POP SWAP1 PUSH1 0x2 PUSH32 0xDDF252AD1BE2C89B69C2B068FC378DAA952BA7F163C4A11628F55A4DF523B3EF SWAP3 DUP5 PUSH2 0x2C6D JUMPI JUMPDEST DUP6 DUP4 MSTORE PUSH1 0x3 DUP2 MSTORE DUP12 DUP4 KECCAK256 DUP1 SLOAD PUSH1 0x1 ADD SWAP1 SSTORE DUP7 DUP4 MSTORE MSTORE DUP10 DUP2 KECCAK256 DUP1 SLOAD PUSH1 0x1 PUSH1 0x1 PUSH1 0xA0 SHL SUB NOT AND DUP6 OR SWAP1 SSTORE DUP1 LOG4 AND SWAP3 DUP4 DUP4 SUB PUSH2 0x2C4C JUMPI POP POP POP POP JUMP JUMPDEST PUSH1 0x64 SWAP5 POP MLOAD SWAP3 PUSH4 0x64283D7B PUSH1 0xE0 SHL DUP5 MSTORE PUSH1 0x4 DUP5 ADD MSTORE PUSH1 0x24 DUP4 ADD MSTORE PUSH1 0x44 DUP3 ADD MSTORE REVERT JUMPDEST PUSH1 0x0 DUP8 DUP2 MSTORE PUSH1 0x4 PUSH1 0x20 MSTORE PUSH1 0x40 SWAP1 KECCAK256 DUP1 SLOAD PUSH1 0x1 PUSH1 0x1 PUSH1 0xA0 SHL SUB NOT AND SWAP1 SSTORE DUP5 DUP4 MSTORE PUSH1 0x3 DUP2 MSTORE DUP12 DUP4 KECCAK256 DUP1 SLOAD PUSH1 0x0 NOT ADD SWAP1 SSTORE PUSH2 0x2C13 JUMP JUMPDEST SWAP2 SWAP4 SWAP5 POP SWAP2 POP DUP1 PUSH2 0x2CF5 JUMPI JUMPDEST ISZERO PUSH2 0x2CBC JUMPI DUP6 SWAP3 SWAP2 DUP8 SWAP2 CODESIZE PUSH2 0x2BE7 JUMP JUMPDEST DUP8 DUP7 DUP9 PUSH2 0x2CD9 JUMPI PUSH1 0x24 SWAP2 MLOAD SWAP1 PUSH4 0x7E273289 PUSH1 0xE0 SHL DUP3 MSTORE PUSH1 0x4 DUP3 ADD MSTORE REVERT JUMPDEST PUSH1 0x44 SWAP2 MLOAD SWAP1 PUSH4 0x177E802F PUSH1 0xE0 SHL DUP3 MSTORE CALLER PUSH1 0x4 DUP4 ADD MSTORE PUSH1 0x24 DUP3 ADD MSTORE REVERT JUMPDEST POP CALLER DUP8 EQ DUP1 ISZERO PUSH2 0x2D1A JUMPI JUMPDEST DUP1 PUSH2 0x2CAC JUMPI POP DUP6 DUP3 MSTORE PUSH1 0x4 DUP2 MSTORE CALLER DUP6 DUP10 DUP5 KECCAK256 SLOAD AND EQ PUSH2 0x2CAC JUMP JUMPDEST POP DUP7 DUP3 MSTORE PUSH1 0x5 DUP2 MSTORE DUP8 DUP3 KECCAK256 CALLER DUP4 MSTORE DUP2 MSTORE PUSH1 0xFF DUP9 DUP4 KECCAK256 SLOAD AND PUSH2 0x2D00 JUMP JUMPDEST PUSH1 0x40 MLOAD PUSH4 0x32505749 PUSH1 0xE1 SHL DUP2 MSTORE PUSH1 0x0 PUSH1 0x4 DUP3 ADD MSTORE PUSH1 0x24 SWAP1 REVERT JUMPDEST PUSH1 0x0 DUP2 DUP2 MSTORE PUSH1 0x2 PUSH1 0x20 MSTORE PUSH1 0x40 SWAP1 KECCAK256 SLOAD PUSH1 0x1 PUSH1 0x1 PUSH1 0xA0 SHL SUB AND SWAP1 DUP2 ISZERO PUSH2 0x2D72 JUMPI POP SWAP1 JUMP JUMPDEST PUSH1 0x24 SWAP1 PUSH1 0x40 MLOAD SWAP1 PUSH4 0x7E273289 PUSH1 0xE0 SHL DUP3 MSTORE PUSH1 0x4 DUP3 ADD MSTORE REVERT JUMPDEST SWAP1 SWAP4 SWAP2 SWAP3 DUP4 EXTCODESIZE PUSH2 0x2D9C JUMPI JUMPDEST POP POP POP POP POP JUMP JUMPDEST PUSH1 0x40 MLOAD PUSH4 0xA85BD01 PUSH1 0xE1 SHL DUP1 DUP3 MSTORE PUSH1 0x1 PUSH1 0x1 PUSH1 0xA0 SHL SUB SWAP4 DUP5 AND PUSH1 0x4 DUP4 ADD MSTORE SWAP6 DUP4 AND PUSH1 0x24 DUP3 ADD MSTORE PUSH1 0x44 DUP2 ADD SWAP2 SWAP1 SWAP2 MSTORE PUSH1 0x80 PUSH1 0x64 DUP3 ADD MSTORE SWAP5 SWAP3 AND SWAP3 PUSH1 0x20 SWAP3 SWAP2 DUP6 SWAP1 PUSH2 0x2DE9 SWAP1 PUSH1 0x84 DUP4 ADD SWAP1 PUSH2 0x2905 JUMP JUMPDEST SUB SWAP5 DUP4 DUP2 PUSH1 0x0 SWAP8 DUP2 DUP10 DUP10 GAS CALL DUP7 SWAP2 DUP2 PUSH2 0x2E94 JUMPI JUMPDEST POP PUSH2 0x2E5E JUMPI POP POP POP RETURNDATASIZE PUSH1 0x0 EQ PUSH2 0x2E55 JUMPI RETURNDATASIZE PUSH2 0x2E17 DUP2 PUSH2 0x2B14 JUMP JUMPDEST SWAP1 PUSH2 0x2E25 PUSH1 0x40 MLOAD SWAP3 DUP4 PUSH2 0x2A4D JUMP JUMPDEST DUP2 MSTORE DUP1 SWAP4 DUP3 RETURNDATASIZE SWAP3 ADD RETURNDATACOPY JUMPDEST DUP3 MLOAD SWAP3 DUP4 PUSH2 0x2E50 JUMPI PUSH1 0x40 MLOAD PUSH4 0x32505749 PUSH1 0xE1 SHL DUP2 MSTORE PUSH1 0x4 DUP2 ADD DUP5 SWAP1 MSTORE PUSH1 0x24 SWAP1 REVERT JUMPDEST ADD SWAP1 POP REVERT JUMPDEST PUSH1 0x60 SWAP3 POP PUSH2 0x2E2F JUMP JUMPDEST SWAP2 SWAP5 POP SWAP2 POP PUSH4 0xFFFFFFFF PUSH1 0xE0 SHL AND SUB PUSH2 0x2E7C JUMPI POP CODESIZE DUP1 DUP1 DUP1 DUP1 PUSH2 0x2D95 JUMP JUMPDEST PUSH1 0x24 SWAP1 PUSH1 0x40 MLOAD SWAP1 PUSH4 0x32505749 PUSH1 0xE1 SHL DUP3 MSTORE PUSH1 0x4 DUP3 ADD MSTORE REVERT JUMPDEST SWAP1 SWAP2 POP DUP5 DUP2 DUP2 RETURNDATASIZE DUP4 GT PUSH2 0x2ED1 JUMPI JUMPDEST PUSH2 0x2EAC DUP2 DUP4 PUSH2 0x2A4D JUMP JUMPDEST DUP2 ADD SUB SLT PUSH2 0x2ECD JUMPI MLOAD PUSH1 0x1 PUSH1 0x1 PUSH1 0xE0 SHL SUB NOT DUP2 AND DUP2 SUB PUSH2 0x2ECD JUMPI SWAP1 CODESIZE PUSH2 0x2DFD JUMP JUMPDEST DUP7 DUP1 REVERT JUMPDEST POP RETURNDATASIZE PUSH2 0x2EA2 JUMP JUMPDEST SWAP1 PUSH2 0x2EE2 DUP3 PUSH2 0x2B14 JUMP JUMPDEST PUSH2 0x2EEF PUSH1 0x40 MLOAD SWAP2 DUP3 PUSH2 0x2A4D JUMP JUMPDEST DUP3 DUP2 MSTORE DUP1 SWAP3 PUSH2 0x2F00 PUSH1 0x1F NOT SWAP2 PUSH2 0x2B14 JUMP JUMPDEST ADD SWAP1 PUSH1 0x20 CALLDATASIZE SWAP2 ADD CALLDATACOPY JUMP JUMPDEST DUP1 MLOAD ISZERO PUSH2 0x2FED JUMPI DUP1 MLOAD PUSH1 0x2 SWAP2 DUP3 DUP3 ADD DUP1 SWAP3 GT PUSH2 0x1918 JUMPI PUSH1 0x3 SWAP2 DUP3 SWAP1 DIV PUSH1 0x1 PUSH1 0x1 PUSH1 0xFE SHL SUB DUP2 AND DUP2 SUB PUSH2 0x1918 JUMPI PUSH2 0x2F43 SWAP1 DUP5 SWAP6 SWAP5 SHL PUSH2 0x2ED8 JUMP JUMPDEST SWAP4 PUSH1 0x20 DUP6 ADD SWAP4 DUP3 SWAP2 DUP4 MLOAD DUP5 ADD SWAP1 PUSH1 0x20 DUP3 ADD SWAP3 DUP4 MLOAD SWAP5 PUSH1 0x0 DUP6 MSTORE JUMPDEST DUP4 DUP2 LT PUSH2 0x2F9C JUMPI POP POP POP POP MSTORE MLOAD MOD DUP1 PUSH1 0x1 EQ PUSH2 0x2F89 JUMPI PUSH1 0x2 EQ PUSH2 0x2F7E JUMPI POP SWAP1 JUMP JUMPDEST PUSH1 0x3D SWAP1 PUSH1 0x0 NOT ADD MSTORE8 SWAP1 JUMP JUMPDEST POP PUSH1 0x3D SWAP1 DUP2 PUSH1 0x0 NOT DUP3 ADD MSTORE8 PUSH1 0x1 NOT ADD MSTORE8 SWAP1 JUMP JUMPDEST DUP8 PUSH1 0x4 SWAP2 SWAP10 SWAP3 SWAP4 SWAP5 SWAP10 ADD SWAP2 DUP3 MLOAD PUSH1 0x1 SWAP1 PUSH1 0x3F SWAP1 DUP3 DUP3 DUP3 PUSH1 0x12 SHR AND DUP9 ADD ADD MLOAD DUP5 MSTORE8 DUP3 DUP3 DUP3 PUSH1 0xC SHR AND DUP9 ADD ADD MLOAD DUP4 DUP6 ADD MSTORE8 DUP3 DUP3 DUP3 PUSH1 0x6 SHR AND DUP9 ADD ADD MLOAD DUP9 DUP6 ADD MSTORE8 AND DUP6 ADD ADD MLOAD DUP10 DUP3 ADD MSTORE8 ADD SWAP8 SWAP3 SWAP2 SWAP1 PUSH2 0x2F5D JUMP JUMPDEST POP POP PUSH1 0x40 MLOAD PUSH2 0x2FFB DUP2 PUSH2 0x29E0 JUMP JUMPDEST PUSH1 0x0 DUP2 MSTORE SWAP1 JUMP JUMPDEST DUP1 PUSH1 0x0 SWAP2 PUSH27 0x184F03E93FF9F4DAA797ED6E38ED64BF6A1F010000000000000000 DUP1 DUP3 LT ISZERO PUSH2 0x3137 JUMPI JUMPDEST POP PUSH14 0x4EE2D6D415B85ACEF8100000000 DUP1 DUP4 LT ISZERO PUSH2 0x3128 JUMPI JUMPDEST POP PUSH7 0x2386F26FC10000 DUP1 DUP4 LT ISZERO PUSH2 0x3119 JUMPI JUMPDEST POP PUSH4 0x5F5E100 DUP1 DUP4 LT ISZERO PUSH2 0x310A JUMPI JUMPDEST POP PUSH2 0x2710 DUP1 DUP4 LT ISZERO PUSH2 0x30FB JUMPI JUMPDEST POP PUSH1 0x64 DUP3 LT ISZERO PUSH2 0x30EB JUMPI JUMPDEST PUSH1 0xA DUP1 SWAP3 LT ISZERO PUSH2 0x30E1 JUMPI JUMPDEST PUSH1 0x1 SWAP1 DUP2 PUSH1 0x21 PUSH2 0x3099 DUP3 DUP8 ADD PUSH2 0x2ED8 JUMP JUMPDEST SWAP6 DUP7 ADD ADD SWAP1 JUMPDEST PUSH2 0x30AB JUMPI JUMPDEST POP POP POP POP SWAP1 JUMP JUMPDEST PUSH1 0x0 NOT ADD SWAP1 DUP4 SWAP1 PUSH16 0x181899199A1A9B1B9C1CB0B131B232B3 PUSH1 0x81 SHL DUP3 DUP3 MOD BYTE DUP4 MSTORE8 DIV SWAP2 DUP3 ISZERO PUSH2 0x30DC JUMPI SWAP2 SWAP1 DUP3 PUSH2 0x309F JUMP JUMPDEST PUSH2 0x30A4 JUMP JUMPDEST SWAP2 PUSH1 0x1 ADD SWAP2 PUSH2 0x3088 JUMP JUMPDEST SWAP2 SWAP1 PUSH1 0x64 PUSH1 0x2 SWAP2 DIV SWAP2 ADD SWAP2 PUSH2 0x307D JUMP JUMPDEST PUSH1 0x4 SWAP2 SWAP4 SWAP3 DIV SWAP2 ADD SWAP2 CODESIZE PUSH2 0x3072 JUMP JUMPDEST PUSH1 0x8 SWAP2 SWAP4 SWAP3 DIV SWAP2 ADD SWAP2 CODESIZE PUSH2 0x3065 JUMP JUMPDEST PUSH1 0x10 SWAP2 SWAP4 SWAP3 DIV SWAP2 ADD SWAP2 CODESIZE PUSH2 0x3056 JUMP JUMPDEST PUSH1 0x20 SWAP2 SWAP4 SWAP3 DIV SWAP2 ADD SWAP2 CODESIZE PUSH2 0x3044 JUMP JUMPDEST PUSH1 0x40 SWAP4 POP DUP2 DIV SWAP2 POP CODESIZE PUSH2 0x302B JUMP JUMPDEST PUSH1 0x0 DUP1 MLOAD PUSH1 0x20 PUSH2 0x3532 DUP4 CODECOPY DUP2 MLOAD SWAP2 MSTORE DUP2 MSTORE PUSH32 0x2076616C7565733D22302E363B302E323B302E3622206475723D22312E357322 PUSH1 0x20 DUP3 ADD MSTORE PUSH32 0x20726570656174436F756E743D22696E646566696E697465222F3E3C2F706174 PUSH1 0x40 DUP3 ADD MSTORE PUSH2 0x341F PUSH1 0xF1 SHL PUSH1 0x60 DUP3 ADD MSTORE PUSH1 0x62 ADD SWAP1 JUMP JUMPDEST PUSH1 0x3 PUSH1 0xFF DUP3 AND LT PUSH2 0x34A4 JUMPI PUSH1 0x1 SHR PUSH1 0x7F AND PUSH1 0x5 DUP2 GT PUSH2 0x349C JUMPI JUMPDEST PUSH1 0x40 SWAP1 DUP2 MLOAD PUSH2 0x31DB DUP2 PUSH2 0x29E0 JUMP JUMPDEST PUSH1 0x0 DUP2 MSTORE DUP3 MLOAD PUSH2 0x31EA DUP2 PUSH2 0x29E0 JUMP JUMPDEST PUSH1 0x0 DUP2 MSTORE DUP4 MLOAD PUSH2 0x31F9 DUP2 PUSH2 0x29E0 JUMP JUMPDEST PUSH1 0x0 DUP2 MSTORE SWAP3 DUP5 MLOAD PUSH2 0x3209 DUP2 PUSH2 0x29E0 JUMP JUMPDEST PUSH1 0x0 DUP2 MSTORE PUSH1 0xFF DUP7 MLOAD PUSH2 0x321A DUP2 PUSH2 0x29E0 JUMP JUMPDEST PUSH1 0x0 DUP2 MSTORE SWAP3 AND SWAP6 PUSH1 0x1 DUP8 LT ISZERO PUSH2 0x3435 JUMPI JUMPDEST PUSH1 0x2 DUP8 LT ISZERO PUSH2 0x33CE JUMPI JUMPDEST PUSH1 0x3 DUP8 LT ISZERO PUSH2 0x3363 JUMPI JUMPDEST DUP7 PUSH1 0x4 PUSH2 0x2B81 SWAP8 SWAP9 LT ISZERO PUSH2 0x32F8 JUMPI JUMPDEST PUSH1 0x5 GT ISZERO PUSH2 0x3283 JUMPI JUMPDEST MLOAD SWAP6 DUP7 SWAP4 DUP6 MLOAD PUSH2 0x326F DUP2 PUSH1 0x20 SWAP9 DUP10 DUP1 DUP11 ADD SWAP2 ADD PUSH2 0x28E2 JUMP JUMPDEST DUP6 ADD PUSH2 0xD26 DUP3 MLOAD DUP1 SWAP4 DUP10 DUP1 DUP6 ADD SWAP2 ADD PUSH2 0x28E2 JUMP JUMPDEST DUP1 SWAP3 POP MLOAD PUSH32 0x3C7061746820643D224D3236302C31343020513237302C313230203236302C31 PUSH1 0x20 DUP3 ADD MSTORE PUSH1 0x0 DUP1 MLOAD PUSH1 0x20 PUSH2 0x3512 DUP4 CODECOPY DUP2 MLOAD SWAP2 MSTORE DUP4 DUP3 ADD MSTORE PUSH1 0x0 DUP1 MLOAD PUSH1 0x20 PUSH2 0x34F2 DUP4 CODECOPY DUP2 MLOAD SWAP2 MSTORE PUSH1 0x60 DUP3 ADD MSTORE PUSH2 0x32F2 DUP2 PUSH2 0x32E4 PUSH1 0x80 DUP3 ADD PUSH2 0x3145 JUMP JUMPDEST SUB PUSH1 0x1F NOT DUP2 ADD DUP4 MSTORE DUP3 PUSH2 0x2A4D JUMP JUMPDEST SWAP2 PUSH2 0x3257 JUMP JUMPDEST SWAP2 POP PUSH1 0x5 DUP2 MLOAD PUSH32 0x3C7061746820643D224D3233302C31343020513234302C313230203233302C31 PUSH1 0x20 DUP3 ADD MSTORE PUSH1 0x0 DUP1 MLOAD PUSH1 0x20 PUSH2 0x3512 DUP4 CODECOPY DUP2 MLOAD SWAP2 MSTORE DUP4 DUP3 ADD MSTORE PUSH1 0x0 DUP1 MLOAD PUSH1 0x20 PUSH2 0x34F2 DUP4 CODECOPY DUP2 MLOAD SWAP2 MSTORE PUSH1 0x60 DUP3 ADD MSTORE PUSH2 0x335B DUP2 PUSH2 0x32E4 PUSH1 0x80 DUP3 ADD PUSH2 0x3145 JUMP JUMPDEST SWAP3 SWAP1 POP PUSH2 0x324E JUMP JUMPDEST PUSH2 0x2B81 SWAP6 POP DUP1 MLOAD PUSH32 0x3C7061746820643D224D3230302C31343020513231302C313230203230302C31 PUSH1 0x20 DUP3 ADD MSTORE PUSH1 0x0 DUP1 MLOAD PUSH1 0x20 PUSH2 0x3512 DUP4 CODECOPY DUP2 MLOAD SWAP2 MSTORE DUP3 DUP3 ADD MSTORE PUSH1 0x0 DUP1 MLOAD PUSH1 0x20 PUSH2 0x34F2 DUP4 CODECOPY DUP2 MLOAD SWAP2 MSTORE PUSH1 0x60 DUP3 ADD MSTORE PUSH2 0x33C7 DUP2 PUSH2 0x32E4 PUSH1 0x80 DUP3 ADD PUSH2 0x3145 JUMP JUMPDEST SWAP6 POP PUSH2 0x323F JUMP JUMPDEST DUP1 SWAP4 POP MLOAD PUSH32 0x3C7061746820643D224D3137302C31343020513138302C313230203137302C31 PUSH1 0x20 DUP3 ADD MSTORE PUSH1 0x0 DUP1 MLOAD PUSH1 0x20 PUSH2 0x3512 DUP4 CODECOPY DUP2 MLOAD SWAP2 MSTORE DUP5 DUP3 ADD MSTORE PUSH1 0x0 DUP1 MLOAD PUSH1 0x20 PUSH2 0x34F2 DUP4 CODECOPY DUP2 MLOAD SWAP2 MSTORE PUSH1 0x60 DUP3 ADD MSTORE PUSH2 0x342F DUP2 PUSH2 0x32E4 PUSH1 0x80 DUP3 ADD PUSH2 0x3145 JUMP JUMPDEST SWAP3 PUSH2 0x3235 JUMP JUMPDEST DUP1 SWAP5 POP MLOAD PUSH32 0x3C7061746820643D224D3134302C31343020513135302C313230203134302C31 PUSH1 0x20 DUP3 ADD MSTORE PUSH1 0x0 DUP1 MLOAD PUSH1 0x20 PUSH2 0x3512 DUP4 CODECOPY DUP2 MLOAD SWAP2 MSTORE DUP6 DUP3 ADD MSTORE PUSH1 0x0 DUP1 MLOAD PUSH1 0x20 PUSH2 0x34F2 DUP4 CODECOPY DUP2 MLOAD SWAP2 MSTORE PUSH1 0x60 DUP3 ADD MSTORE PUSH2 0x3496 DUP2 PUSH2 0x32E4 PUSH1 0x80 DUP3 ADD PUSH2 0x3145 JUMP JUMPDEST SWAP4 PUSH2 0x322B JUMP JUMPDEST POP PUSH1 0x5 PUSH2 0x31CD JUMP JUMPDEST POP PUSH1 0x40 MLOAD PUSH2 0x2FFB DUP2 PUSH2 0x29E0 JUMP INVALID 0x22 PUSH21 0x72616E73666F726D2220747970653D227363616C65 0x22 KECCAK256 PUSH23 0x616C7565733D3C616E696D6174655472616E73666F726D KECCAK256 PUSH2 0x7474 PUSH19 0x69627574654E616D653D683D2233222066696C PUSH13 0x3D226E6F6E6522206F70616369 PUSH21 0x793D22302E36223E303022207374726F6B653D2223 CODESIZE CALLVALUE NUMBER NUMBER BALANCE CALLDATASIZE 0x22 KECCAK256 PUSH20 0x74726F6B652D776964743C616E696D6174652061 PUSH21 0x747269627574654E616D653D226F70616369747922 LOG2 PUSH5 0x6970667358 0x22 SLT KECCAK256 BALANCE 0xC6 0x4B DUP8 MULMOD CALLDATALOAD SWAP10 0xD4 CHAINID MLOAD SWAP6 PUSH22 0x4E4838ED9A5964722AE40CB54792CAF805DA2C416473 PUSH16 0x6C634300081400330000000000000000 "},"methodIdentifiers":{"approve(address,uint256)":"095ea7b3","balanceOf(address)":"70a08231","getApproved(uint256)":"081812fc","isApprovedForAll(address,address)":"e985e9c5","name()":"06fdde03","owner()":"8da5cb5b","ownerOf(uint256)":"6352211e","renounceOwnership()":"715018a6","safeTransferFrom(address,address,uint256)":"42842e0e","safeTransferFrom(address,address,uint256,bytes)":"b88d4fde","setApprovalForAll(address,bool)":"a22cb465","supportsInterface(bytes4)":"01ffc9a7","symbol()":"95d89b41","throwTrash(address,string,string,string,uint8)":"b15bf9a8","tokenURI(uint256)":"c87b56dd","totalSupply()":"18160ddd","transferFrom(address,address,uint256)":"23b872dd","transferOwnership(address)":"f2fde38b","trashData(uint256)":"7c63f279"}}}}}