{"contracts/TrashNFT.sol":{"TrashNFT":{"abi":[{"inputs":[],"stateMutability":"nonpayable","type":"constructor"},{"inputs":[],"name":"ERC721EnumerableForbiddenBatchMint","type":"error"},{"inputs":[{"internalType":"address","name":"sender","type":"address"},{"internalType":"uint256","name":"tokenId","type":"uint256"},{"internalType":"address","name":"owner","type":"address"}],"name":"ERC721IncorrectOwner","type":"error"},{"inputs":[{"internalType":"address","name":"operator","type":"address"},{"internalType":"uint256","name":"tokenId","type":"uint256"}],"name":"ERC721InsufficientApproval","type":"error"},{"inputs":[{"internalType":"address","name":"approver","type":"address"}],"name":"ERC721InvalidApprover","type":"error"},{"inputs":[{"internalType":"address","name":"operator","type":"address"}],"name":"ERC721InvalidOperator","type":"error"},{"inputs":[{"internalType":"address","name":"owner","type":"address"}],"name":"ERC721InvalidOwner","type":"error"},{"inputs":[{"internalType":"address","name":"receiver","type":"address"}],"name":"ERC721InvalidReceiver","type":"error"},{"inputs":[{"internalType":"address","name":"sender","type":"address"}],"name":"ERC721InvalidSender","type":"error"},{"inputs":[{"internalType":"uint256","name":"tokenId","type":"uint256"}],"name":"ERC721NonexistentToken","type":"error"},{"inputs":[{"internalType":"address","name":"owner","type":"address"},{"internalType":"uint256","name":"index","type":"uint256"}],"name":"ERC721OutOfBoundsIndex","type":"error"},{"inputs":[{"internalType":"address","name":"owner","type":"address"}],"name":"OwnableInvalidOwner","type":"error"},{"inputs":[{"internalType":"address","name":"account","type":"address"}],"name":"OwnableUnauthorizedAccount","type":"error"},{"inputs":[{"internalType":"uint256","name":"value","type":"uint256"},{"internalType":"uint256","name":"length","type":"uint256"}],"name":"StringsInsufficientHexLength","type":"error"},{"anonymous":false,"inputs":[{"indexed":true,"internalType":"address","name":"owner","type":"address"},{"indexed":true,"internalType":"address","name":"approved","type":"address"},{"indexed":true,"internalType":"uint256","name":"tokenId","type":"uint256"}],"name":"Approval","type":"event"},{"anonymous":false,"inputs":[{"indexed":true,"internalType":"address","name":"owner","type":"address"},{"indexed":true,"internalType":"address","name":"operator","type":"address"},{"indexed":false,"internalType":"bool","name":"approved","type":"bool"}],"name":"ApprovalForAll","type":"event"},{"anonymous":false,"inputs":[{"indexed":false,"internalType":"uint256","name":"_fromTokenId","type":"uint256"},{"indexed":false,"internalType":"uint256","name":"_toTokenId","type":"uint256"}],"name":"BatchMetadataUpdate","type":"event"},{"anonymous":false,"inputs":[{"indexed":false,"internalType":"uint256","name":"_tokenId","type":"uint256"}],"name":"MetadataUpdate","type":"event"},{"anonymous":false,"inputs":[{"indexed":true,"internalType":"address","name":"previousOwner","type":"address"},{"indexed":true,"internalType":"address","name":"newOwner","type":"address"}],"name":"OwnershipTransferred","type":"event"},{"anonymous":false,"inputs":[{"indexed":true,"internalType":"address","name":"from","type":"address"},{"indexed":true,"internalType":"address","name":"to","type":"address"},{"indexed":true,"internalType":"uint256","name":"tokenId","type":"uint256"}],"name":"Transfer","type":"event"},{"anonymous":false,"inputs":[{"indexed":true,"internalType":"uint256","name":"tokenId","type":"uint256"},{"indexed":true,"internalType":"address","name":"from","type":"address"},{"indexed":true,"internalType":"address","name":"to","type":"address"},{"indexed":false,"internalType":"string","name":"trashName","type":"string"},{"indexed":false,"internalType":"uint8","name":"stinkLevel","type":"uint8"}],"name":"TrashThrown","type":"event"},{"inputs":[{"internalType":"address","name":"to","type":"address"},{"internalType":"uint256","name":"tokenId","type":"uint256"}],"name":"approve","outputs":[],"stateMutability":"nonpayable","type":"function"},{"inputs":[{"internalType":"address","name":"owner","type":"address"}],"name":"balanceOf","outputs":[{"internalType":"uint256","name":"","type":"uint256"}],"stateMutability":"view","type":"function"},{"inputs":[{"internalType":"uint256","name":"tokenId","type":"uint256"}],"name":"getApproved","outputs":[{"internalType":"address","name":"","type":"address"}],"stateMutability":"view","type":"function"},{"inputs":[{"internalType":"address","name":"owner","type":"address"},{"internalType":"address","name":"operator","type":"address"}],"name":"isApprovedForAll","outputs":[{"internalType":"bool","name":"","type":"bool"}],"stateMutability":"view","type":"function"},{"inputs":[],"name":"name","outputs":[{"internalType":"string","name":"","type":"string"}],"stateMutability":"view","type":"function"},{"inputs":[],"name":"owner","outputs":[{"internalType":"address","name":"","type":"address"}],"stateMutability":"view","type":"function"},{"inputs":[{"internalType":"uint256","name":"tokenId","type":"uint256"}],"name":"ownerOf","outputs":[{"internalType":"address","name":"","type":"address"}],"stateMutability":"view","type":"function"},{"inputs":[],"name":"renounceOwnership","outputs":[],"stateMutability":"nonpayable","type":"function"},{"inputs":[{"internalType":"address","name":"from","type":"address"},{"internalType":"address","name":"to","type":"address"},{"internalType":"uint256","name":"tokenId","type":"uint256"}],"name":"safeTransferFrom","outputs":[],"stateMutability":"nonpayable","type":"function"},{"inputs":[{"internalType":"address","name":"from","type":"address"},{"internalType":"address","name":"to","type":"address"},{"internalType":"uint256","name":"tokenId","type":"uint256"},{"internalType":"bytes","name":"data","type":"bytes"}],"name":"safeTransferFrom","outputs":[],"stateMutability":"nonpayable","type":"function"},{"inputs":[{"internalType":"address","name":"operator","type":"address"},{"internalType":"bool","name":"approved","type":"bool"}],"name":"setApprovalForAll","outputs":[],"stateMutability":"nonpayable","type":"function"},{"inputs":[{"internalType":"bytes4","name":"interfaceId","type":"bytes4"}],"name":"supportsInterface","outputs":[{"internalType":"bool","name":"","type":"bool"}],"stateMutability":"view","type":"function"},{"inputs":[],"name":"symbol","outputs":[{"internalType":"string","name":"","type":"string"}],"stateMutability":"view","type":"function"},{"inputs":[{"internalType":"address","name":"to","type":"address"},{"internalType":"string","name":"name","type":"string"},{"internalType":"string","name":"emoji","type":"string"},{"internalType":"string","name":"description","type":"string"},{"internalType":"uint8","name":"stinkLevel","type":"uint8"}],"name":"throwTrash","outputs":[{"internalType":"uint256","name":"","type":"uint256"}],"stateMutability":"nonpayable","type":"function"},{"inputs":[{"internalType":"uint256","name":"index","type":"uint256"}],"name":"tokenByIndex","outputs":[{"internalType":"uint256","name":"","type":"uint256"}],"stateMutability":"view","type":"function"},{"inputs":[{"internalType":"address","name":"owner","type":"address"},{"internalType":"uint256","name":"index","type":"uint256"}],"name":"tokenOfOwnerByIndex","outputs":[{"internalType":"uint256","name":"","type":"uint256"}],"stateMutability":"view","type":"function"},{"inputs":[{"internalType":"uint256","name":"tokenId","type":"uint256"}],"name":"tokenURI","outputs":[{"internalType":"string","name":"","type":"string"}],"stateMutability":"view","type":"function"},{"inputs":[],"name":"totalSupply","outputs":[{"internalType":"uint256","name":"","type":"uint256"}],"stateMutability":"view","type":"function"},{"inputs":[{"internalType":"address","name":"from","type":"address"},{"internalType":"address","name":"to","type":"address"},{"internalType":"uint256","name":"tokenId","type":"uint256"}],"name":"transferFrom","outputs":[],"stateMutability":"nonpayable","type":"function"},{"inputs":[{"internalType":"address","name":"newOwner","type":"address"}],"name":"transferOwnership","outputs":[],"stateMutability":"nonpayable","type":"function"},{"inputs":[{"internalType":"uint256","name":"","type":"uint256"}],"name":"trashData","outputs":[{"internalType":"string","name":"name","type":"string"},{"internalType":"string","name":"emoji","type":"string"},{"internalType":"string","name":"description","type":"string"},{"internalType":"uint8","name":"stinkLevel","type":"uint8"},{"internalType":"uint256","name":"thrownAt","type":"uint256"},{"internalType":"address","name":"thrownBy","type":"address"}],"stateMutability":"view","type":"function"}],"evm":{"bytecode":{"linkReferences":{},"object":"60803462000377576001600160401b0390604081810183811183821017620003615781526009825260209168151c985cda0813919560ba1b83820152815193828501858110828211176200036157835260058552640a8a482a6960db1b84860152815181811162000361576000948554916001948584811c9416801562000356575b8385101462000342578190601f94858111620002ef575b5083908583116001146200028b5789926200027f575b5050600019600383901b1c191690851b1786555b86519283116200026b5783548481811c9116801562000260575b828210146200024c5782811162000204575b50809183116001146200019d57508495829394959262000191575b5050600019600383901b1c191690821b1790555b33156200017957600b8054336001600160a01b03198216811790925591519290916001600160a01b0316907f8be0079c531659141344cd1fd0a4f28419497f9722a3daafe3b4186f6b6457e09080a36138f690816200037d8239f35b51631e4fbdf760e01b81526004810191909152602490fd5b01519050388062000109565b90601f198316968487528287209287905b898210620001ec575050838596979810620001d2575b505050811b0190556200011d565b015160001960f88460031b161c19169055388080620001c4565b808785968294968601518155019501930190620001ae565b8487528187208380860160051c82019284871062000242575b0160051c019085905b82811062000236575050620000ee565b88815501859062000226565b925081926200021d565b634e487b7160e01b87526022600452602487fd5b90607f1690620000dc565b634e487b7160e01b86526041600452602486fd5b015190503880620000ae565b898052848a208894509190601f1984168b5b87828210620002d85750508411620002be575b505050811b018655620000c2565b015160001960f88460031b161c19169055388080620002b0565b8385015186558b979095019493840193016200029d565b9091508880528389208580850160051c82019286861062000338575b918991869594930160051c01915b8281106200032957505062000098565b8b815585945089910162000319565b925081926200030b565b634e487b7160e01b88526022600452602488fd5b93607f169362000081565b634e487b7160e01b600052604160045260246000fd5b600080fdfe608080604052600436101561001357600080fd5b60003560e01c90816301ffc9a714612a365750806306fdde0314612993578063081812fc14612955578063095ea7b31461286e57806318160ddd1461285057806323b872dd146128395780632f745c59146127b557806342842e0e146127875780634f6ccce7146127315780636352211e1461270157806370a08231146126d6578063715018a6146126795780637c63f279146125cb5780638da5cb5b146125a257806395d89b41146124d7578063a22cb46514612432578063b15bf9a814611b02578063b88d4fde14611a95578063c87b56dd146101ef578063e985e9c5146101995763f2fde38b1461010657600080fd5b346101945760203660031901126101945761011f612b1d565b610127612d77565b6001600160a01b0390811690811561017b57600b54826bffffffffffffffffffffffff60a01b821617600b55167f8be0079c531659141344cd1fd0a4f28419497f9722a3daafe3b4186f6b6457e0600080a3005b604051631e4fbdf760e01b815260006004820152602490fd5b600080fd5b34610194576040366003190112610194576101b2612b1d565b6101ba612b33565b9060018060a01b03809116600052600560205260406000209116600052602052602060ff604060002054166040519015158152f35b346101945760203660031901126101945760043561020c81613087565b50600052600d60205260406000206040519061022782612bb8565b61023081612c61565b825261023e60018201612c61565b602083015261024f60028201612c61565b6040830152600381015460ff1660608301819052600482015460808401526005909101546001600160a01b031660a08301526007811115611a43575060405161029781612bee565b60078152660234646303030360cc1b60208201525b81516040516102d8602082816102cb8183019687815193849201612ad5565b8101038084520182612c40565b5190206040516ee8bc9de3818fe38186e38293e381a160881b6020820152600f815261030381612bee565b602081519101201480156119f0575b80156119cb5760405161032481612bee565b60078152660234646443730360cc1b60208201525b8351604051610358602082816102cb8183019687815193849201612ad5565b5190206040516b1cd3901cf6b05cb0b6bcb33560a31b60208201908152600c82529061038381612bee565b519020148015611978575b1561196e5760405161039f81612bee565b6004815263f09f92a960e01b60208201525b6103c160ff606087015116613522565b6103d160ff606088015116613371565b93610422603060405180976c029ba34b735902632bb32b61d1609d1b6020830152610406815180926020602d86019101612ad5565b81016202f31360ec1b602d820152036010810188520186612c40565b1561194957604080517f3c7465787420783d223132302220793d223132302220666f6e742d73697a653d60208201527f223330222066696c6c3d222346464437303022206f7061636974793d22302e399181019190915261111f60f11b6060820152621c539560eb1b60628201526000805160206138a183398151915260658201527f2076616c7565733d22302e353b313b302e3522206475723d22302e357322207260858201527f6570656174436f756e743d22696e646566696e697465222f3e0000000000000060a582015260008051602061384183398151915260be82015260008051602061382183398151915260de8201527f22302e383b312e323b302e3822206475723d22302e357322207265706561744360fe8201527237bab73a1e9134b73232b334b734ba3291179f60691b61011e820152661e17ba32bc3a1f60c91b6101318201526101188152936001600160401b0361014086019081119086111761193357610140850160408190527f3c7465787420783d223238302220793d223132302220666f6e742d73697a653d6101608701527f223330222066696c6c3d222346464437303022206f7061636974793d22302e3961018087015261111f60f11b6101a0870152621c539560eb1b6101a28701526000805160206138a18339815191526101a58701527f2076616c7565733d22302e353b313b302e3522206475723d22302e35732220626101c58701527f6567696e3d22302e3235732220726570656174436f756e743d22696e646566696101e5870152663734ba3291179f60c91b61020587015260008051602061384183398151915261020c87015260008051602061382183398151915261022c8701527f22302e383b312e323b302e3822206475723d22302e35732220626567696e3d2261024c8701527f302e3235732220726570656174436f756e743d22696e646566696e697465222f61026c870152601f60f91b61028c870152661e17ba32bc3a1f60c91b61028d870152610134815261137d95602095611286936101059391929091611110919061072990612c09565b610d8189604051927f3c7465787420783d223130302220793d223230302220666f6e742d73697a653d828501527f223235222066696c6c3d222346464437303022206f7061636974793d22302e38604085015261111f60f11b6060850152621c539560eb1b60628501526000805160206138a183398151915260658501527f2076616c7565733d22302e333b313b302e3322206475723d22302e367322206260858501527f6567696e3d22302e31732220726570656174436f756e743d22696e646566696e60a58501526534ba3291179f60d11b60c585015260008051602061384183398151915260cb85015260008051602061382183398151915260eb8501527f22302e373b312e333b302e3722206475723d22302e36732220626567696e3d2261010b8501527f302e31732220726570656174436f756e743d22696e646566696e697465222f3e61012b850152661e17ba32bc3a1f60c91b61014b850152610132845261089784612c09565b604080517f3c7465787420783d223330302220793d223230302220666f6e742d73697a653d848201527f223235222066696c6c3d222346464437303022206f7061636974793d22302e389181019190915261111f60f11b6060820152621c539560eb1b60628201526000805160206138a183398151915260658201527f2076616c7565733d22302e333b313b302e3322206475723d22302e367322206260858201527f6567696e3d22302e3335732220726570656174436f756e743d22696e6465666960a5820152663734ba3291179f60c91b60c582015260008051602061384183398151915260cc82015260008051602061382183398151915260ec8201527f22302e373b312e333b302e3722206475723d22302e36732220626567696e3d2261010c8201527f302e3335732220726570656174436f756e743d22696e646566696e697465222f61012c820152601f60f91b61014c820152661e17ba32bc3a1f60c91b61014d8201526101348152610a0f81612c09565b604080517f3c7465787420783d223135302220793d223235302220666f6e742d73697a653d858201527f223230222066696c6c3d222346464437303022206f7061636974793d22302e379181019190915261111f60f11b6060820152621c539560eb1b60628201526000805160206138a183398151915260658201527f2076616c7565733d22302e323b302e393b302e3222206475723d22302e37732260858201527f20626567696e3d22302e32732220726570656174436f756e743d22696e64656660a58201526734b734ba3291179f60c11b60c582015260008051602061384183398151915260cd82015260008051602061382183398151915260ed8201527f22302e363b312e343b302e3622206475723d22302e37732220626567696e3d2261010d8201527f302e32732220726570656174436f756e743d22696e646566696e697465222f3e61012d820152661e17ba32bc3a1f60c91b61014d8201526101348152610b7d81612c09565b604080517f3c7465787420783d223235302220793d223235302220666f6e742d73697a653d868201527f223230222066696c6c3d222346464437303022206f7061636974793d22302e379181019190915261111f60f11b6060820152621c539560eb1b60628201526000805160206138a183398151915260658201527f2076616c7565733d22302e323b302e393b302e3222206475723d22302e37732260858201527f20626567696e3d22302e3435732220726570656174436f756e743d22696e646560a5820152683334b734ba3291179f60b91b60c582015260008051602061384183398151915260ce82015260008051602061382183398151915260ee8201527f22302e363b312e343b302e3622206475723d22302e37732220626567696e3d2261010e8201527f302e3435732220726570656174436f756e743d22696e646566696e697465222f61012e820152601f60f91b61014e820152661e17ba32bc3a1f60c91b61014f820152610136815291610cf883612c09565b6040519684889551610d0f818989018a8501612ad5565b8601610d2961014083015180936101608b85019101612ad5565b01610d3c82518093898085019101612ad5565b01610d4f82518093888085019101612ad5565b01610d6282518093878085019101612ad5565b01610d7582518093868085019101612ad5565b01038084520182612c40565b60405180987f3c3f786d6c2076657273696f6e3d22312e302220656e636f64696e673d2255548b8301526523169c111f9f60d11b60408301527f3c73766720786d6c6e733d22687474703a2f2f7777772e77332e6f72672f323060468301527f30302f737667222076696577426f783d2230203020343030203430302220776960668301527f6474683d2234303022206865696768743d22343030223e0000000000000000006086830152651e3232b3399f60d11b609d8301527f3c72616469616c4772616469656e742069643d226267222063783d223530252260a3830152711031bc9e911a98129110391e911a9812911f60711b60c38301527f3c73746f70206f66667365743d22302522207374796c653d2273746f702d636f60d58301526d3637b91d1198b09830993291179f60911b60f58301527f3c73746f70206f66667365743d223130302522207374796c653d2273746f702d6101038301526f31b7b637b91d1198331833183311179f60811b610123830152701e17b930b234b0b623b930b234b2b73a1f60791b610133830152711e3334b63a32b91034b21e9133b637bb911f60711b6101448301527f3c6665476175737369616e426c757220737464446576696174696f6e3d2233226101568301527f20726573756c743d22636f6c6f726564426c7572222f3e0000000000000000006101768301527f3c66654d657267653e3c66654d657267654e6f646520696e3d22636f6c6f726561018d8301527f64426c7572222f3e3c66654d657267654e6f646520696e3d22536f75726365476101ad830152723930b83434b191179f1e17b332a6b2b933b29f60691b6101cd830152681e17b334b63a32b91f60b91b6101e0830152661e17b232b3399f60c91b6101e98301527f3c726563742077696474683d2234303022206865696768743d223430302220666101f08301526f34b6361e913ab9361411b1339491179f60811b6102108301527f3c7465787420783d223230302220793d223138302220746578742d616e63686f6102208301527f723d226d6964646c652220666f6e742d73697a653d22313230222066696c74656102408301527f723d2275726c2823676c6f7729222066696c6c3d2223464646464646223e0000610260830152661e17ba32bc3a1f60c91b81516110e48161027e948f8688019101612ad5565b83019182015282519061110082610285958e8785019101612ad5565b0103610265810189520187612c40565b8951604051998a937f3c7465787420783d223230302220793d223236302220746578742d616e63686f8a8601527f723d226d6964646c652220666f6e742d73697a653d223234222066696c6c3d226040860152611176815180928c606089019101612ad5565b8401917f2220666f6e742d66616d696c793d22417269616c2c2073616e732d7365726966928360608201527411103337b73a16bbb2b4b3b43a1e913137b632111f60591b60808201526111d2825180938d609585019101612ad5565b01661e17ba32bc3a1f60c91b60958201527f3c7465787420783d223230302220793d223330302220746578742d616e63686f609c8201527f723d226d6964646c652220666f6e742d73697a653d223136222066696c6c3d2260bc820152611242825180938c60dc85019101612ad5565b019060dc82015261111f60f11b60fc820152611267825180938a60fe85019101612ad5565b01661e17ba32bc3a1f60c91b60fe8201520360e5810188520186612c40565b611351609c604051836112a28295518092898086019101612ad5565b81017f3c7465787420783d223230302220793d223338302220746578742d616e63686f878201527f723d226d6964646c652220666f6e742d73697a653d223132222066696c6c3d2260408201527f233636362220666f6e742d66616d696c793d22417269616c2c2073616e732d7360608201527532b934b3111f2a2920a9a41027232a1e17ba32bc3a1f60511b6080820152651e17b9bb339f60d11b609682015203607c810184520182612c40565b60405194826113698794518092878088019101612ad5565b8301610d6282518093878085019101612ad5565b6020820151916113f2602d825194604051958691693d913730b6b2911d101160b11b60208401526113b8815180926020602a87019101612ad5565b8201600160fd1b602a8201526113d8825180936020602b85019101612ad5565b0161088b60f21b602b82015203600d810186520184612c40565b60408101519061140860ff606083015116613371565b60a08201516040519591906001600160a01b03168061142688612c25565b602a885260403660208a013787511561191d576030602089015387516001101561191d576078602189015360295b600181116118be575061189f5761189b611834886117f98961181460208b8b6116336118088d61152960538f6040519c8d918a8301996f113232b9b1b934b83a34b7b7111d101160811b8b526114b3815180928e603088019101612ad5565b83016f0103e1029ba34b735902632bb32b61d160851b60308201526114e1825180938e604085019101612ad5565b01700179898103e102a343937bbb710313c9d1607d1b604082015261150f825180938d605185019101612ad5565b0161088b60f21b605182015203603381018d52018b612c40565b611667602f6040519b61153b8d612c25565b60408d526115967f4142434445464748494a4b4c4d4e4f505152535455565758595a6162636465669d8e8b8201527f6768696a6b6c6d6e6f707172737475767778797a303132333435363738392b2f9c8d6040830152613279565b6040516116036046828d8101947f22696d616765223a2022646174613a696d6167652f7376672b786d6c3b626173865263194d8d0b60e21b60408301526115e881516020928193604486019101612ad5565b810161088b60f21b6044820152036026810184520182612c40565b6116416040519a8b946116338e6116238189019b8c815193849201612ad5565b870191518f938194840190612ad5565b01915180938d840190612ad5565b016e2261747472696275746573223a205b60881b8a82015203600f810188520186612c40565b6117e7602261167c60ff606088015116613371565b95604051906116fb60808b8401997f7b2274726169745f74797065223a20225374696e6b204c6576656c222c2022768b5266030b63ab2911d160cd1b60408601526116d0815180928f604789019101612ad5565b8401926116f4604986611f4b60f21b96876047820152036029810188520186612c40565b0151613371565b611765604760405180948e8201947f7b2274726169745f74797065223a20225468726f776e204174222c202276616c86526403ab2911d160dd1b604084015261174f81516020928193604587019101612ad5565b8201906045820152036027810185520183612c40565b6117ce6040519161177583612c25565b602c83528c8301937f7b2274726169745f74797065223a202243617465676f7279222c202276616c7585526b65223a20225472617368227d60a01b60408501526040519a8b968f6116239089019e8f9251928391612ad5565b01615d7d60f01b8a820152036002810186520184612c40565b60405198899551809288880190612ad5565b84019151809386840190612ad5565b01038085520183612c40565b6040519261182184612c25565b6040845260208401526040830152613279565b611887603d60405180937f646174613a6170706c69636174696f6e2f6a736f6e3b6261736536342c00000060208301526118778151809260208686019101612ad5565b810103601d810184520182612c40565b604051918291602083526020830190612af8565b0390f35b6044906040519063e22e27eb60e01b8252600482015260146024820152fd5b906010600f8216101561191d57885182101561191d576f181899199a1a9b1b9c1cb0b131b232b360811b600f82161a8983016020015360041c9080156119075760001901611454565b634e487b7160e01b600052601160045260246000fd5b634e487b7160e01b600052603260045260246000fd5b634e487b7160e01b600052604160045260246000fd5b61128661010560209461137d9661111060405161196581612bd3565b60008152610d81565b60208401516103b1565b508351604051611998602082816102cb8183019687815193849201612ad5565b51902060405160208101906b2334b730b6102bb2b0b837b760a11b8252600c81526119c281612bee565b5190201461038e565b6040516119d781612bee565b60078152660233441444538360cc1b6020820152610339565b508151604051611a10602082816102cb8183019687815193849201612ad5565b51902060405160208101906b05368696e696e6720506f6f760a41b8252600c8152611a3a81612bee565b51902014610312565b60041015611a7057604051611a5781612bee565b60078152660234646383830360cc1b60208201526102ac565b604051611a7c81612bee565b60078152660233838464630360cc1b60208201526102ac565b3461019457608036600319011261019457611aae612b1d565b611ab6612b33565b90604435606435926001600160401b038411610194573660238501121561019457611aee611b00943690602481600401359101612d22565b92611afa838383612ddc565b336130f9565b005b346101945760a036600319011261019457611b1b612b1d565b6024356001600160401b03811161019457611b3a903690600401612d59565b6044356001600160401b03811161019457611b59903690600401612d59565b906064356001600160401b03811161019457611b79903690600401612d59565b916084359060ff82168203610194576001600160a01b038516156123ee57600a60ff83161161239d5782511561235f57600c549360001985146119075760018501600c5560405191611bca83612bb8565b8483526020830152604082015260ff821660608201524260808201523360a082015283600052600d602052604060002081518051906001600160401b038211611933578190611c198454612b7e565b601f811161230f575b50602090601f83116001146122a95760009261229e575b50508160011b916000199060031b1c19161781555b60208201518051906001600160401b038211611933578190611c736001850154612b7e565b601f811161224b575b50602090601f83116001146121de576000926121d3575b50508160011b916000199060031b1c19161760018201555b60408201518051906001600160401b03821161193357611cce6002840154612b7e565b601f811161218c575b50602090601f83116001146121195760059392916000918361210e575b50508160011b916000199060031b1c19161760028201555b6003810160ff60608501511660ff1982541617905560808301516004820155019060a0600180821b0391015116906bffffffffffffffffffffffff60a01b918282541617905560405190611d5f82612bd3565b6000808352858152600260205260409020546001600160a01b03168015801592836120d7575b6001600160a01b0389166000818152600360209081526040808320805460010190558b83526002909152812080549093168217909255889184907fddf252ad1be2c89b69c2b068fc378daa952ba7f163c4a11628f55a4df523b3ef9080a4156120475760095486600052600a60205280604060002055600160401b8110156119335786611e1b826001611e3494016009556130c2565b90919082549060031b91821b91600019901b1916179055565b6001600160a01b03871603611ffa575b611fe157843b611eab575b50827f0865d562d0b6b74e1077f5025ae1b9834ba89af77c7f1444cbdb18cbef8c352760209560ff611e8c60405196604088526040880190612af8565b9416858801526001600160a01b031693339381900390a4604051908152f35b60405160208180611ee5630a85bd0160e11b9586835233600484015260006024840152896044840152608060648401526084830190612af8565b038160006001600160a01b038b165af160009181611f9c575b50611f6657853d15611f5e573d90611f1582612d07565b91611f236040519384612c40565b82523d6000602084013e5b81519182611f5757604051633250574960e11b81526001600160a01b0383166004820152602490fd5b6020915001fd5b606090611f2e565b6001600160e01b03191603611f7b5782611e4f565b604051633250574960e11b81526001600160a01b0385166004820152602490fd5b9091506020813d602011611fd9575b81611fb860209383612c40565b8101031261019457516001600160e01b031981168103610194579087611efe565b3d9150611fab565b6040516339e3563760e11b815260006004820152602490fd5b61200386612da3565b60001981019081116119075760018060a01b038716600052600760205260406000208160005260205285604060002055856000526008602052604060002055611e44565b6001600160a01b0387168114611e345761206081612da3565b866000526008602052604060002054908260005260076020526040600020918181036120aa575b508760005260086020526000604081205560005260205260006040812055611e34565b81600052826020526040600020548160005280604060002055600052600860205260406000205589612087565b600088815260046020526040902080546001600160a01b031916905582600052600360205260406000206000198154019055611d85565b015190508980611cf4565b906002840160005260206000209160005b601f1985168110612174575091839160019360059695601f1981161061215b575b505050811b016002820155611d0c565b015160001960f88460031b161c1916905589808061214b565b9192602060018192868501518155019401920161212a565b600284016000526020600020601f840160051c8101602085106121cc575b601f830160051c820181106121c0575050611cd7565b600081556001016121aa565b50806121aa565b015190508880611c93565b600185016000908152602081209350601f198516905b818110612233575090846001959493921061221a575b505050811b016001820155611cab565b015160001960f88460031b161c1916905588808061220a565b929360206001819287860151815501950193016121f4565b909150600184016000526020600020601f840160051c810160208510612297575b90849392915b601f830160051c82018110612288575050611c7c565b60008155859450600101612272565b508061226c565b015190508880611c39565b6000858152602081209350601f198516905b8181106122f757509084600195949392106122de575b505050811b018155611c4e565b015160001960f88460031b161c191690558880806122d1565b929360206001819287860151815501950193016122bb565b909150836000526020600020601f840160051c810160208510612358575b90849392915b601f830160051c82018110612349575050611c22565b60008155859450600101612333565b508061232d565b60405162461bcd60e51b81526020600482015260166024820152755472617368206d75737420686176652061206e616d6560501b6044820152606490fd5b60405162461bcd60e51b815260206004820152602360248201527f5374696e6b206c6576656c20746f6f2068696768206576656e20666f722074726044820152620c2e6d60eb1b6064820152608490fd5b606460405162461bcd60e51b815260206004820152602060248201527f43616e6e6f74207468726f7720747261736820696e746f2074686520766f69646044820152fd5b346101945760403660031901126101945761244b612b1d565b60243590811515809203610194576001600160a01b03169081156124be57336000526005602052604060002082600052602052604060002060ff1981541660ff83161790556040519081527f17307eab39ab6107e8899845ad3d59bd9653f200f220920489ca2b5937696c3160203392a3005b604051630b61174360e31b815260048101839052602490fd5b3461019457600036600319011261019457604051600060018054906124fb82612b7e565b8085529181811690811561257b5750600114612522575b61189b8461188781860382612c40565b600081815292507fb10e2d527612073b26eecdfd717e6a320cf44b4afac2b0732d9fcbe2b7fa0cf65b82841061256357505050810160200161188782612512565b8054602085870181019190915290930192810161254b565b60ff191660208087019190915292151560051b850190920192506118879150839050612512565b3461019457600036600319011261019457600b546040516001600160a01b039091168152602090f35b3461019457602036600319011261019457600435600052600d60205261264960406000206125f881612c61565b9061260560018201612c61565b61261160028301612c61565b9161266560ff60038301541693612657600484015493600560018060a01b03910154169460405198899860c08a5260c08a0190612af8565b9088820360208a0152612af8565b908682036040880152612af8565b926060850152608084015260a08301520390f35b3461019457600036600319011261019457612692612d77565b600b80546001600160a01b031981169091556000906001600160a01b03167f8be0079c531659141344cd1fd0a4f28419497f9722a3daafe3b4186f6b6457e08280a3005b346101945760203660031901126101945760206126f96126f4612b1d565b612da3565b604051908152f35b3461019457602036600319011261019457602061271f600435613087565b6040516001600160a01b039091168152f35b3461019457602036600319011261019457600435600c548110156127685761275a6020916130c2565b90546040519160031b1c8152f35b6044906040519063295f44f760e21b8252600060048301526024820152fd5b3461019457611b0061279836612b49565b90604051926127a684612bd3565b60008452611afa838383612ddc565b34610194576040366003190112610194576127ce612b1d565b602435906127db81612da3565b82101561280e5760018060a01b031660005260076020526040600020906000526020526020604060002054604051908152f35b60405163295f44f760e21b81526001600160a01b039190911660048201526024810191909152604490fd5b3461019457611b0061284a36612b49565b91612ddc565b34610194576000366003190112610194576020600c54604051908152f35b3461019457604036600319011261019457612887612b1d565b60243561289381613087565b33151580612942575b80612915575b6128fd576001600160a01b039283169282918491167f8c5be1e5ebec7d5bd14f71427d1e84f3dd0314c0f7b2291e5b200ac8c7c3b925600080a4600090815260046020526040902080546001600160a01b0319169091179055005b60405163a9fbf51f60e01b8152336004820152602490fd5b5060018060a01b038116600052600560205260406000203360005260205260ff60406000205416156128a2565b506001600160a01b03811633141561289c565b346101945760203660031901126101945760043561297281613087565b506000526004602052602060018060a01b0360406000205416604051908152f35b3461019457600036600319011261019457604051600080546129b481612b7e565b8084529060019081811690811561257b57506001146129dd5761189b8461188781860382612c40565b600080805292507f290decd9548b62a8d60345a988386fc84ba6bc95484008f6362f93160ef3e5635b828410612a1e57505050810160200161188782612512565b80546020858701810191909152909301928101612a06565b34610194576020366003190112610194576004359063ffffffff60e01b82168092036101945760209163780e9d6360e01b8114908115612a78575b5015158152f35b632483248360e11b811491508115612a92575b5083612a71565b6380ac58cd60e01b811491508115612ac4575b8115612ab3575b5083612a8b565b6301ffc9a760e01b14905083612aac565b635b5e139f60e01b81149150612aa5565b60005b838110612ae85750506000910152565b8181015183820152602001612ad8565b90602091612b1181518092818552858086019101612ad5565b601f01601f1916010190565b600435906001600160a01b038216820361019457565b602435906001600160a01b038216820361019457565b6060906003190112610194576001600160a01b0390600435828116810361019457916024359081168103610194579060443590565b90600182811c92168015612bae575b6020831014612b9857565b634e487b7160e01b600052602260045260246000fd5b91607f1691612b8d565b60c081019081106001600160401b0382111761193357604052565b602081019081106001600160401b0382111761193357604052565b604081019081106001600160401b0382111761193357604052565b61016081019081106001600160401b0382111761193357604052565b606081019081106001600160401b0382111761193357604052565b90601f801991011681019081106001600160401b0382111761193357604052565b9060405191826000825492612c7584612b7e565b908184526001948581169081600014612ce45750600114612ca1575b5050612c9f92500383612c40565b565b9093915060005260209081600020936000915b818310612ccc575050612c9f93508201013880612c91565b85548884018501529485019487945091830191612cb4565b915050612c9f94506020925060ff191682840152151560051b8201013880612c91565b6001600160401b03811161193357601f01601f191660200190565b929192612d2e82612d07565b91612d3c6040519384612c40565b829481845281830111610194578281602093846000960137010152565b9080601f8301121561019457816020612d7493359101612d22565b90565b600b546001600160a01b03163303612d8b57565b60405163118cdaa760e01b8152336004820152602490fd5b6001600160a01b03168015612dc357600052600360205260406000205490565b6040516322718ad960e21b815260006004820152602490fd5b6001600160a01b038281169391841561306e57600094838652602095600287526040968488832054169633151580612fe0575b5087158015612fad575b84845260038352898420805460010190558784526002835289842080546001600160a01b0319168617905587858a7fddf252ad1be2c89b69c2b068fc378daa952ba7f163c4a11628f55a4df523b3ef8780a415612f4157600954878452600a8352808a852055600160401b811015612f2d5787611e1b826001612e9f94016009556130c2565b838803612edb575b505050501692838303612eba5750505050565b6064945051926364283d7b60e01b8452600484015260248301526044820152fd5b612ee490612da3565b600019810193908411612f195782916008918a9452600781528383208584528152878484205587835252205538808080612ea7565b634e487b7160e01b83526011600452602483fd5b634e487b7160e01b84526041600452602484fd5b878414612e9f57612f5188612da3565b878452600883528984205490898552600784528a852091818103612f8b575b5088855260088452848b812055845282528289812055612e9f565b8186528285528b862054818752808d8820558652600885528b86205538612f70565b600088815260046020526040902080546001600160a01b0319169055888452600383528984208054600019019055612e19565b8061302d575b15612ff15738612e0f565b88878961300e576024915190637e27328960e01b82526004820152fd5b905163177e802f60e01b81523360048201526024810191909152604490fd5b503388148015613052575b80612fe657508683526004825233868a8520541614612fe6565b5087835260058252888320338452825260ff8984205416613038565b604051633250574960e11b815260006004820152602490fd5b6000818152600260205260409020546001600160a01b03169081156130aa575090565b60249060405190637e27328960e01b82526004820152fd5b60095481101561191d5760096000527f6e1540171b6c0c960b71a7020d9f60077f6af931a8bbf590da0223dacf75c7af0190600090565b90939192833b61310b575b5050505050565b604051630a85bd0160e11b8082526001600160a01b039384166004830152958316602482015260448101919091526080606482015294921692602092918590613158906084830190612af8565b039483816000978189895af1869181613203575b506131cd575050503d6000146131c4573d61318681612d07565b906131946040519283612c40565b81528093823d92013e5b825192836131bf57604051633250574960e11b815260048101849052602490fd5b019050fd5b6060925061319e565b919450915063ffffffff60e01b16036131eb57503880808080613104565b60249060405190633250574960e11b82526004820152fd5b9091508481813d8311613240575b61321b8183612c40565b8101031261323c57516001600160e01b03198116810361323c57903861316c565b8680fd5b503d613211565b9061325182612d07565b61325e6040519182612c40565b828152809261326f601f1991612d07565b0190602036910137565b80511561335c578051600291828201809211611907576003918290046001600160fe1b0381168103611907576132b2908495941b613247565b936020850193829183518401906020820192835194600085525b83811061330b5750505050525106806001146132f8576002146132ed575090565b603d90600019015390565b50603d9081600019820153600119015390565b87600491999293949901918251600190603f9082828260121c16880101518453828282600c1c16880101518385015382828260061c16880101518885015316850101518982015301979291906132cc565b505060405161336a81612bd3565b6000815290565b806000917a184f03e93ff9f4daa797ed6e38ed64bf6a1f010000000000000000808210156134a6575b506d04ee2d6d415b85acef810000000080831015613497575b50662386f26fc1000080831015613488575b506305f5e10080831015613479575b506127108083101561346a575b50606482101561345a575b600a80921015613450575b600190816021613408828701613247565b95860101905b61341a575b5050505090565b600019019083906f181899199a1a9b1b9c1cb0b131b232b360811b8282061a83530491821561344b5791908261340e565b613413565b91600101916133f7565b91906064600291049101916133ec565b600491939204910191386133e1565b600891939204910191386133d4565b601091939204910191386133c5565b602091939204910191386133b3565b60409350810491503861339a565b6000805160206138a183398151915281527f2076616c7565733d22302e363b302e323b302e3622206475723d22312e35732260208201527f20726570656174436f756e743d22696e646566696e697465222f3e3c2f706174604082015261341f60f11b606082015260620190565b600360ff8216106138135760011c607f166005811161380b575b604090815161354a81612bd3565b60008152825161355981612bd3565b60008152835161356881612bd3565b6000815292845161357881612bd3565b6000815260ff865161358981612bd3565b6000815292169560018710156137a4575b600287101561373d575b60038710156136d2575b866004612d7497981015613667575b600511156135f2575b5195869385516135de8160209889808a019101612ad5565b8501610d3c82518093898085019101612ad5565b809250517f3c7061746820643d224d3236302c31343020513237302c313230203236302c31602082015260008051602061388183398151915283820152600080516020613861833981519152606082015261366181613653608082016134b4565b03601f198101835282612c40565b916135c6565b9150600581517f3c7061746820643d224d3233302c31343020513234302c313230203233302c3160208201526000805160206138818339815191528382015260008051602061386183398151915260608201526136ca81613653608082016134b4565b9290506135bd565b612d74955080517f3c7061746820643d224d3230302c31343020513231302c313230203230302c31602082015260008051602061388183398151915282820152600080516020613861833981519152606082015261373681613653608082016134b4565b95506135ae565b809350517f3c7061746820643d224d3137302c31343020513138302c313230203137302c31602082015260008051602061388183398151915284820152600080516020613861833981519152606082015261379e81613653608082016134b4565b926135a4565b809450517f3c7061746820643d224d3134302c31343020513135302c313230203134302c31602082015260008051602061388183398151915285820152600080516020613861833981519152606082015261380581613653608082016134b4565b9361359a565b50600561353c565b5060405161336a81612bd356fe227472616e73666f726d2220747970653d227363616c65222076616c7565733d3c616e696d6174655472616e73666f726d206174747269627574654e616d653d683d2233222066696c6c3d226e6f6e6522206f7061636974793d22302e36223e303022207374726f6b653d222338344343313622207374726f6b652d776964743c616e696d617465206174747269627574654e616d653d226f70616369747922a26469706673582212204f39479dded9014c69fde137d48bc2925c8ec6c101fecfb9afcdc477938aef7a64736f6c63430008140033","opcodes":"PUSH1 0x80 CALLVALUE PUSH3 0x377 JUMPI PUSH1 0x1 PUSH1 0x1 PUSH1 0x40 SHL SUB SWAP1 PUSH1 0x40 DUP2 DUP2 ADD DUP4 DUP2 GT DUP4 DUP3 LT OR PUSH3 0x361 JUMPI DUP2 MSTORE PUSH1 0x9 DUP3 MSTORE PUSH1 0x20 SWAP2 PUSH9 0x151C985CDA08139195 PUSH1 0xBA SHL DUP4 DUP3 ADD MSTORE DUP2 MLOAD SWAP4 DUP3 DUP6 ADD DUP6 DUP2 LT DUP3 DUP3 GT OR PUSH3 0x361 JUMPI DUP4 MSTORE PUSH1 0x5 DUP6 MSTORE PUSH5 0xA8A482A69 PUSH1 0xDB SHL DUP5 DUP7 ADD MSTORE DUP2 MLOAD DUP2 DUP2 GT PUSH3 0x361 JUMPI PUSH1 0x0 SWAP5 DUP6 SLOAD SWAP2 PUSH1 0x1 SWAP5 DUP6 DUP5 DUP2 SHR SWAP5 AND DUP1 ISZERO PUSH3 0x356 JUMPI JUMPDEST DUP4 DUP6 LT EQ PUSH3 0x342 JUMPI DUP2 SWAP1 PUSH1 0x1F SWAP5 DUP6 DUP2 GT PUSH3 0x2EF JUMPI JUMPDEST POP DUP4 SWAP1 DUP6 DUP4 GT PUSH1 0x1 EQ PUSH3 0x28B JUMPI DUP10 SWAP3 PUSH3 0x27F JUMPI JUMPDEST POP POP PUSH1 0x0 NOT PUSH1 0x3 DUP4 SWAP1 SHL SHR NOT AND SWAP1 DUP6 SHL OR DUP7 SSTORE JUMPDEST DUP7 MLOAD SWAP3 DUP4 GT PUSH3 0x26B JUMPI DUP4 SLOAD DUP5 DUP2 DUP2 SHR SWAP2 AND DUP1 ISZERO PUSH3 0x260 JUMPI JUMPDEST DUP3 DUP3 LT EQ PUSH3 0x24C JUMPI DUP3 DUP2 GT PUSH3 0x204 JUMPI JUMPDEST POP DUP1 SWAP2 DUP4 GT PUSH1 0x1 EQ PUSH3 0x19D JUMPI POP DUP5 SWAP6 DUP3 SWAP4 SWAP5 SWAP6 SWAP3 PUSH3 0x191 JUMPI JUMPDEST POP POP PUSH1 0x0 NOT PUSH1 0x3 DUP4 SWAP1 SHL SHR NOT AND SWAP1 DUP3 SHL OR SWAP1 SSTORE JUMPDEST CALLER ISZERO PUSH3 0x179 JUMPI PUSH1 0xB DUP1 SLOAD CALLER PUSH1 0x1 PUSH1 0x1 PUSH1 0xA0 SHL SUB NOT DUP3 AND DUP2 OR SWAP1 SWAP3 SSTORE SWAP2 MLOAD SWAP3 SWAP1 SWAP2 PUSH1 0x1 PUSH1 0x1 PUSH1 0xA0 SHL SUB AND SWAP1 PUSH32 0x8BE0079C531659141344CD1FD0A4F28419497F9722A3DAAFE3B4186F6B6457E0 SWAP1 DUP1 LOG3 PUSH2 0x38F6 SWAP1 DUP2 PUSH3 0x37D DUP3 CODECOPY RETURN JUMPDEST MLOAD PUSH4 0x1E4FBDF7 PUSH1 0xE0 SHL DUP2 MSTORE PUSH1 0x4 DUP2 ADD SWAP2 SWAP1 SWAP2 MSTORE PUSH1 0x24 SWAP1 REVERT JUMPDEST ADD MLOAD SWAP1 POP CODESIZE DUP1 PUSH3 0x109 JUMP JUMPDEST SWAP1 PUSH1 0x1F NOT DUP4 AND SWAP7 DUP5 DUP8 MSTORE DUP3 DUP8 KECCAK256 SWAP3 DUP8 SWAP1 JUMPDEST DUP10 DUP3 LT PUSH3 0x1EC JUMPI POP POP DUP4 DUP6 SWAP7 SWAP8 SWAP9 LT PUSH3 0x1D2 JUMPI JUMPDEST POP POP POP DUP2 SHL ADD SWAP1 SSTORE PUSH3 0x11D JUMP JUMPDEST ADD MLOAD PUSH1 0x0 NOT PUSH1 0xF8 DUP5 PUSH1 0x3 SHL AND SHR NOT AND SWAP1 SSTORE CODESIZE DUP1 DUP1 PUSH3 0x1C4 JUMP JUMPDEST DUP1 DUP8 DUP6 SWAP7 DUP3 SWAP5 SWAP7 DUP7 ADD MLOAD DUP2 SSTORE ADD SWAP6 ADD SWAP4 ADD SWAP1 PUSH3 0x1AE JUMP JUMPDEST DUP5 DUP8 MSTORE DUP2 DUP8 KECCAK256 DUP4 DUP1 DUP7 ADD PUSH1 0x5 SHR DUP3 ADD SWAP3 DUP5 DUP8 LT PUSH3 0x242 JUMPI JUMPDEST ADD PUSH1 0x5 SHR ADD SWAP1 DUP6 SWAP1 JUMPDEST DUP3 DUP2 LT PUSH3 0x236 JUMPI POP POP PUSH3 0xEE JUMP JUMPDEST DUP9 DUP2 SSTORE ADD DUP6 SWAP1 PUSH3 0x226 JUMP JUMPDEST SWAP3 POP DUP2 SWAP3 PUSH3 0x21D JUMP JUMPDEST PUSH4 0x4E487B71 PUSH1 0xE0 SHL DUP8 MSTORE PUSH1 0x22 PUSH1 0x4 MSTORE PUSH1 0x24 DUP8 REVERT JUMPDEST SWAP1 PUSH1 0x7F AND SWAP1 PUSH3 0xDC JUMP JUMPDEST PUSH4 0x4E487B71 PUSH1 0xE0 SHL DUP7 MSTORE PUSH1 0x41 PUSH1 0x4 MSTORE PUSH1 0x24 DUP7 REVERT JUMPDEST ADD MLOAD SWAP1 POP CODESIZE DUP1 PUSH3 0xAE JUMP JUMPDEST DUP10 DUP1 MSTORE DUP5 DUP11 KECCAK256 DUP9 SWAP5 POP SWAP2 SWAP1 PUSH1 0x1F NOT DUP5 AND DUP12 JUMPDEST DUP8 DUP3 DUP3 LT PUSH3 0x2D8 JUMPI POP POP DUP5 GT PUSH3 0x2BE JUMPI JUMPDEST POP POP POP DUP2 SHL ADD DUP7 SSTORE PUSH3 0xC2 JUMP JUMPDEST ADD MLOAD PUSH1 0x0 NOT PUSH1 0xF8 DUP5 PUSH1 0x3 SHL AND SHR NOT AND SWAP1 SSTORE CODESIZE DUP1 DUP1 PUSH3 0x2B0 JUMP JUMPDEST DUP4 DUP6 ADD MLOAD DUP7 SSTORE DUP12 SWAP8 SWAP1 SWAP6 ADD SWAP5 SWAP4 DUP5 ADD SWAP4 ADD PUSH3 0x29D JUMP JUMPDEST SWAP1 SWAP2 POP DUP9 DUP1 MSTORE DUP4 DUP10 KECCAK256 DUP6 DUP1 DUP6 ADD PUSH1 0x5 SHR DUP3 ADD SWAP3 DUP7 DUP7 LT PUSH3 0x338 JUMPI JUMPDEST SWAP2 DUP10 SWAP2 DUP7 SWAP6 SWAP5 SWAP4 ADD PUSH1 0x5 SHR ADD SWAP2 JUMPDEST DUP3 DUP2 LT PUSH3 0x329 JUMPI POP POP PUSH3 0x98 JUMP JUMPDEST DUP12 DUP2 SSTORE DUP6 SWAP5 POP DUP10 SWAP2 ADD PUSH3 0x319 JUMP JUMPDEST SWAP3 POP DUP2 SWAP3 PUSH3 0x30B JUMP JUMPDEST PUSH4 0x4E487B71 PUSH1 0xE0 SHL DUP9 MSTORE PUSH1 0x22 PUSH1 0x4 MSTORE PUSH1 0x24 DUP9 REVERT JUMPDEST SWAP4 PUSH1 0x7F AND SWAP4 PUSH3 0x81 JUMP JUMPDEST PUSH4 0x4E487B71 PUSH1 0xE0 SHL PUSH1 0x0 MSTORE PUSH1 0x41 PUSH1 0x4 MSTORE PUSH1 0x24 PUSH1 0x0 REVERT JUMPDEST PUSH1 0x0 DUP1 REVERT INVALID PUSH1 0x80 DUP1 PUSH1 0x40 MSTORE PUSH1 0x4 CALLDATASIZE LT ISZERO PUSH2 0x13 JUMPI PUSH1 0x0 DUP1 REVERT JUMPDEST PUSH1 0x0 CALLDATALOAD PUSH1 0xE0 SHR SWAP1 DUP2 PUSH4 0x1FFC9A7 EQ PUSH2 0x2A36 JUMPI POP DUP1 PUSH4 0x6FDDE03 EQ PUSH2 0x2993 JUMPI DUP1 PUSH4 0x81812FC EQ PUSH2 0x2955 JUMPI DUP1 PUSH4 0x95EA7B3 EQ PUSH2 0x286E JUMPI DUP1 PUSH4 0x18160DDD EQ PUSH2 0x2850 JUMPI DUP1 PUSH4 0x23B872DD EQ PUSH2 0x2839 JUMPI DUP1 PUSH4 0x2F745C59 EQ PUSH2 0x27B5 JUMPI DUP1 PUSH4 0x42842E0E EQ PUSH2 0x2787 JUMPI DUP1 PUSH4 0x4F6CCCE7 EQ PUSH2 0x2731 JUMPI DUP1 PUSH4 0x6352211E EQ PUSH2 0x2701 JUMPI DUP1 PUSH4 0x70A08231 EQ PUSH2 0x26D6 JUMPI DUP1 PUSH4 0x715018A6 EQ PUSH2 0x2679 JUMPI DUP1 PUSH4 0x7C63F279 EQ PUSH2 0x25CB JUMPI DUP1 PUSH4 0x8DA5CB5B EQ PUSH2 0x25A2 JUMPI DUP1 PUSH4 0x95D89B41 EQ PUSH2 0x24D7 JUMPI DUP1 PUSH4 0xA22CB465 EQ PUSH2 0x2432 JUMPI DUP1 PUSH4 0xB15BF9A8 EQ PUSH2 0x1B02 JUMPI DUP1 PUSH4 0xB88D4FDE EQ PUSH2 0x1A95 JUMPI DUP1 PUSH4 0xC87B56DD EQ PUSH2 0x1EF JUMPI DUP1 PUSH4 0xE985E9C5 EQ PUSH2 0x199 JUMPI PUSH4 0xF2FDE38B EQ PUSH2 0x106 JUMPI PUSH1 0x0 DUP1 REVERT JUMPDEST CALLVALUE PUSH2 0x194 JUMPI PUSH1 0x20 CALLDATASIZE PUSH1 0x3 NOT ADD SLT PUSH2 0x194 JUMPI PUSH2 0x11F PUSH2 0x2B1D JUMP JUMPDEST PUSH2 0x127 PUSH2 0x2D77 JUMP JUMPDEST PUSH1 0x1 PUSH1 0x1 PUSH1 0xA0 SHL SUB SWAP1 DUP2 AND SWAP1 DUP2 ISZERO PUSH2 0x17B JUMPI PUSH1 0xB SLOAD DUP3 PUSH12 0xFFFFFFFFFFFFFFFFFFFFFFFF PUSH1 0xA0 SHL DUP3 AND OR PUSH1 0xB SSTORE AND PUSH32 0x8BE0079C531659141344CD1FD0A4F28419497F9722A3DAAFE3B4186F6B6457E0 PUSH1 0x0 DUP1 LOG3 STOP JUMPDEST PUSH1 0x40 MLOAD PUSH4 0x1E4FBDF7 PUSH1 0xE0 SHL DUP2 MSTORE PUSH1 0x0 PUSH1 0x4 DUP3 ADD MSTORE PUSH1 0x24 SWAP1 REVERT JUMPDEST PUSH1 0x0 DUP1 REVERT JUMPDEST CALLVALUE PUSH2 0x194 JUMPI PUSH1 0x40 CALLDATASIZE PUSH1 0x3 NOT ADD SLT PUSH2 0x194 JUMPI PUSH2 0x1B2 PUSH2 0x2B1D JUMP JUMPDEST PUSH2 0x1BA PUSH2 0x2B33 JUMP JUMPDEST SWAP1 PUSH1 0x1 DUP1 PUSH1 0xA0 SHL SUB DUP1 SWAP2 AND PUSH1 0x0 MSTORE PUSH1 0x5 PUSH1 0x20 MSTORE PUSH1 0x40 PUSH1 0x0 KECCAK256 SWAP2 AND PUSH1 0x0 MSTORE PUSH1 0x20 MSTORE PUSH1 0x20 PUSH1 0xFF PUSH1 0x40 PUSH1 0x0 KECCAK256 SLOAD AND PUSH1 0x40 MLOAD SWAP1 ISZERO ISZERO DUP2 MSTORE RETURN JUMPDEST CALLVALUE PUSH2 0x194 JUMPI PUSH1 0x20 CALLDATASIZE PUSH1 0x3 NOT ADD SLT PUSH2 0x194 JUMPI PUSH1 0x4 CALLDATALOAD PUSH2 0x20C DUP2 PUSH2 0x3087 JUMP JUMPDEST POP PUSH1 0x0 MSTORE PUSH1 0xD PUSH1 0x20 MSTORE PUSH1 0x40 PUSH1 0x0 KECCAK256 PUSH1 0x40 MLOAD SWAP1 PUSH2 0x227 DUP3 PUSH2 0x2BB8 JUMP JUMPDEST PUSH2 0x230 DUP2 PUSH2 0x2C61 JUMP JUMPDEST DUP3 MSTORE PUSH2 0x23E PUSH1 0x1 DUP3 ADD PUSH2 0x2C61 JUMP JUMPDEST PUSH1 0x20 DUP4 ADD MSTORE PUSH2 0x24F PUSH1 0x2 DUP3 ADD PUSH2 0x2C61 JUMP JUMPDEST PUSH1 0x40 DUP4 ADD MSTORE PUSH1 0x3 DUP2 ADD SLOAD PUSH1 0xFF AND PUSH1 0x60 DUP4 ADD DUP2 SWAP1 MSTORE PUSH1 0x4 DUP3 ADD SLOAD PUSH1 0x80 DUP5 ADD MSTORE PUSH1 0x5 SWAP1 SWAP2 ADD SLOAD PUSH1 0x1 PUSH1 0x1 PUSH1 0xA0 SHL SUB AND PUSH1 0xA0 DUP4 ADD MSTORE PUSH1 0x7 DUP2 GT ISZERO PUSH2 0x1A43 JUMPI POP PUSH1 0x40 MLOAD PUSH2 0x297 DUP2 PUSH2 0x2BEE JUMP JUMPDEST PUSH1 0x7 DUP2 MSTORE PUSH7 0x2346463030303 PUSH1 0xCC SHL PUSH1 0x20 DUP3 ADD MSTORE JUMPDEST DUP2 MLOAD PUSH1 0x40 MLOAD PUSH2 0x2D8 PUSH1 0x20 DUP3 DUP2 PUSH2 0x2CB DUP2 DUP4 ADD SWAP7 DUP8 DUP2 MLOAD SWAP4 DUP5 SWAP3 ADD PUSH2 0x2AD5 JUMP JUMPDEST DUP2 ADD SUB DUP1 DUP5 MSTORE ADD DUP3 PUSH2 0x2C40 JUMP JUMPDEST MLOAD SWAP1 KECCAK256 PUSH1 0x40 MLOAD PUSH15 0xE8BC9DE3818FE38186E38293E381A1 PUSH1 0x88 SHL PUSH1 0x20 DUP3 ADD MSTORE PUSH1 0xF DUP2 MSTORE PUSH2 0x303 DUP2 PUSH2 0x2BEE JUMP JUMPDEST PUSH1 0x20 DUP2 MLOAD SWAP2 ADD KECCAK256 EQ DUP1 ISZERO PUSH2 0x19F0 JUMPI JUMPDEST DUP1 ISZERO PUSH2 0x19CB JUMPI PUSH1 0x40 MLOAD PUSH2 0x324 DUP2 PUSH2 0x2BEE JUMP JUMPDEST PUSH1 0x7 DUP2 MSTORE PUSH7 0x2346464437303 PUSH1 0xCC SHL PUSH1 0x20 DUP3 ADD MSTORE JUMPDEST DUP4 MLOAD PUSH1 0x40 MLOAD PUSH2 0x358 PUSH1 0x20 DUP3 DUP2 PUSH2 0x2CB DUP2 DUP4 ADD SWAP7 DUP8 DUP2 MLOAD SWAP4 DUP5 SWAP3 ADD PUSH2 0x2AD5 JUMP JUMPDEST MLOAD SWAP1 KECCAK256 PUSH1 0x40 MLOAD PUSH12 0x1CD3901CF6B05CB0B6BCB335 PUSH1 0xA3 SHL PUSH1 0x20 DUP3 ADD SWAP1 DUP2 MSTORE PUSH1 0xC DUP3 MSTORE SWAP1 PUSH2 0x383 DUP2 PUSH2 0x2BEE JUMP JUMPDEST MLOAD SWAP1 KECCAK256 EQ DUP1 ISZERO PUSH2 0x1978 JUMPI JUMPDEST ISZERO PUSH2 0x196E JUMPI PUSH1 0x40 MLOAD PUSH2 0x39F DUP2 PUSH2 0x2BEE JUMP JUMPDEST PUSH1 0x4 DUP2 MSTORE PUSH4 0xF09F92A9 PUSH1 0xE0 SHL PUSH1 0x20 DUP3 ADD MSTORE JUMPDEST PUSH2 0x3C1 PUSH1 0xFF PUSH1 0x60 DUP8 ADD MLOAD AND PUSH2 0x3522 JUMP JUMPDEST PUSH2 0x3D1 PUSH1 0xFF PUSH1 0x60 DUP9 ADD MLOAD AND PUSH2 0x3371 JUMP JUMPDEST SWAP4 PUSH2 0x422 PUSH1 0x30 PUSH1 0x40 MLOAD DUP1 SWAP8 PUSH13 0x29BA34B735902632BB32B61D1 PUSH1 0x9D SHL PUSH1 0x20 DUP4 ADD MSTORE PUSH2 0x406 DUP2 MLOAD DUP1 SWAP3 PUSH1 0x20 PUSH1 0x2D DUP7 ADD SWAP2 ADD PUSH2 0x2AD5 JUMP JUMPDEST DUP2 ADD PUSH3 0x2F313 PUSH1 0xEC SHL PUSH1 0x2D DUP3 ADD MSTORE SUB PUSH1 0x10 DUP2 ADD DUP9 MSTORE ADD DUP7 PUSH2 0x2C40 JUMP JUMPDEST ISZERO PUSH2 0x1949 JUMPI PUSH1 0x40 DUP1 MLOAD PUSH32 0x3C7465787420783D223132302220793D223132302220666F6E742D73697A653D PUSH1 0x20 DUP3 ADD MSTORE PUSH32 0x223330222066696C6C3D222346464437303022206F7061636974793D22302E39 SWAP2 DUP2 ADD SWAP2 SWAP1 SWAP2 MSTORE PUSH2 0x111F PUSH1 0xF1 SHL PUSH1 0x60 DUP3 ADD MSTORE PUSH3 0x1C5395 PUSH1 0xEB SHL PUSH1 0x62 DUP3 ADD MSTORE PUSH1 0x0 DUP1 MLOAD PUSH1 0x20 PUSH2 0x38A1 DUP4 CODECOPY DUP2 MLOAD SWAP2 MSTORE PUSH1 0x65 DUP3 ADD MSTORE PUSH32 0x2076616C7565733D22302E353B313B302E3522206475723D22302E3573222072 PUSH1 0x85 DUP3 ADD MSTORE PUSH32 0x6570656174436F756E743D22696E646566696E697465222F3E00000000000000 PUSH1 0xA5 DUP3 ADD MSTORE PUSH1 0x0 DUP1 MLOAD PUSH1 0x20 PUSH2 0x3841 DUP4 CODECOPY DUP2 MLOAD SWAP2 MSTORE PUSH1 0xBE DUP3 ADD MSTORE PUSH1 0x0 DUP1 MLOAD PUSH1 0x20 PUSH2 0x3821 DUP4 CODECOPY DUP2 MLOAD SWAP2 MSTORE PUSH1 0xDE DUP3 ADD MSTORE PUSH32 0x22302E383B312E323B302E3822206475723D22302E3573222072657065617443 PUSH1 0xFE DUP3 ADD MSTORE PUSH19 0x37BAB73A1E9134B73232B334B734BA3291179F PUSH1 0x69 SHL PUSH2 0x11E DUP3 ADD MSTORE PUSH7 0x1E17BA32BC3A1F PUSH1 0xC9 SHL PUSH2 0x131 DUP3 ADD MSTORE PUSH2 0x118 DUP2 MSTORE SWAP4 PUSH1 0x1 PUSH1 0x1 PUSH1 0x40 SHL SUB PUSH2 0x140 DUP7 ADD SWAP1 DUP2 GT SWAP1 DUP7 GT OR PUSH2 0x1933 JUMPI PUSH2 0x140 DUP6 ADD PUSH1 0x40 DUP2 SWAP1 MSTORE PUSH32 0x3C7465787420783D223238302220793D223132302220666F6E742D73697A653D PUSH2 0x160 DUP8 ADD MSTORE PUSH32 0x223330222066696C6C3D222346464437303022206F7061636974793D22302E39 PUSH2 0x180 DUP8 ADD MSTORE PUSH2 0x111F PUSH1 0xF1 SHL PUSH2 0x1A0 DUP8 ADD MSTORE PUSH3 0x1C5395 PUSH1 0xEB SHL PUSH2 0x1A2 DUP8 ADD MSTORE PUSH1 0x0 DUP1 MLOAD PUSH1 0x20 PUSH2 0x38A1 DUP4 CODECOPY DUP2 MLOAD SWAP2 MSTORE PUSH2 0x1A5 DUP8 ADD MSTORE PUSH32 0x2076616C7565733D22302E353B313B302E3522206475723D22302E3573222062 PUSH2 0x1C5 DUP8 ADD MSTORE PUSH32 0x6567696E3D22302E3235732220726570656174436F756E743D22696E64656669 PUSH2 0x1E5 DUP8 ADD MSTORE PUSH7 0x3734BA3291179F PUSH1 0xC9 SHL PUSH2 0x205 DUP8 ADD MSTORE PUSH1 0x0 DUP1 MLOAD PUSH1 0x20 PUSH2 0x3841 DUP4 CODECOPY DUP2 MLOAD SWAP2 MSTORE PUSH2 0x20C DUP8 ADD MSTORE PUSH1 0x0 DUP1 MLOAD PUSH1 0x20 PUSH2 0x3821 DUP4 CODECOPY DUP2 MLOAD SWAP2 MSTORE PUSH2 0x22C DUP8 ADD MSTORE PUSH32 0x22302E383B312E323B302E3822206475723D22302E35732220626567696E3D22 PUSH2 0x24C DUP8 ADD MSTORE PUSH32 0x302E3235732220726570656174436F756E743D22696E646566696E697465222F PUSH2 0x26C DUP8 ADD MSTORE PUSH1 0x1F PUSH1 0xF9 SHL PUSH2 0x28C DUP8 ADD MSTORE PUSH7 0x1E17BA32BC3A1F PUSH1 0xC9 SHL PUSH2 0x28D DUP8 ADD MSTORE PUSH2 0x134 DUP2 MSTORE PUSH2 0x137D SWAP6 PUSH1 0x20 SWAP6 PUSH2 0x1286 SWAP4 PUSH2 0x105 SWAP4 SWAP2 SWAP3 SWAP1 SWAP2 PUSH2 0x1110 SWAP2 SWAP1 PUSH2 0x729 SWAP1 PUSH2 0x2C09 JUMP JUMPDEST PUSH2 0xD81 DUP10 PUSH1 0x40 MLOAD SWAP3 PUSH32 0x3C7465787420783D223130302220793D223230302220666F6E742D73697A653D DUP3 DUP6 ADD MSTORE PUSH32 0x223235222066696C6C3D222346464437303022206F7061636974793D22302E38 PUSH1 0x40 DUP6 ADD MSTORE PUSH2 0x111F PUSH1 0xF1 SHL PUSH1 0x60 DUP6 ADD MSTORE PUSH3 0x1C5395 PUSH1 0xEB SHL PUSH1 0x62 DUP6 ADD MSTORE PUSH1 0x0 DUP1 MLOAD PUSH1 0x20 PUSH2 0x38A1 DUP4 CODECOPY DUP2 MLOAD SWAP2 MSTORE PUSH1 0x65 DUP6 ADD MSTORE PUSH32 0x2076616C7565733D22302E333B313B302E3322206475723D22302E3673222062 PUSH1 0x85 DUP6 ADD MSTORE PUSH32 0x6567696E3D22302E31732220726570656174436F756E743D22696E646566696E PUSH1 0xA5 DUP6 ADD MSTORE PUSH6 0x34BA3291179F PUSH1 0xD1 SHL PUSH1 0xC5 DUP6 ADD MSTORE PUSH1 0x0 DUP1 MLOAD PUSH1 0x20 PUSH2 0x3841 DUP4 CODECOPY DUP2 MLOAD SWAP2 MSTORE PUSH1 0xCB DUP6 ADD MSTORE PUSH1 0x0 DUP1 MLOAD PUSH1 0x20 PUSH2 0x3821 DUP4 CODECOPY DUP2 MLOAD SWAP2 MSTORE PUSH1 0xEB DUP6 ADD MSTORE PUSH32 0x22302E373B312E333B302E3722206475723D22302E36732220626567696E3D22 PUSH2 0x10B DUP6 ADD MSTORE PUSH32 0x302E31732220726570656174436F756E743D22696E646566696E697465222F3E PUSH2 0x12B DUP6 ADD MSTORE PUSH7 0x1E17BA32BC3A1F PUSH1 0xC9 SHL PUSH2 0x14B DUP6 ADD MSTORE PUSH2 0x132 DUP5 MSTORE PUSH2 0x897 DUP5 PUSH2 0x2C09 JUMP JUMPDEST PUSH1 0x40 DUP1 MLOAD PUSH32 0x3C7465787420783D223330302220793D223230302220666F6E742D73697A653D DUP5 DUP3 ADD MSTORE PUSH32 0x223235222066696C6C3D222346464437303022206F7061636974793D22302E38 SWAP2 DUP2 ADD SWAP2 SWAP1 SWAP2 MSTORE PUSH2 0x111F PUSH1 0xF1 SHL PUSH1 0x60 DUP3 ADD MSTORE PUSH3 0x1C5395 PUSH1 0xEB SHL PUSH1 0x62 DUP3 ADD MSTORE PUSH1 0x0 DUP1 MLOAD PUSH1 0x20 PUSH2 0x38A1 DUP4 CODECOPY DUP2 MLOAD SWAP2 MSTORE PUSH1 0x65 DUP3 ADD MSTORE PUSH32 0x2076616C7565733D22302E333B313B302E3322206475723D22302E3673222062 PUSH1 0x85 DUP3 ADD MSTORE PUSH32 0x6567696E3D22302E3335732220726570656174436F756E743D22696E64656669 PUSH1 0xA5 DUP3 ADD MSTORE PUSH7 0x3734BA3291179F PUSH1 0xC9 SHL PUSH1 0xC5 DUP3 ADD MSTORE PUSH1 0x0 DUP1 MLOAD PUSH1 0x20 PUSH2 0x3841 DUP4 CODECOPY DUP2 MLOAD SWAP2 MSTORE PUSH1 0xCC DUP3 ADD MSTORE PUSH1 0x0 DUP1 MLOAD PUSH1 0x20 PUSH2 0x3821 DUP4 CODECOPY DUP2 MLOAD SWAP2 MSTORE PUSH1 0xEC DUP3 ADD MSTORE PUSH32 0x22302E373B312E333B302E3722206475723D22302E36732220626567696E3D22 PUSH2 0x10C DUP3 ADD MSTORE PUSH32 0x302E3335732220726570656174436F756E743D22696E646566696E697465222F PUSH2 0x12C DUP3 ADD MSTORE PUSH1 0x1F PUSH1 0xF9 SHL PUSH2 0x14C DUP3 ADD MSTORE PUSH7 0x1E17BA32BC3A1F PUSH1 0xC9 SHL PUSH2 0x14D DUP3 ADD MSTORE PUSH2 0x134 DUP2 MSTORE PUSH2 0xA0F DUP2 PUSH2 0x2C09 JUMP JUMPDEST PUSH1 0x40 DUP1 MLOAD PUSH32 0x3C7465787420783D223135302220793D223235302220666F6E742D73697A653D DUP6 DUP3 ADD MSTORE PUSH32 0x223230222066696C6C3D222346464437303022206F7061636974793D22302E37 SWAP2 DUP2 ADD SWAP2 SWAP1 SWAP2 MSTORE PUSH2 0x111F PUSH1 0xF1 SHL PUSH1 0x60 DUP3 ADD MSTORE PUSH3 0x1C5395 PUSH1 0xEB SHL PUSH1 0x62 DUP3 ADD MSTORE PUSH1 0x0 DUP1 MLOAD PUSH1 0x20 PUSH2 0x38A1 DUP4 CODECOPY DUP2 MLOAD SWAP2 MSTORE PUSH1 0x65 DUP3 ADD MSTORE PUSH32 0x2076616C7565733D22302E323B302E393B302E3222206475723D22302E377322 PUSH1 0x85 DUP3 ADD MSTORE PUSH32 0x20626567696E3D22302E32732220726570656174436F756E743D22696E646566 PUSH1 0xA5 DUP3 ADD MSTORE PUSH8 0x34B734BA3291179F PUSH1 0xC1 SHL PUSH1 0xC5 DUP3 ADD MSTORE PUSH1 0x0 DUP1 MLOAD PUSH1 0x20 PUSH2 0x3841 DUP4 CODECOPY DUP2 MLOAD SWAP2 MSTORE PUSH1 0xCD DUP3 ADD MSTORE PUSH1 0x0 DUP1 MLOAD PUSH1 0x20 PUSH2 0x3821 DUP4 CODECOPY DUP2 MLOAD SWAP2 MSTORE PUSH1 0xED DUP3 ADD MSTORE PUSH32 0x22302E363B312E343B302E3622206475723D22302E37732220626567696E3D22 PUSH2 0x10D DUP3 ADD MSTORE PUSH32 0x302E32732220726570656174436F756E743D22696E646566696E697465222F3E PUSH2 0x12D DUP3 ADD MSTORE PUSH7 0x1E17BA32BC3A1F PUSH1 0xC9 SHL PUSH2 0x14D DUP3 ADD MSTORE PUSH2 0x134 DUP2 MSTORE PUSH2 0xB7D DUP2 PUSH2 0x2C09 JUMP JUMPDEST PUSH1 0x40 DUP1 MLOAD PUSH32 0x3C7465787420783D223235302220793D223235302220666F6E742D73697A653D DUP7 DUP3 ADD MSTORE PUSH32 0x223230222066696C6C3D222346464437303022206F7061636974793D22302E37 SWAP2 DUP2 ADD SWAP2 SWAP1 SWAP2 MSTORE PUSH2 0x111F PUSH1 0xF1 SHL PUSH1 0x60 DUP3 ADD MSTORE PUSH3 0x1C5395 PUSH1 0xEB SHL PUSH1 0x62 DUP3 ADD MSTORE PUSH1 0x0 DUP1 MLOAD PUSH1 0x20 PUSH2 0x38A1 DUP4 CODECOPY DUP2 MLOAD SWAP2 MSTORE PUSH1 0x65 DUP3 ADD MSTORE PUSH32 0x2076616C7565733D22302E323B302E393B302E3222206475723D22302E377322 PUSH1 0x85 DUP3 ADD MSTORE PUSH32 0x20626567696E3D22302E3435732220726570656174436F756E743D22696E6465 PUSH1 0xA5 DUP3 ADD MSTORE PUSH9 0x3334B734BA3291179F PUSH1 0xB9 SHL PUSH1 0xC5 DUP3 ADD MSTORE PUSH1 0x0 DUP1 MLOAD PUSH1 0x20 PUSH2 0x3841 DUP4 CODECOPY DUP2 MLOAD SWAP2 MSTORE PUSH1 0xCE DUP3 ADD MSTORE PUSH1 0x0 DUP1 MLOAD PUSH1 0x20 PUSH2 0x3821 DUP4 CODECOPY DUP2 MLOAD SWAP2 MSTORE PUSH1 0xEE DUP3 ADD MSTORE PUSH32 0x22302E363B312E343B302E3622206475723D22302E37732220626567696E3D22 PUSH2 0x10E DUP3 ADD MSTORE PUSH32 0x302E3435732220726570656174436F756E743D22696E646566696E697465222F PUSH2 0x12E DUP3 ADD MSTORE PUSH1 0x1F PUSH1 0xF9 SHL PUSH2 0x14E DUP3 ADD MSTORE PUSH7 0x1E17BA32BC3A1F PUSH1 0xC9 SHL PUSH2 0x14F DUP3 ADD MSTORE PUSH2 0x136 DUP2 MSTORE SWAP2 PUSH2 0xCF8 DUP4 PUSH2 0x2C09 JUMP JUMPDEST PUSH1 0x40 MLOAD SWAP7 DUP5 DUP9 SWAP6 MLOAD PUSH2 0xD0F DUP2 DUP10 DUP10 ADD DUP11 DUP6 ADD PUSH2 0x2AD5 JUMP JUMPDEST DUP7 ADD PUSH2 0xD29 PUSH2 0x140 DUP4 ADD MLOAD DUP1 SWAP4 PUSH2 0x160 DUP12 DUP6 ADD SWAP2 ADD PUSH2 0x2AD5 JUMP JUMPDEST ADD PUSH2 0xD3C DUP3 MLOAD DUP1 SWAP4 DUP10 DUP1 DUP6 ADD SWAP2 ADD PUSH2 0x2AD5 JUMP JUMPDEST ADD PUSH2 0xD4F DUP3 MLOAD DUP1 SWAP4 DUP9 DUP1 DUP6 ADD SWAP2 ADD PUSH2 0x2AD5 JUMP JUMPDEST ADD PUSH2 0xD62 DUP3 MLOAD DUP1 SWAP4 DUP8 DUP1 DUP6 ADD SWAP2 ADD PUSH2 0x2AD5 JUMP JUMPDEST ADD PUSH2 0xD75 DUP3 MLOAD DUP1 SWAP4 DUP7 DUP1 DUP6 ADD SWAP2 ADD PUSH2 0x2AD5 JUMP JUMPDEST ADD SUB DUP1 DUP5 MSTORE ADD DUP3 PUSH2 0x2C40 JUMP JUMPDEST PUSH1 0x40 MLOAD DUP1 SWAP9 PUSH32 0x3C3F786D6C2076657273696F6E3D22312E302220656E636F64696E673D225554 DUP12 DUP4 ADD MSTORE PUSH6 0x23169C111F9F PUSH1 0xD1 SHL PUSH1 0x40 DUP4 ADD MSTORE PUSH32 0x3C73766720786D6C6E733D22687474703A2F2F7777772E77332E6F72672F3230 PUSH1 0x46 DUP4 ADD MSTORE PUSH32 0x30302F737667222076696577426F783D22302030203430302034303022207769 PUSH1 0x66 DUP4 ADD MSTORE PUSH32 0x6474683D2234303022206865696768743D22343030223E000000000000000000 PUSH1 0x86 DUP4 ADD MSTORE PUSH6 0x1E3232B3399F PUSH1 0xD1 SHL PUSH1 0x9D DUP4 ADD MSTORE PUSH32 0x3C72616469616C4772616469656E742069643D226267222063783D2235302522 PUSH1 0xA3 DUP4 ADD MSTORE PUSH18 0x1031BC9E911A98129110391E911A9812911F PUSH1 0x71 SHL PUSH1 0xC3 DUP4 ADD MSTORE PUSH32 0x3C73746F70206F66667365743D22302522207374796C653D2273746F702D636F PUSH1 0xD5 DUP4 ADD MSTORE PUSH14 0x3637B91D1198B09830993291179F PUSH1 0x91 SHL PUSH1 0xF5 DUP4 ADD MSTORE PUSH32 0x3C73746F70206F66667365743D223130302522207374796C653D2273746F702D PUSH2 0x103 DUP4 ADD MSTORE PUSH16 0x31B7B637B91D1198331833183311179F PUSH1 0x81 SHL PUSH2 0x123 DUP4 ADD MSTORE PUSH17 0x1E17B930B234B0B623B930B234B2B73A1F PUSH1 0x79 SHL PUSH2 0x133 DUP4 ADD MSTORE PUSH18 0x1E3334B63A32B91034B21E9133B637BB911F PUSH1 0x71 SHL PUSH2 0x144 DUP4 ADD MSTORE PUSH32 0x3C6665476175737369616E426C757220737464446576696174696F6E3D223322 PUSH2 0x156 DUP4 ADD MSTORE PUSH32 0x20726573756C743D22636F6C6F726564426C7572222F3E000000000000000000 PUSH2 0x176 DUP4 ADD MSTORE PUSH32 0x3C66654D657267653E3C66654D657267654E6F646520696E3D22636F6C6F7265 PUSH2 0x18D DUP4 ADD MSTORE PUSH32 0x64426C7572222F3E3C66654D657267654E6F646520696E3D22536F7572636547 PUSH2 0x1AD DUP4 ADD MSTORE PUSH19 0x3930B83434B191179F1E17B332A6B2B933B29F PUSH1 0x69 SHL PUSH2 0x1CD DUP4 ADD MSTORE PUSH9 0x1E17B334B63A32B91F PUSH1 0xB9 SHL PUSH2 0x1E0 DUP4 ADD MSTORE PUSH7 0x1E17B232B3399F PUSH1 0xC9 SHL PUSH2 0x1E9 DUP4 ADD MSTORE PUSH32 0x3C726563742077696474683D2234303022206865696768743D22343030222066 PUSH2 0x1F0 DUP4 ADD MSTORE PUSH16 0x34B6361E913AB9361411B1339491179F PUSH1 0x81 SHL PUSH2 0x210 DUP4 ADD MSTORE PUSH32 0x3C7465787420783D223230302220793D223138302220746578742D616E63686F PUSH2 0x220 DUP4 ADD MSTORE PUSH32 0x723D226D6964646C652220666F6E742D73697A653D22313230222066696C7465 PUSH2 0x240 DUP4 ADD MSTORE PUSH32 0x723D2275726C2823676C6F7729222066696C6C3D2223464646464646223E0000 PUSH2 0x260 DUP4 ADD MSTORE PUSH7 0x1E17BA32BC3A1F PUSH1 0xC9 SHL DUP2 MLOAD PUSH2 0x10E4 DUP2 PUSH2 0x27E SWAP5 DUP16 DUP7 DUP9 ADD SWAP2 ADD PUSH2 0x2AD5 JUMP JUMPDEST DUP4 ADD SWAP2 DUP3 ADD MSTORE DUP3 MLOAD SWAP1 PUSH2 0x1100 DUP3 PUSH2 0x285 SWAP6 DUP15 DUP8 DUP6 ADD SWAP2 ADD PUSH2 0x2AD5 JUMP JUMPDEST ADD SUB PUSH2 0x265 DUP2 ADD DUP10 MSTORE ADD DUP8 PUSH2 0x2C40 JUMP JUMPDEST DUP10 MLOAD PUSH1 0x40 MLOAD SWAP10 DUP11 SWAP4 PUSH32 0x3C7465787420783D223230302220793D223236302220746578742D616E63686F DUP11 DUP7 ADD MSTORE PUSH32 0x723D226D6964646C652220666F6E742D73697A653D223234222066696C6C3D22 PUSH1 0x40 DUP7 ADD MSTORE PUSH2 0x1176 DUP2 MLOAD DUP1 SWAP3 DUP13 PUSH1 0x60 DUP10 ADD SWAP2 ADD PUSH2 0x2AD5 JUMP JUMPDEST DUP5 ADD SWAP2 PUSH32 0x2220666F6E742D66616D696C793D22417269616C2C2073616E732D7365726966 SWAP3 DUP4 PUSH1 0x60 DUP3 ADD MSTORE PUSH21 0x11103337B73A16BBB2B4B3B43A1E913137B632111F PUSH1 0x59 SHL PUSH1 0x80 DUP3 ADD MSTORE PUSH2 0x11D2 DUP3 MLOAD DUP1 SWAP4 DUP14 PUSH1 0x95 DUP6 ADD SWAP2 ADD PUSH2 0x2AD5 JUMP JUMPDEST ADD PUSH7 0x1E17BA32BC3A1F PUSH1 0xC9 SHL PUSH1 0x95 DUP3 ADD MSTORE PUSH32 0x3C7465787420783D223230302220793D223330302220746578742D616E63686F PUSH1 0x9C DUP3 ADD MSTORE PUSH32 0x723D226D6964646C652220666F6E742D73697A653D223136222066696C6C3D22 PUSH1 0xBC DUP3 ADD MSTORE PUSH2 0x1242 DUP3 MLOAD DUP1 SWAP4 DUP13 PUSH1 0xDC DUP6 ADD SWAP2 ADD PUSH2 0x2AD5 JUMP JUMPDEST ADD SWAP1 PUSH1 0xDC DUP3 ADD MSTORE PUSH2 0x111F PUSH1 0xF1 SHL PUSH1 0xFC DUP3 ADD MSTORE PUSH2 0x1267 DUP3 MLOAD DUP1 SWAP4 DUP11 PUSH1 0xFE DUP6 ADD SWAP2 ADD PUSH2 0x2AD5 JUMP JUMPDEST ADD PUSH7 0x1E17BA32BC3A1F PUSH1 0xC9 SHL PUSH1 0xFE DUP3 ADD MSTORE SUB PUSH1 0xE5 DUP2 ADD DUP9 MSTORE ADD DUP7 PUSH2 0x2C40 JUMP JUMPDEST PUSH2 0x1351 PUSH1 0x9C PUSH1 0x40 MLOAD DUP4 PUSH2 0x12A2 DUP3 SWAP6 MLOAD DUP1 SWAP3 DUP10 DUP1 DUP7 ADD SWAP2 ADD PUSH2 0x2AD5 JUMP JUMPDEST DUP2 ADD PUSH32 0x3C7465787420783D223230302220793D223338302220746578742D616E63686F DUP8 DUP3 ADD MSTORE PUSH32 0x723D226D6964646C652220666F6E742D73697A653D223132222066696C6C3D22 PUSH1 0x40 DUP3 ADD MSTORE PUSH32 0x233636362220666F6E742D66616D696C793D22417269616C2C2073616E732D73 PUSH1 0x60 DUP3 ADD MSTORE PUSH22 0x32B934B3111F2A2920A9A41027232A1E17BA32BC3A1F PUSH1 0x51 SHL PUSH1 0x80 DUP3 ADD MSTORE PUSH6 0x1E17B9BB339F PUSH1 0xD1 SHL PUSH1 0x96 DUP3 ADD MSTORE SUB PUSH1 0x7C DUP2 ADD DUP5 MSTORE ADD DUP3 PUSH2 0x2C40 JUMP JUMPDEST PUSH1 0x40 MLOAD SWAP5 DUP3 PUSH2 0x1369 DUP8 SWAP5 MLOAD DUP1 SWAP3 DUP8 DUP1 DUP9 ADD SWAP2 ADD PUSH2 0x2AD5 JUMP JUMPDEST DUP4 ADD PUSH2 0xD62 DUP3 MLOAD DUP1 SWAP4 DUP8 DUP1 DUP6 ADD SWAP2 ADD PUSH2 0x2AD5 JUMP JUMPDEST PUSH1 0x20 DUP3 ADD MLOAD SWAP2 PUSH2 0x13F2 PUSH1 0x2D DUP3 MLOAD SWAP5 PUSH1 0x40 MLOAD SWAP6 DUP7 SWAP2 PUSH10 0x3D913730B6B2911D1011 PUSH1 0xB1 SHL PUSH1 0x20 DUP5 ADD MSTORE PUSH2 0x13B8 DUP2 MLOAD DUP1 SWAP3 PUSH1 0x20 PUSH1 0x2A DUP8 ADD SWAP2 ADD PUSH2 0x2AD5 JUMP JUMPDEST DUP3 ADD PUSH1 0x1 PUSH1 0xFD SHL PUSH1 0x2A DUP3 ADD MSTORE PUSH2 0x13D8 DUP3 MLOAD DUP1 SWAP4 PUSH1 0x20 PUSH1 0x2B DUP6 ADD SWAP2 ADD PUSH2 0x2AD5 JUMP JUMPDEST ADD PUSH2 0x88B PUSH1 0xF2 SHL PUSH1 0x2B DUP3 ADD MSTORE SUB PUSH1 0xD DUP2 ADD DUP7 MSTORE ADD DUP5 PUSH2 0x2C40 JUMP JUMPDEST PUSH1 0x40 DUP2 ADD MLOAD SWAP1 PUSH2 0x1408 PUSH1 0xFF PUSH1 0x60 DUP4 ADD MLOAD AND PUSH2 0x3371 JUMP JUMPDEST PUSH1 0xA0 DUP3 ADD MLOAD PUSH1 0x40 MLOAD SWAP6 SWAP2 SWAP1 PUSH1 0x1 PUSH1 0x1 PUSH1 0xA0 SHL SUB AND DUP1 PUSH2 0x1426 DUP9 PUSH2 0x2C25 JUMP JUMPDEST PUSH1 0x2A DUP9 MSTORE PUSH1 0x40 CALLDATASIZE PUSH1 0x20 DUP11 ADD CALLDATACOPY DUP8 MLOAD ISZERO PUSH2 0x191D JUMPI PUSH1 0x30 PUSH1 0x20 DUP10 ADD MSTORE8 DUP8 MLOAD PUSH1 0x1 LT ISZERO PUSH2 0x191D JUMPI PUSH1 0x78 PUSH1 0x21 DUP10 ADD MSTORE8 PUSH1 0x29 JUMPDEST PUSH1 0x1 DUP2 GT PUSH2 0x18BE JUMPI POP PUSH2 0x189F JUMPI PUSH2 0x189B PUSH2 0x1834 DUP9 PUSH2 0x17F9 DUP10 PUSH2 0x1814 PUSH1 0x20 DUP12 DUP12 PUSH2 0x1633 PUSH2 0x1808 DUP14 PUSH2 0x1529 PUSH1 0x53 DUP16 PUSH1 0x40 MLOAD SWAP13 DUP14 SWAP2 DUP11 DUP4 ADD SWAP10 PUSH16 0x113232B9B1B934B83A34B7B7111D1011 PUSH1 0x81 SHL DUP12 MSTORE PUSH2 0x14B3 DUP2 MLOAD DUP1 SWAP3 DUP15 PUSH1 0x30 DUP9 ADD SWAP2 ADD PUSH2 0x2AD5 JUMP JUMPDEST DUP4 ADD PUSH16 0x103E1029BA34B735902632BB32B61D1 PUSH1 0x85 SHL PUSH1 0x30 DUP3 ADD MSTORE PUSH2 0x14E1 DUP3 MLOAD DUP1 SWAP4 DUP15 PUSH1 0x40 DUP6 ADD SWAP2 ADD PUSH2 0x2AD5 JUMP JUMPDEST ADD PUSH17 0x179898103E102A343937BBB710313C9D1 PUSH1 0x7D SHL PUSH1 0x40 DUP3 ADD MSTORE PUSH2 0x150F DUP3 MLOAD DUP1 SWAP4 DUP14 PUSH1 0x51 DUP6 ADD SWAP2 ADD PUSH2 0x2AD5 JUMP JUMPDEST ADD PUSH2 0x88B PUSH1 0xF2 SHL PUSH1 0x51 DUP3 ADD MSTORE SUB PUSH1 0x33 DUP2 ADD DUP14 MSTORE ADD DUP12 PUSH2 0x2C40 JUMP JUMPDEST PUSH2 0x1667 PUSH1 0x2F PUSH1 0x40 MLOAD SWAP12 PUSH2 0x153B DUP14 PUSH2 0x2C25 JUMP JUMPDEST PUSH1 0x40 DUP14 MSTORE PUSH2 0x1596 PUSH32 0x4142434445464748494A4B4C4D4E4F505152535455565758595A616263646566 SWAP14 DUP15 DUP12 DUP3 ADD MSTORE PUSH32 0x6768696A6B6C6D6E6F707172737475767778797A303132333435363738392B2F SWAP13 DUP14 PUSH1 0x40 DUP4 ADD MSTORE PUSH2 0x3279 JUMP JUMPDEST PUSH1 0x40 MLOAD PUSH2 0x1603 PUSH1 0x46 DUP3 DUP14 DUP2 ADD SWAP5 PUSH32 0x22696D616765223A2022646174613A696D6167652F7376672B786D6C3B626173 DUP7 MSTORE PUSH4 0x194D8D0B PUSH1 0xE2 SHL PUSH1 0x40 DUP4 ADD MSTORE PUSH2 0x15E8 DUP2 MLOAD PUSH1 0x20 SWAP3 DUP2 SWAP4 PUSH1 0x44 DUP7 ADD SWAP2 ADD PUSH2 0x2AD5 JUMP JUMPDEST DUP2 ADD PUSH2 0x88B PUSH1 0xF2 SHL PUSH1 0x44 DUP3 ADD MSTORE SUB PUSH1 0x26 DUP2 ADD DUP5 MSTORE ADD DUP3 PUSH2 0x2C40 JUMP JUMPDEST PUSH2 0x1641 PUSH1 0x40 MLOAD SWAP11 DUP12 SWAP5 PUSH2 0x1633 DUP15 PUSH2 0x1623 DUP2 DUP10 ADD SWAP12 DUP13 DUP2 MLOAD SWAP4 DUP5 SWAP3 ADD PUSH2 0x2AD5 JUMP JUMPDEST DUP8 ADD SWAP2 MLOAD DUP16 SWAP4 DUP2 SWAP5 DUP5 ADD SWAP1 PUSH2 0x2AD5 JUMP JUMPDEST ADD SWAP2 MLOAD DUP1 SWAP4 DUP14 DUP5 ADD SWAP1 PUSH2 0x2AD5 JUMP JUMPDEST ADD PUSH15 0x2261747472696275746573223A205B PUSH1 0x88 SHL DUP11 DUP3 ADD MSTORE SUB PUSH1 0xF DUP2 ADD DUP9 MSTORE ADD DUP7 PUSH2 0x2C40 JUMP JUMPDEST PUSH2 0x17E7 PUSH1 0x22 PUSH2 0x167C PUSH1 0xFF PUSH1 0x60 DUP9 ADD MLOAD AND PUSH2 0x3371 JUMP JUMPDEST SWAP6 PUSH1 0x40 MLOAD SWAP1 PUSH2 0x16FB PUSH1 0x80 DUP12 DUP5 ADD SWAP10 PUSH32 0x7B2274726169745F74797065223A20225374696E6B204C6576656C222C202276 DUP12 MSTORE PUSH7 0x30B63AB2911D1 PUSH1 0xCD SHL PUSH1 0x40 DUP7 ADD MSTORE PUSH2 0x16D0 DUP2 MLOAD DUP1 SWAP3 DUP16 PUSH1 0x47 DUP10 ADD SWAP2 ADD PUSH2 0x2AD5 JUMP JUMPDEST DUP5 ADD SWAP3 PUSH2 0x16F4 PUSH1 0x49 DUP7 PUSH2 0x1F4B PUSH1 0xF2 SHL SWAP7 DUP8 PUSH1 0x47 DUP3 ADD MSTORE SUB PUSH1 0x29 DUP2 ADD DUP9 MSTORE ADD DUP7 PUSH2 0x2C40 JUMP JUMPDEST ADD MLOAD PUSH2 0x3371 JUMP JUMPDEST PUSH2 0x1765 PUSH1 0x47 PUSH1 0x40 MLOAD DUP1 SWAP5 DUP15 DUP3 ADD SWAP5 PUSH32 0x7B2274726169745F74797065223A20225468726F776E204174222C202276616C DUP7 MSTORE PUSH5 0x3AB2911D1 PUSH1 0xDD SHL PUSH1 0x40 DUP5 ADD MSTORE PUSH2 0x174F DUP2 MLOAD PUSH1 0x20 SWAP3 DUP2 SWAP4 PUSH1 0x45 DUP8 ADD SWAP2 ADD PUSH2 0x2AD5 JUMP JUMPDEST DUP3 ADD SWAP1 PUSH1 0x45 DUP3 ADD MSTORE SUB PUSH1 0x27 DUP2 ADD DUP6 MSTORE ADD DUP4 PUSH2 0x2C40 JUMP JUMPDEST PUSH2 0x17CE PUSH1 0x40 MLOAD SWAP2 PUSH2 0x1775 DUP4 PUSH2 0x2C25 JUMP JUMPDEST PUSH1 0x2C DUP4 MSTORE DUP13 DUP4 ADD SWAP4 PUSH32 0x7B2274726169745F74797065223A202243617465676F7279222C202276616C75 DUP6 MSTORE PUSH12 0x65223A20225472617368227D PUSH1 0xA0 SHL PUSH1 0x40 DUP6 ADD MSTORE PUSH1 0x40 MLOAD SWAP11 DUP12 SWAP7 DUP16 PUSH2 0x1623 SWAP1 DUP10 ADD SWAP15 DUP16 SWAP3 MLOAD SWAP3 DUP4 SWAP2 PUSH2 0x2AD5 JUMP JUMPDEST ADD PUSH2 0x5D7D PUSH1 0xF0 SHL DUP11 DUP3 ADD MSTORE SUB PUSH1 0x2 DUP2 ADD DUP7 MSTORE ADD DUP5 PUSH2 0x2C40 JUMP JUMPDEST PUSH1 0x40 MLOAD SWAP9 DUP10 SWAP6 MLOAD DUP1 SWAP3 DUP9 DUP9 ADD SWAP1 PUSH2 0x2AD5 JUMP JUMPDEST DUP5 ADD SWAP2 MLOAD DUP1 SWAP4 DUP7 DUP5 ADD SWAP1 PUSH2 0x2AD5 JUMP JUMPDEST ADD SUB DUP1 DUP6 MSTORE ADD DUP4 PUSH2 0x2C40 JUMP JUMPDEST PUSH1 0x40 MLOAD SWAP3 PUSH2 0x1821 DUP5 PUSH2 0x2C25 JUMP JUMPDEST PUSH1 0x40 DUP5 MSTORE PUSH1 0x20 DUP5 ADD MSTORE PUSH1 0x40 DUP4 ADD MSTORE PUSH2 0x3279 JUMP JUMPDEST PUSH2 0x1887 PUSH1 0x3D PUSH1 0x40 MLOAD DUP1 SWAP4 PUSH32 0x646174613A6170706C69636174696F6E2F6A736F6E3B6261736536342C000000 PUSH1 0x20 DUP4 ADD MSTORE PUSH2 0x1877 DUP2 MLOAD DUP1 SWAP3 PUSH1 0x20 DUP7 DUP7 ADD SWAP2 ADD PUSH2 0x2AD5 JUMP JUMPDEST DUP2 ADD SUB PUSH1 0x1D DUP2 ADD DUP5 MSTORE ADD DUP3 PUSH2 0x2C40 JUMP JUMPDEST PUSH1 0x40 MLOAD SWAP2 DUP3 SWAP2 PUSH1 0x20 DUP4 MSTORE PUSH1 0x20 DUP4 ADD SWAP1 PUSH2 0x2AF8 JUMP JUMPDEST SUB SWAP1 RETURN JUMPDEST PUSH1 0x44 SWAP1 PUSH1 0x40 MLOAD SWAP1 PUSH4 0xE22E27EB PUSH1 0xE0 SHL DUP3 MSTORE PUSH1 0x4 DUP3 ADD MSTORE PUSH1 0x14 PUSH1 0x24 DUP3 ADD MSTORE REVERT JUMPDEST SWAP1 PUSH1 0x10 PUSH1 0xF DUP3 AND LT ISZERO PUSH2 0x191D JUMPI DUP9 MLOAD DUP3 LT ISZERO PUSH2 0x191D JUMPI PUSH16 0x181899199A1A9B1B9C1CB0B131B232B3 PUSH1 0x81 SHL PUSH1 0xF DUP3 AND BYTE DUP10 DUP4 ADD PUSH1 0x20 ADD MSTORE8 PUSH1 0x4 SHR SWAP1 DUP1 ISZERO PUSH2 0x1907 JUMPI PUSH1 0x0 NOT ADD PUSH2 0x1454 JUMP JUMPDEST PUSH4 0x4E487B71 PUSH1 0xE0 SHL PUSH1 0x0 MSTORE PUSH1 0x11 PUSH1 0x4 MSTORE PUSH1 0x24 PUSH1 0x0 REVERT JUMPDEST PUSH4 0x4E487B71 PUSH1 0xE0 SHL PUSH1 0x0 MSTORE PUSH1 0x32 PUSH1 0x4 MSTORE PUSH1 0x24 PUSH1 0x0 REVERT JUMPDEST PUSH4 0x4E487B71 PUSH1 0xE0 SHL PUSH1 0x0 MSTORE PUSH1 0x41 PUSH1 0x4 MSTORE PUSH1 0x24 PUSH1 0x0 REVERT JUMPDEST PUSH2 0x1286 PUSH2 0x105 PUSH1 0x20 SWAP5 PUSH2 0x137D SWAP7 PUSH2 0x1110 PUSH1 0x40 MLOAD PUSH2 0x1965 DUP2 PUSH2 0x2BD3 JUMP JUMPDEST PUSH1 0x0 DUP2 MSTORE PUSH2 0xD81 JUMP JUMPDEST PUSH1 0x20 DUP5 ADD MLOAD PUSH2 0x3B1 JUMP JUMPDEST POP DUP4 MLOAD PUSH1 0x40 MLOAD PUSH2 0x1998 PUSH1 0x20 DUP3 DUP2 PUSH2 0x2CB DUP2 DUP4 ADD SWAP7 DUP8 DUP2 MLOAD SWAP4 DUP5 SWAP3 ADD PUSH2 0x2AD5 JUMP JUMPDEST MLOAD SWAP1 KECCAK256 PUSH1 0x40 MLOAD PUSH1 0x20 DUP2 ADD SWAP1 PUSH12 0x2334B730B6102BB2B0B837B7 PUSH1 0xA1 SHL DUP3 MSTORE PUSH1 0xC DUP2 MSTORE PUSH2 0x19C2 DUP2 PUSH2 0x2BEE JUMP JUMPDEST MLOAD SWAP1 KECCAK256 EQ PUSH2 0x38E JUMP JUMPDEST PUSH1 0x40 MLOAD PUSH2 0x19D7 DUP2 PUSH2 0x2BEE JUMP JUMPDEST PUSH1 0x7 DUP2 MSTORE PUSH7 0x2334414445383 PUSH1 0xCC SHL PUSH1 0x20 DUP3 ADD MSTORE PUSH2 0x339 JUMP JUMPDEST POP DUP2 MLOAD PUSH1 0x40 MLOAD PUSH2 0x1A10 PUSH1 0x20 DUP3 DUP2 PUSH2 0x2CB DUP2 DUP4 ADD SWAP7 DUP8 DUP2 MLOAD SWAP4 DUP5 SWAP3 ADD PUSH2 0x2AD5 JUMP JUMPDEST MLOAD SWAP1 KECCAK256 PUSH1 0x40 MLOAD PUSH1 0x20 DUP2 ADD SWAP1 PUSH12 0x5368696E696E6720506F6F7 PUSH1 0xA4 SHL DUP3 MSTORE PUSH1 0xC DUP2 MSTORE PUSH2 0x1A3A DUP2 PUSH2 0x2BEE JUMP JUMPDEST MLOAD SWAP1 KECCAK256 EQ PUSH2 0x312 JUMP JUMPDEST PUSH1 0x4 LT ISZERO PUSH2 0x1A70 JUMPI PUSH1 0x40 MLOAD PUSH2 0x1A57 DUP2 PUSH2 0x2BEE JUMP JUMPDEST PUSH1 0x7 DUP2 MSTORE PUSH7 0x2346463838303 PUSH1 0xCC SHL PUSH1 0x20 DUP3 ADD MSTORE PUSH2 0x2AC JUMP JUMPDEST PUSH1 0x40 MLOAD PUSH2 0x1A7C DUP2 PUSH2 0x2BEE JUMP JUMPDEST PUSH1 0x7 DUP2 MSTORE PUSH7 0x2338384646303 PUSH1 0xCC SHL PUSH1 0x20 DUP3 ADD MSTORE PUSH2 0x2AC JUMP JUMPDEST CALLVALUE PUSH2 0x194 JUMPI PUSH1 0x80 CALLDATASIZE PUSH1 0x3 NOT ADD SLT PUSH2 0x194 JUMPI PUSH2 0x1AAE PUSH2 0x2B1D JUMP JUMPDEST PUSH2 0x1AB6 PUSH2 0x2B33 JUMP JUMPDEST SWAP1 PUSH1 0x44 CALLDATALOAD PUSH1 0x64 CALLDATALOAD SWAP3 PUSH1 0x1 PUSH1 0x1 PUSH1 0x40 SHL SUB DUP5 GT PUSH2 0x194 JUMPI CALLDATASIZE PUSH1 0x23 DUP6 ADD SLT ISZERO PUSH2 0x194 JUMPI PUSH2 0x1AEE PUSH2 0x1B00 SWAP5 CALLDATASIZE SWAP1 PUSH1 0x24 DUP2 PUSH1 0x4 ADD CALLDATALOAD SWAP2 ADD PUSH2 0x2D22 JUMP JUMPDEST SWAP3 PUSH2 0x1AFA DUP4 DUP4 DUP4 PUSH2 0x2DDC JUMP JUMPDEST CALLER PUSH2 0x30F9 JUMP JUMPDEST STOP JUMPDEST CALLVALUE PUSH2 0x194 JUMPI PUSH1 0xA0 CALLDATASIZE PUSH1 0x3 NOT ADD SLT PUSH2 0x194 JUMPI PUSH2 0x1B1B PUSH2 0x2B1D JUMP JUMPDEST PUSH1 0x24 CALLDATALOAD PUSH1 0x1 PUSH1 0x1 PUSH1 0x40 SHL SUB DUP2 GT PUSH2 0x194 JUMPI PUSH2 0x1B3A SWAP1 CALLDATASIZE SWAP1 PUSH1 0x4 ADD PUSH2 0x2D59 JUMP JUMPDEST PUSH1 0x44 CALLDATALOAD PUSH1 0x1 PUSH1 0x1 PUSH1 0x40 SHL SUB DUP2 GT PUSH2 0x194 JUMPI PUSH2 0x1B59 SWAP1 CALLDATASIZE SWAP1 PUSH1 0x4 ADD PUSH2 0x2D59 JUMP JUMPDEST SWAP1 PUSH1 0x64 CALLDATALOAD PUSH1 0x1 PUSH1 0x1 PUSH1 0x40 SHL SUB DUP2 GT PUSH2 0x194 JUMPI PUSH2 0x1B79 SWAP1 CALLDATASIZE SWAP1 PUSH1 0x4 ADD PUSH2 0x2D59 JUMP JUMPDEST SWAP2 PUSH1 0x84 CALLDATALOAD SWAP1 PUSH1 0xFF DUP3 AND DUP3 SUB PUSH2 0x194 JUMPI PUSH1 0x1 PUSH1 0x1 PUSH1 0xA0 SHL SUB DUP6 AND ISZERO PUSH2 0x23EE JUMPI PUSH1 0xA PUSH1 0xFF DUP4 AND GT PUSH2 0x239D JUMPI DUP3 MLOAD ISZERO PUSH2 0x235F JUMPI PUSH1 0xC SLOAD SWAP4 PUSH1 0x0 NOT DUP6 EQ PUSH2 0x1907 JUMPI PUSH1 0x1 DUP6 ADD PUSH1 0xC SSTORE PUSH1 0x40 MLOAD SWAP2 PUSH2 0x1BCA DUP4 PUSH2 0x2BB8 JUMP JUMPDEST DUP5 DUP4 MSTORE PUSH1 0x20 DUP4 ADD MSTORE PUSH1 0x40 DUP3 ADD MSTORE PUSH1 0xFF DUP3 AND PUSH1 0x60 DUP3 ADD MSTORE TIMESTAMP PUSH1 0x80 DUP3 ADD MSTORE CALLER PUSH1 0xA0 DUP3 ADD MSTORE DUP4 PUSH1 0x0 MSTORE PUSH1 0xD PUSH1 0x20 MSTORE PUSH1 0x40 PUSH1 0x0 KECCAK256 DUP2 MLOAD DUP1 MLOAD SWAP1 PUSH1 0x1 PUSH1 0x1 PUSH1 0x40 SHL SUB DUP3 GT PUSH2 0x1933 JUMPI DUP2 SWAP1 PUSH2 0x1C19 DUP5 SLOAD PUSH2 0x2B7E JUMP JUMPDEST PUSH1 0x1F DUP2 GT PUSH2 0x230F JUMPI JUMPDEST POP PUSH1 0x20 SWAP1 PUSH1 0x1F DUP4 GT PUSH1 0x1 EQ PUSH2 0x22A9 JUMPI PUSH1 0x0 SWAP3 PUSH2 0x229E JUMPI JUMPDEST POP POP DUP2 PUSH1 0x1 SHL SWAP2 PUSH1 0x0 NOT SWAP1 PUSH1 0x3 SHL SHR NOT AND OR DUP2 SSTORE JUMPDEST PUSH1 0x20 DUP3 ADD MLOAD DUP1 MLOAD SWAP1 PUSH1 0x1 PUSH1 0x1 PUSH1 0x40 SHL SUB DUP3 GT PUSH2 0x1933 JUMPI DUP2 SWAP1 PUSH2 0x1C73 PUSH1 0x1 DUP6 ADD SLOAD PUSH2 0x2B7E JUMP JUMPDEST PUSH1 0x1F DUP2 GT PUSH2 0x224B JUMPI JUMPDEST POP PUSH1 0x20 SWAP1 PUSH1 0x1F DUP4 GT PUSH1 0x1 EQ PUSH2 0x21DE JUMPI PUSH1 0x0 SWAP3 PUSH2 0x21D3 JUMPI JUMPDEST POP POP DUP2 PUSH1 0x1 SHL SWAP2 PUSH1 0x0 NOT SWAP1 PUSH1 0x3 SHL SHR NOT AND OR PUSH1 0x1 DUP3 ADD SSTORE JUMPDEST PUSH1 0x40 DUP3 ADD MLOAD DUP1 MLOAD SWAP1 PUSH1 0x1 PUSH1 0x1 PUSH1 0x40 SHL SUB DUP3 GT PUSH2 0x1933 JUMPI PUSH2 0x1CCE PUSH1 0x2 DUP5 ADD SLOAD PUSH2 0x2B7E JUMP JUMPDEST PUSH1 0x1F DUP2 GT PUSH2 0x218C JUMPI JUMPDEST POP PUSH1 0x20 SWAP1 PUSH1 0x1F DUP4 GT PUSH1 0x1 EQ PUSH2 0x2119 JUMPI PUSH1 0x5 SWAP4 SWAP3 SWAP2 PUSH1 0x0 SWAP2 DUP4 PUSH2 0x210E JUMPI JUMPDEST POP POP DUP2 PUSH1 0x1 SHL SWAP2 PUSH1 0x0 NOT SWAP1 PUSH1 0x3 SHL SHR NOT AND OR PUSH1 0x2 DUP3 ADD SSTORE JUMPDEST PUSH1 0x3 DUP2 ADD PUSH1 0xFF PUSH1 0x60 DUP6 ADD MLOAD AND PUSH1 0xFF NOT DUP3 SLOAD AND OR SWAP1 SSTORE PUSH1 0x80 DUP4 ADD MLOAD PUSH1 0x4 DUP3 ADD SSTORE ADD SWAP1 PUSH1 0xA0 PUSH1 0x1 DUP1 DUP3 SHL SUB SWAP2 ADD MLOAD AND SWAP1 PUSH12 0xFFFFFFFFFFFFFFFFFFFFFFFF PUSH1 0xA0 SHL SWAP2 DUP3 DUP3 SLOAD AND OR SWAP1 SSTORE PUSH1 0x40 MLOAD SWAP1 PUSH2 0x1D5F DUP3 PUSH2 0x2BD3 JUMP JUMPDEST PUSH1 0x0 DUP1 DUP4 MSTORE DUP6 DUP2 MSTORE PUSH1 0x2 PUSH1 0x20 MSTORE PUSH1 0x40 SWAP1 KECCAK256 SLOAD PUSH1 0x1 PUSH1 0x1 PUSH1 0xA0 SHL SUB AND DUP1 ISZERO DUP1 ISZERO SWAP3 DUP4 PUSH2 0x20D7 JUMPI JUMPDEST PUSH1 0x1 PUSH1 0x1 PUSH1 0xA0 SHL SUB DUP10 AND PUSH1 0x0 DUP2 DUP2 MSTORE PUSH1 0x3 PUSH1 0x20 SWAP1 DUP2 MSTORE PUSH1 0x40 DUP1 DUP4 KECCAK256 DUP1 SLOAD PUSH1 0x1 ADD SWAP1 SSTORE DUP12 DUP4 MSTORE PUSH1 0x2 SWAP1 SWAP2 MSTORE DUP2 KECCAK256 DUP1 SLOAD SWAP1 SWAP4 AND DUP3 OR SWAP1 SWAP3 SSTORE DUP9 SWAP2 DUP5 SWAP1 PUSH32 0xDDF252AD1BE2C89B69C2B068FC378DAA952BA7F163C4A11628F55A4DF523B3EF SWAP1 DUP1 LOG4 ISZERO PUSH2 0x2047 JUMPI PUSH1 0x9 SLOAD DUP7 PUSH1 0x0 MSTORE PUSH1 0xA PUSH1 0x20 MSTORE DUP1 PUSH1 0x40 PUSH1 0x0 KECCAK256 SSTORE PUSH1 0x1 PUSH1 0x40 SHL DUP2 LT ISZERO PUSH2 0x1933 JUMPI DUP7 PUSH2 0x1E1B DUP3 PUSH1 0x1 PUSH2 0x1E34 SWAP5 ADD PUSH1 0x9 SSTORE PUSH2 0x30C2 JUMP JUMPDEST SWAP1 SWAP2 SWAP1 DUP3 SLOAD SWAP1 PUSH1 0x3 SHL SWAP2 DUP3 SHL SWAP2 PUSH1 0x0 NOT SWAP1 SHL NOT AND OR SWAP1 SSTORE JUMP JUMPDEST PUSH1 0x1 PUSH1 0x1 PUSH1 0xA0 SHL SUB DUP8 AND SUB PUSH2 0x1FFA JUMPI JUMPDEST PUSH2 0x1FE1 JUMPI DUP5 EXTCODESIZE PUSH2 0x1EAB JUMPI JUMPDEST POP DUP3 PUSH32 0x865D562D0B6B74E1077F5025AE1B9834BA89AF77C7F1444CBDB18CBEF8C3527 PUSH1 0x20 SWAP6 PUSH1 0xFF PUSH2 0x1E8C PUSH1 0x40 MLOAD SWAP7 PUSH1 0x40 DUP9 MSTORE PUSH1 0x40 DUP9 ADD SWAP1 PUSH2 0x2AF8 JUMP JUMPDEST SWAP5 AND DUP6 DUP9 ADD MSTORE PUSH1 0x1 PUSH1 0x1 PUSH1 0xA0 SHL SUB AND SWAP4 CALLER SWAP4 DUP2 SWAP1 SUB SWAP1 LOG4 PUSH1 0x40 MLOAD SWAP1 DUP2 MSTORE RETURN JUMPDEST PUSH1 0x40 MLOAD PUSH1 0x20 DUP2 DUP1 PUSH2 0x1EE5 PUSH4 0xA85BD01 PUSH1 0xE1 SHL SWAP6 DUP7 DUP4 MSTORE CALLER PUSH1 0x4 DUP5 ADD MSTORE PUSH1 0x0 PUSH1 0x24 DUP5 ADD MSTORE DUP10 PUSH1 0x44 DUP5 ADD MSTORE PUSH1 0x80 PUSH1 0x64 DUP5 ADD MSTORE PUSH1 0x84 DUP4 ADD SWAP1 PUSH2 0x2AF8 JUMP JUMPDEST SUB DUP2 PUSH1 0x0 PUSH1 0x1 PUSH1 0x1 PUSH1 0xA0 SHL SUB DUP12 AND GAS CALL PUSH1 0x0 SWAP2 DUP2 PUSH2 0x1F9C JUMPI JUMPDEST POP PUSH2 0x1F66 JUMPI DUP6 RETURNDATASIZE ISZERO PUSH2 0x1F5E JUMPI RETURNDATASIZE SWAP1 PUSH2 0x1F15 DUP3 PUSH2 0x2D07 JUMP JUMPDEST SWAP2 PUSH2 0x1F23 PUSH1 0x40 MLOAD SWAP4 DUP5 PUSH2 0x2C40 JUMP JUMPDEST DUP3 MSTORE RETURNDATASIZE PUSH1 0x0 PUSH1 0x20 DUP5 ADD RETURNDATACOPY JUMPDEST DUP2 MLOAD SWAP2 DUP3 PUSH2 0x1F57 JUMPI PUSH1 0x40 MLOAD PUSH4 0x32505749 PUSH1 0xE1 SHL DUP2 MSTORE PUSH1 0x1 PUSH1 0x1 PUSH1 0xA0 SHL SUB DUP4 AND PUSH1 0x4 DUP3 ADD MSTORE PUSH1 0x24 SWAP1 REVERT JUMPDEST PUSH1 0x20 SWAP2 POP ADD REVERT JUMPDEST PUSH1 0x60 SWAP1 PUSH2 0x1F2E JUMP JUMPDEST PUSH1 0x1 PUSH1 0x1 PUSH1 0xE0 SHL SUB NOT AND SUB PUSH2 0x1F7B JUMPI DUP3 PUSH2 0x1E4F JUMP JUMPDEST PUSH1 0x40 MLOAD PUSH4 0x32505749 PUSH1 0xE1 SHL DUP2 MSTORE PUSH1 0x1 PUSH1 0x1 PUSH1 0xA0 SHL SUB DUP6 AND PUSH1 0x4 DUP3 ADD MSTORE PUSH1 0x24 SWAP1 REVERT JUMPDEST SWAP1 SWAP2 POP PUSH1 0x20 DUP2 RETURNDATASIZE PUSH1 0x20 GT PUSH2 0x1FD9 JUMPI JUMPDEST DUP2 PUSH2 0x1FB8 PUSH1 0x20 SWAP4 DUP4 PUSH2 0x2C40 JUMP JUMPDEST DUP2 ADD SUB SLT PUSH2 0x194 JUMPI MLOAD PUSH1 0x1 PUSH1 0x1 PUSH1 0xE0 SHL SUB NOT DUP2 AND DUP2 SUB PUSH2 0x194 JUMPI SWAP1 DUP8 PUSH2 0x1EFE JUMP JUMPDEST RETURNDATASIZE SWAP2 POP PUSH2 0x1FAB JUMP JUMPDEST PUSH1 0x40 MLOAD PUSH4 0x39E35637 PUSH1 0xE1 SHL DUP2 MSTORE PUSH1 0x0 PUSH1 0x4 DUP3 ADD MSTORE PUSH1 0x24 SWAP1 REVERT JUMPDEST PUSH2 0x2003 DUP7 PUSH2 0x2DA3 JUMP JUMPDEST PUSH1 0x0 NOT DUP2 ADD SWAP1 DUP2 GT PUSH2 0x1907 JUMPI PUSH1 0x1 DUP1 PUSH1 0xA0 SHL SUB DUP8 AND PUSH1 0x0 MSTORE PUSH1 0x7 PUSH1 0x20 MSTORE PUSH1 0x40 PUSH1 0x0 KECCAK256 DUP2 PUSH1 0x0 MSTORE PUSH1 0x20 MSTORE DUP6 PUSH1 0x40 PUSH1 0x0 KECCAK256 SSTORE DUP6 PUSH1 0x0 MSTORE PUSH1 0x8 PUSH1 0x20 MSTORE PUSH1 0x40 PUSH1 0x0 KECCAK256 SSTORE PUSH2 0x1E44 JUMP JUMPDEST PUSH1 0x1 PUSH1 0x1 PUSH1 0xA0 SHL SUB DUP8 AND DUP2 EQ PUSH2 0x1E34 JUMPI PUSH2 0x2060 DUP2 PUSH2 0x2DA3 JUMP JUMPDEST DUP7 PUSH1 0x0 MSTORE PUSH1 0x8 PUSH1 0x20 MSTORE PUSH1 0x40 PUSH1 0x0 KECCAK256 SLOAD SWAP1 DUP3 PUSH1 0x0 MSTORE PUSH1 0x7 PUSH1 0x20 MSTORE PUSH1 0x40 PUSH1 0x0 KECCAK256 SWAP2 DUP2 DUP2 SUB PUSH2 0x20AA JUMPI JUMPDEST POP DUP8 PUSH1 0x0 MSTORE PUSH1 0x8 PUSH1 0x20 MSTORE PUSH1 0x0 PUSH1 0x40 DUP2 KECCAK256 SSTORE PUSH1 0x0 MSTORE PUSH1 0x20 MSTORE PUSH1 0x0 PUSH1 0x40 DUP2 KECCAK256 SSTORE PUSH2 0x1E34 JUMP JUMPDEST DUP2 PUSH1 0x0 MSTORE DUP3 PUSH1 0x20 MSTORE PUSH1 0x40 PUSH1 0x0 KECCAK256 SLOAD DUP2 PUSH1 0x0 MSTORE DUP1 PUSH1 0x40 PUSH1 0x0 KECCAK256 SSTORE PUSH1 0x0 MSTORE PUSH1 0x8 PUSH1 0x20 MSTORE PUSH1 0x40 PUSH1 0x0 KECCAK256 SSTORE DUP10 PUSH2 0x2087 JUMP JUMPDEST PUSH1 0x0 DUP9 DUP2 MSTORE PUSH1 0x4 PUSH1 0x20 MSTORE PUSH1 0x40 SWAP1 KECCAK256 DUP1 SLOAD PUSH1 0x1 PUSH1 0x1 PUSH1 0xA0 SHL SUB NOT AND SWAP1 SSTORE DUP3 PUSH1 0x0 MSTORE PUSH1 0x3 PUSH1 0x20 MSTORE PUSH1 0x40 PUSH1 0x0 KECCAK256 PUSH1 0x0 NOT DUP2 SLOAD ADD SWAP1 SSTORE PUSH2 0x1D85 JUMP JUMPDEST ADD MLOAD SWAP1 POP DUP10 DUP1 PUSH2 0x1CF4 JUMP JUMPDEST SWAP1 PUSH1 0x2 DUP5 ADD PUSH1 0x0 MSTORE PUSH1 0x20 PUSH1 0x0 KECCAK256 SWAP2 PUSH1 0x0 JUMPDEST PUSH1 0x1F NOT DUP6 AND DUP2 LT PUSH2 0x2174 JUMPI POP SWAP2 DUP4 SWAP2 PUSH1 0x1 SWAP4 PUSH1 0x5 SWAP7 SWAP6 PUSH1 0x1F NOT DUP2 AND LT PUSH2 0x215B JUMPI JUMPDEST POP POP POP DUP2 SHL ADD PUSH1 0x2 DUP3 ADD SSTORE PUSH2 0x1D0C JUMP JUMPDEST ADD MLOAD PUSH1 0x0 NOT PUSH1 0xF8 DUP5 PUSH1 0x3 SHL AND SHR NOT AND SWAP1 SSTORE DUP10 DUP1 DUP1 PUSH2 0x214B JUMP JUMPDEST SWAP2 SWAP3 PUSH1 0x20 PUSH1 0x1 DUP2 SWAP3 DUP7 DUP6 ADD MLOAD DUP2 SSTORE ADD SWAP5 ADD SWAP3 ADD PUSH2 0x212A JUMP JUMPDEST PUSH1 0x2 DUP5 ADD PUSH1 0x0 MSTORE PUSH1 0x20 PUSH1 0x0 KECCAK256 PUSH1 0x1F DUP5 ADD PUSH1 0x5 SHR DUP2 ADD PUSH1 0x20 DUP6 LT PUSH2 0x21CC JUMPI JUMPDEST PUSH1 0x1F DUP4 ADD PUSH1 0x5 SHR DUP3 ADD DUP2 LT PUSH2 0x21C0 JUMPI POP POP PUSH2 0x1CD7 JUMP JUMPDEST PUSH1 0x0 DUP2 SSTORE PUSH1 0x1 ADD PUSH2 0x21AA JUMP JUMPDEST POP DUP1 PUSH2 0x21AA JUMP JUMPDEST ADD MLOAD SWAP1 POP DUP9 DUP1 PUSH2 0x1C93 JUMP JUMPDEST PUSH1 0x1 DUP6 ADD PUSH1 0x0 SWAP1 DUP2 MSTORE PUSH1 0x20 DUP2 KECCAK256 SWAP4 POP PUSH1 0x1F NOT DUP6 AND SWAP1 JUMPDEST DUP2 DUP2 LT PUSH2 0x2233 JUMPI POP SWAP1 DUP5 PUSH1 0x1 SWAP6 SWAP5 SWAP4 SWAP3 LT PUSH2 0x221A JUMPI JUMPDEST POP POP POP DUP2 SHL ADD PUSH1 0x1 DUP3 ADD SSTORE PUSH2 0x1CAB JUMP JUMPDEST ADD MLOAD PUSH1 0x0 NOT PUSH1 0xF8 DUP5 PUSH1 0x3 SHL AND SHR NOT AND SWAP1 SSTORE DUP9 DUP1 DUP1 PUSH2 0x220A JUMP JUMPDEST SWAP3 SWAP4 PUSH1 0x20 PUSH1 0x1 DUP2 SWAP3 DUP8 DUP7 ADD MLOAD DUP2 SSTORE ADD SWAP6 ADD SWAP4 ADD PUSH2 0x21F4 JUMP JUMPDEST SWAP1 SWAP2 POP PUSH1 0x1 DUP5 ADD PUSH1 0x0 MSTORE PUSH1 0x20 PUSH1 0x0 KECCAK256 PUSH1 0x1F DUP5 ADD PUSH1 0x5 SHR DUP2 ADD PUSH1 0x20 DUP6 LT PUSH2 0x2297 JUMPI JUMPDEST SWAP1 DUP5 SWAP4 SWAP3 SWAP2 JUMPDEST PUSH1 0x1F DUP4 ADD PUSH1 0x5 SHR DUP3 ADD DUP2 LT PUSH2 0x2288 JUMPI POP POP PUSH2 0x1C7C JUMP JUMPDEST PUSH1 0x0 DUP2 SSTORE DUP6 SWAP5 POP PUSH1 0x1 ADD PUSH2 0x2272 JUMP JUMPDEST POP DUP1 PUSH2 0x226C JUMP JUMPDEST ADD MLOAD SWAP1 POP DUP9 DUP1 PUSH2 0x1C39 JUMP JUMPDEST PUSH1 0x0 DUP6 DUP2 MSTORE PUSH1 0x20 DUP2 KECCAK256 SWAP4 POP PUSH1 0x1F NOT DUP6 AND SWAP1 JUMPDEST DUP2 DUP2 LT PUSH2 0x22F7 JUMPI POP SWAP1 DUP5 PUSH1 0x1 SWAP6 SWAP5 SWAP4 SWAP3 LT PUSH2 0x22DE JUMPI JUMPDEST POP POP POP DUP2 SHL ADD DUP2 SSTORE PUSH2 0x1C4E JUMP JUMPDEST ADD MLOAD PUSH1 0x0 NOT PUSH1 0xF8 DUP5 PUSH1 0x3 SHL AND SHR NOT AND SWAP1 SSTORE DUP9 DUP1 DUP1 PUSH2 0x22D1 JUMP JUMPDEST SWAP3 SWAP4 PUSH1 0x20 PUSH1 0x1 DUP2 SWAP3 DUP8 DUP7 ADD MLOAD DUP2 SSTORE ADD SWAP6 ADD SWAP4 ADD PUSH2 0x22BB JUMP JUMPDEST SWAP1 SWAP2 POP DUP4 PUSH1 0x0 MSTORE PUSH1 0x20 PUSH1 0x0 KECCAK256 PUSH1 0x1F DUP5 ADD PUSH1 0x5 SHR DUP2 ADD PUSH1 0x20 DUP6 LT PUSH2 0x2358 JUMPI JUMPDEST SWAP1 DUP5 SWAP4 SWAP3 SWAP2 JUMPDEST PUSH1 0x1F DUP4 ADD PUSH1 0x5 SHR DUP3 ADD DUP2 LT PUSH2 0x2349 JUMPI POP POP PUSH2 0x1C22 JUMP JUMPDEST PUSH1 0x0 DUP2 SSTORE DUP6 SWAP5 POP PUSH1 0x1 ADD PUSH2 0x2333 JUMP JUMPDEST POP DUP1 PUSH2 0x232D JUMP JUMPDEST PUSH1 0x40 MLOAD PUSH3 0x461BCD PUSH1 0xE5 SHL DUP2 MSTORE PUSH1 0x20 PUSH1 0x4 DUP3 ADD MSTORE PUSH1 0x16 PUSH1 0x24 DUP3 ADD MSTORE PUSH22 0x5472617368206D75737420686176652061206E616D65 PUSH1 0x50 SHL PUSH1 0x44 DUP3 ADD MSTORE PUSH1 0x64 SWAP1 REVERT JUMPDEST PUSH1 0x40 MLOAD PUSH3 0x461BCD PUSH1 0xE5 SHL DUP2 MSTORE PUSH1 0x20 PUSH1 0x4 DUP3 ADD MSTORE PUSH1 0x23 PUSH1 0x24 DUP3 ADD MSTORE PUSH32 0x5374696E6B206C6576656C20746F6F2068696768206576656E20666F72207472 PUSH1 0x44 DUP3 ADD MSTORE PUSH3 0xC2E6D PUSH1 0xEB SHL PUSH1 0x64 DUP3 ADD MSTORE PUSH1 0x84 SWAP1 REVERT JUMPDEST PUSH1 0x64 PUSH1 0x40 MLOAD PUSH3 0x461BCD PUSH1 0xE5 SHL DUP2 MSTORE PUSH1 0x20 PUSH1 0x4 DUP3 ADD MSTORE PUSH1 0x20 PUSH1 0x24 DUP3 ADD MSTORE PUSH32 0x43616E6E6F74207468726F7720747261736820696E746F2074686520766F6964 PUSH1 0x44 DUP3 ADD MSTORE REVERT JUMPDEST CALLVALUE PUSH2 0x194 JUMPI PUSH1 0x40 CALLDATASIZE PUSH1 0x3 NOT ADD SLT PUSH2 0x194 JUMPI PUSH2 0x244B PUSH2 0x2B1D JUMP JUMPDEST PUSH1 0x24 CALLDATALOAD SWAP1 DUP2 ISZERO ISZERO DUP1 SWAP3 SUB PUSH2 0x194 JUMPI PUSH1 0x1 PUSH1 0x1 PUSH1 0xA0 SHL SUB AND SWAP1 DUP2 ISZERO PUSH2 0x24BE JUMPI CALLER PUSH1 0x0 MSTORE PUSH1 0x5 PUSH1 0x20 MSTORE PUSH1 0x40 PUSH1 0x0 KECCAK256 DUP3 PUSH1 0x0 MSTORE PUSH1 0x20 MSTORE PUSH1 0x40 PUSH1 0x0 KECCAK256 PUSH1 0xFF NOT DUP2 SLOAD AND PUSH1 0xFF DUP4 AND OR SWAP1 SSTORE PUSH1 0x40 MLOAD SWAP1 DUP2 MSTORE PUSH32 0x17307EAB39AB6107E8899845AD3D59BD9653F200F220920489CA2B5937696C31 PUSH1 0x20 CALLER SWAP3 LOG3 STOP JUMPDEST PUSH1 0x40 MLOAD PUSH4 0xB611743 PUSH1 0xE3 SHL DUP2 MSTORE PUSH1 0x4 DUP2 ADD DUP4 SWAP1 MSTORE PUSH1 0x24 SWAP1 REVERT JUMPDEST CALLVALUE PUSH2 0x194 JUMPI PUSH1 0x0 CALLDATASIZE PUSH1 0x3 NOT ADD SLT PUSH2 0x194 JUMPI PUSH1 0x40 MLOAD PUSH1 0x0 PUSH1 0x1 DUP1 SLOAD SWAP1 PUSH2 0x24FB DUP3 PUSH2 0x2B7E JUMP JUMPDEST DUP1 DUP6 MSTORE SWAP2 DUP2 DUP2 AND SWAP1 DUP2 ISZERO PUSH2 0x257B JUMPI POP PUSH1 0x1 EQ PUSH2 0x2522 JUMPI JUMPDEST PUSH2 0x189B DUP5 PUSH2 0x1887 DUP2 DUP7 SUB DUP3 PUSH2 0x2C40 JUMP JUMPDEST PUSH1 0x0 DUP2 DUP2 MSTORE SWAP3 POP PUSH32 0xB10E2D527612073B26EECDFD717E6A320CF44B4AFAC2B0732D9FCBE2B7FA0CF6 JUMPDEST DUP3 DUP5 LT PUSH2 0x2563 JUMPI POP POP POP DUP2 ADD PUSH1 0x20 ADD PUSH2 0x1887 DUP3 PUSH2 0x2512 JUMP JUMPDEST DUP1 SLOAD PUSH1 0x20 DUP6 DUP8 ADD DUP2 ADD SWAP2 SWAP1 SWAP2 MSTORE SWAP1 SWAP4 ADD SWAP3 DUP2 ADD PUSH2 0x254B JUMP JUMPDEST PUSH1 0xFF NOT AND PUSH1 0x20 DUP1 DUP8 ADD SWAP2 SWAP1 SWAP2 MSTORE SWAP3 ISZERO ISZERO PUSH1 0x5 SHL DUP6 ADD SWAP1 SWAP3 ADD SWAP3 POP PUSH2 0x1887 SWAP2 POP DUP4 SWAP1 POP PUSH2 0x2512 JUMP JUMPDEST CALLVALUE PUSH2 0x194 JUMPI PUSH1 0x0 CALLDATASIZE PUSH1 0x3 NOT ADD SLT PUSH2 0x194 JUMPI PUSH1 0xB SLOAD PUSH1 0x40 MLOAD PUSH1 0x1 PUSH1 0x1 PUSH1 0xA0 SHL SUB SWAP1 SWAP2 AND DUP2 MSTORE PUSH1 0x20 SWAP1 RETURN JUMPDEST CALLVALUE PUSH2 0x194 JUMPI PUSH1 0x20 CALLDATASIZE PUSH1 0x3 NOT ADD SLT PUSH2 0x194 JUMPI PUSH1 0x4 CALLDATALOAD PUSH1 0x0 MSTORE PUSH1 0xD PUSH1 0x20 MSTORE PUSH2 0x2649 PUSH1 0x40 PUSH1 0x0 KECCAK256 PUSH2 0x25F8 DUP2 PUSH2 0x2C61 JUMP JUMPDEST SWAP1 PUSH2 0x2605 PUSH1 0x1 DUP3 ADD PUSH2 0x2C61 JUMP JUMPDEST PUSH2 0x2611 PUSH1 0x2 DUP4 ADD PUSH2 0x2C61 JUMP JUMPDEST SWAP2 PUSH2 0x2665 PUSH1 0xFF PUSH1 0x3 DUP4 ADD SLOAD AND SWAP4 PUSH2 0x2657 PUSH1 0x4 DUP5 ADD SLOAD SWAP4 PUSH1 0x5 PUSH1 0x1 DUP1 PUSH1 0xA0 SHL SUB SWAP2 ADD SLOAD AND SWAP5 PUSH1 0x40 MLOAD SWAP9 DUP10 SWAP9 PUSH1 0xC0 DUP11 MSTORE PUSH1 0xC0 DUP11 ADD SWAP1 PUSH2 0x2AF8 JUMP JUMPDEST SWAP1 DUP9 DUP3 SUB PUSH1 0x20 DUP11 ADD MSTORE PUSH2 0x2AF8 JUMP JUMPDEST SWAP1 DUP7 DUP3 SUB PUSH1 0x40 DUP9 ADD MSTORE PUSH2 0x2AF8 JUMP JUMPDEST SWAP3 PUSH1 0x60 DUP6 ADD MSTORE PUSH1 0x80 DUP5 ADD MSTORE PUSH1 0xA0 DUP4 ADD MSTORE SUB SWAP1 RETURN JUMPDEST CALLVALUE PUSH2 0x194 JUMPI PUSH1 0x0 CALLDATASIZE PUSH1 0x3 NOT ADD SLT PUSH2 0x194 JUMPI PUSH2 0x2692 PUSH2 0x2D77 JUMP JUMPDEST PUSH1 0xB DUP1 SLOAD PUSH1 0x1 PUSH1 0x1 PUSH1 0xA0 SHL SUB NOT DUP2 AND SWAP1 SWAP2 SSTORE PUSH1 0x0 SWAP1 PUSH1 0x1 PUSH1 0x1 PUSH1 0xA0 SHL SUB AND PUSH32 0x8BE0079C531659141344CD1FD0A4F28419497F9722A3DAAFE3B4186F6B6457E0 DUP3 DUP1 LOG3 STOP JUMPDEST CALLVALUE PUSH2 0x194 JUMPI PUSH1 0x20 CALLDATASIZE PUSH1 0x3 NOT ADD SLT PUSH2 0x194 JUMPI PUSH1 0x20 PUSH2 0x26F9 PUSH2 0x26F4 PUSH2 0x2B1D JUMP JUMPDEST PUSH2 0x2DA3 JUMP JUMPDEST PUSH1 0x40 MLOAD SWAP1 DUP2 MSTORE RETURN JUMPDEST CALLVALUE PUSH2 0x194 JUMPI PUSH1 0x20 CALLDATASIZE PUSH1 0x3 NOT ADD SLT PUSH2 0x194 JUMPI PUSH1 0x20 PUSH2 0x271F PUSH1 0x4 CALLDATALOAD PUSH2 0x3087 JUMP JUMPDEST PUSH1 0x40 MLOAD PUSH1 0x1 PUSH1 0x1 PUSH1 0xA0 SHL SUB SWAP1 SWAP2 AND DUP2 MSTORE RETURN JUMPDEST CALLVALUE PUSH2 0x194 JUMPI PUSH1 0x20 CALLDATASIZE PUSH1 0x3 NOT ADD SLT PUSH2 0x194 JUMPI PUSH1 0x4 CALLDATALOAD PUSH1 0xC SLOAD DUP2 LT ISZERO PUSH2 0x2768 JUMPI PUSH2 0x275A PUSH1 0x20 SWAP2 PUSH2 0x30C2 JUMP JUMPDEST SWAP1 SLOAD PUSH1 0x40 MLOAD SWAP2 PUSH1 0x3 SHL SHR DUP2 MSTORE RETURN JUMPDEST PUSH1 0x44 SWAP1 PUSH1 0x40 MLOAD SWAP1 PUSH4 0x295F44F7 PUSH1 0xE2 SHL DUP3 MSTORE PUSH1 0x0 PUSH1 0x4 DUP4 ADD MSTORE PUSH1 0x24 DUP3 ADD MSTORE REVERT JUMPDEST CALLVALUE PUSH2 0x194 JUMPI PUSH2 0x1B00 PUSH2 0x2798 CALLDATASIZE PUSH2 0x2B49 JUMP JUMPDEST SWAP1 PUSH1 0x40 MLOAD SWAP3 PUSH2 0x27A6 DUP5 PUSH2 0x2BD3 JUMP JUMPDEST PUSH1 0x0 DUP5 MSTORE PUSH2 0x1AFA DUP4 DUP4 DUP4 PUSH2 0x2DDC JUMP JUMPDEST CALLVALUE PUSH2 0x194 JUMPI PUSH1 0x40 CALLDATASIZE PUSH1 0x3 NOT ADD SLT PUSH2 0x194 JUMPI PUSH2 0x27CE PUSH2 0x2B1D JUMP JUMPDEST PUSH1 0x24 CALLDATALOAD SWAP1 PUSH2 0x27DB DUP2 PUSH2 0x2DA3 JUMP JUMPDEST DUP3 LT ISZERO PUSH2 0x280E JUMPI PUSH1 0x1 DUP1 PUSH1 0xA0 SHL SUB AND PUSH1 0x0 MSTORE PUSH1 0x7 PUSH1 0x20 MSTORE PUSH1 0x40 PUSH1 0x0 KECCAK256 SWAP1 PUSH1 0x0 MSTORE PUSH1 0x20 MSTORE PUSH1 0x20 PUSH1 0x40 PUSH1 0x0 KECCAK256 SLOAD PUSH1 0x40 MLOAD SWAP1 DUP2 MSTORE RETURN JUMPDEST PUSH1 0x40 MLOAD PUSH4 0x295F44F7 PUSH1 0xE2 SHL DUP2 MSTORE PUSH1 0x1 PUSH1 0x1 PUSH1 0xA0 SHL SUB SWAP2 SWAP1 SWAP2 AND PUSH1 0x4 DUP3 ADD MSTORE PUSH1 0x24 DUP2 ADD SWAP2 SWAP1 SWAP2 MSTORE PUSH1 0x44 SWAP1 REVERT JUMPDEST CALLVALUE PUSH2 0x194 JUMPI PUSH2 0x1B00 PUSH2 0x284A CALLDATASIZE PUSH2 0x2B49 JUMP JUMPDEST SWAP2 PUSH2 0x2DDC JUMP JUMPDEST CALLVALUE PUSH2 0x194 JUMPI PUSH1 0x0 CALLDATASIZE PUSH1 0x3 NOT ADD SLT PUSH2 0x194 JUMPI PUSH1 0x20 PUSH1 0xC SLOAD PUSH1 0x40 MLOAD SWAP1 DUP2 MSTORE RETURN JUMPDEST CALLVALUE PUSH2 0x194 JUMPI PUSH1 0x40 CALLDATASIZE PUSH1 0x3 NOT ADD SLT PUSH2 0x194 JUMPI PUSH2 0x2887 PUSH2 0x2B1D JUMP JUMPDEST PUSH1 0x24 CALLDATALOAD PUSH2 0x2893 DUP2 PUSH2 0x3087 JUMP JUMPDEST CALLER ISZERO ISZERO DUP1 PUSH2 0x2942 JUMPI JUMPDEST DUP1 PUSH2 0x2915 JUMPI JUMPDEST PUSH2 0x28FD JUMPI PUSH1 0x1 PUSH1 0x1 PUSH1 0xA0 SHL SUB SWAP3 DUP4 AND SWAP3 DUP3 SWAP2 DUP5 SWAP2 AND PUSH32 0x8C5BE1E5EBEC7D5BD14F71427D1E84F3DD0314C0F7B2291E5B200AC8C7C3B925 PUSH1 0x0 DUP1 LOG4 PUSH1 0x0 SWAP1 DUP2 MSTORE PUSH1 0x4 PUSH1 0x20 MSTORE PUSH1 0x40 SWAP1 KECCAK256 DUP1 SLOAD PUSH1 0x1 PUSH1 0x1 PUSH1 0xA0 SHL SUB NOT AND SWAP1 SWAP2 OR SWAP1 SSTORE STOP JUMPDEST PUSH1 0x40 MLOAD PUSH4 0xA9FBF51F PUSH1 0xE0 SHL DUP2 MSTORE CALLER PUSH1 0x4 DUP3 ADD MSTORE PUSH1 0x24 SWAP1 REVERT JUMPDEST POP PUSH1 0x1 DUP1 PUSH1 0xA0 SHL SUB DUP2 AND PUSH1 0x0 MSTORE PUSH1 0x5 PUSH1 0x20 MSTORE PUSH1 0x40 PUSH1 0x0 KECCAK256 CALLER PUSH1 0x0 MSTORE PUSH1 0x20 MSTORE PUSH1 0xFF PUSH1 0x40 PUSH1 0x0 KECCAK256 SLOAD AND ISZERO PUSH2 0x28A2 JUMP JUMPDEST POP PUSH1 0x1 PUSH1 0x1 PUSH1 0xA0 SHL SUB DUP2 AND CALLER EQ ISZERO PUSH2 0x289C JUMP JUMPDEST CALLVALUE PUSH2 0x194 JUMPI PUSH1 0x20 CALLDATASIZE PUSH1 0x3 NOT ADD SLT PUSH2 0x194 JUMPI PUSH1 0x4 CALLDATALOAD PUSH2 0x2972 DUP2 PUSH2 0x3087 JUMP JUMPDEST POP PUSH1 0x0 MSTORE PUSH1 0x4 PUSH1 0x20 MSTORE PUSH1 0x20 PUSH1 0x1 DUP1 PUSH1 0xA0 SHL SUB PUSH1 0x40 PUSH1 0x0 KECCAK256 SLOAD AND PUSH1 0x40 MLOAD SWAP1 DUP2 MSTORE RETURN JUMPDEST CALLVALUE PUSH2 0x194 JUMPI PUSH1 0x0 CALLDATASIZE PUSH1 0x3 NOT ADD SLT PUSH2 0x194 JUMPI PUSH1 0x40 MLOAD PUSH1 0x0 DUP1 SLOAD PUSH2 0x29B4 DUP2 PUSH2 0x2B7E JUMP JUMPDEST DUP1 DUP5 MSTORE SWAP1 PUSH1 0x1 SWAP1 DUP2 DUP2 AND SWAP1 DUP2 ISZERO PUSH2 0x257B JUMPI POP PUSH1 0x1 EQ PUSH2 0x29DD JUMPI PUSH2 0x189B DUP5 PUSH2 0x1887 DUP2 DUP7 SUB DUP3 PUSH2 0x2C40 JUMP JUMPDEST PUSH1 0x0 DUP1 DUP1 MSTORE SWAP3 POP PUSH32 0x290DECD9548B62A8D60345A988386FC84BA6BC95484008F6362F93160EF3E563 JUMPDEST DUP3 DUP5 LT PUSH2 0x2A1E JUMPI POP POP POP DUP2 ADD PUSH1 0x20 ADD PUSH2 0x1887 DUP3 PUSH2 0x2512 JUMP JUMPDEST DUP1 SLOAD PUSH1 0x20 DUP6 DUP8 ADD DUP2 ADD SWAP2 SWAP1 SWAP2 MSTORE SWAP1 SWAP4 ADD SWAP3 DUP2 ADD PUSH2 0x2A06 JUMP JUMPDEST CALLVALUE PUSH2 0x194 JUMPI PUSH1 0x20 CALLDATASIZE PUSH1 0x3 NOT ADD SLT PUSH2 0x194 JUMPI PUSH1 0x4 CALLDATALOAD SWAP1 PUSH4 0xFFFFFFFF PUSH1 0xE0 SHL DUP3 AND DUP1 SWAP3 SUB PUSH2 0x194 JUMPI PUSH1 0x20 SWAP2 PUSH4 0x780E9D63 PUSH1 0xE0 SHL DUP2 EQ SWAP1 DUP2 ISZERO PUSH2 0x2A78 JUMPI JUMPDEST POP ISZERO ISZERO DUP2 MSTORE RETURN JUMPDEST PUSH4 0x24832483 PUSH1 0xE1 SHL DUP2 EQ SWAP2 POP DUP2 ISZERO PUSH2 0x2A92 JUMPI JUMPDEST POP DUP4 PUSH2 0x2A71 JUMP JUMPDEST PUSH4 0x80AC58CD PUSH1 0xE0 SHL DUP2 EQ SWAP2 POP DUP2 ISZERO PUSH2 0x2AC4 JUMPI JUMPDEST DUP2 ISZERO PUSH2 0x2AB3 JUMPI JUMPDEST POP DUP4 PUSH2 0x2A8B JUMP JUMPDEST PUSH4 0x1FFC9A7 PUSH1 0xE0 SHL EQ SWAP1 POP DUP4 PUSH2 0x2AAC JUMP JUMPDEST PUSH4 0x5B5E139F PUSH1 0xE0 SHL DUP2 EQ SWAP2 POP PUSH2 0x2AA5 JUMP JUMPDEST PUSH1 0x0 JUMPDEST DUP4 DUP2 LT PUSH2 0x2AE8 JUMPI POP POP PUSH1 0x0 SWAP2 ADD MSTORE JUMP JUMPDEST DUP2 DUP2 ADD MLOAD DUP4 DUP3 ADD MSTORE PUSH1 0x20 ADD PUSH2 0x2AD8 JUMP JUMPDEST SWAP1 PUSH1 0x20 SWAP2 PUSH2 0x2B11 DUP2 MLOAD DUP1 SWAP3 DUP2 DUP6 MSTORE DUP6 DUP1 DUP7 ADD SWAP2 ADD PUSH2 0x2AD5 JUMP JUMPDEST PUSH1 0x1F ADD PUSH1 0x1F NOT AND ADD ADD SWAP1 JUMP JUMPDEST PUSH1 0x4 CALLDATALOAD SWAP1 PUSH1 0x1 PUSH1 0x1 PUSH1 0xA0 SHL SUB DUP3 AND DUP3 SUB PUSH2 0x194 JUMPI JUMP JUMPDEST PUSH1 0x24 CALLDATALOAD SWAP1 PUSH1 0x1 PUSH1 0x1 PUSH1 0xA0 SHL SUB DUP3 AND DUP3 SUB PUSH2 0x194 JUMPI JUMP JUMPDEST PUSH1 0x60 SWAP1 PUSH1 0x3 NOT ADD SLT PUSH2 0x194 JUMPI PUSH1 0x1 PUSH1 0x1 PUSH1 0xA0 SHL SUB SWAP1 PUSH1 0x4 CALLDATALOAD DUP3 DUP2 AND DUP2 SUB PUSH2 0x194 JUMPI SWAP2 PUSH1 0x24 CALLDATALOAD SWAP1 DUP2 AND DUP2 SUB PUSH2 0x194 JUMPI SWAP1 PUSH1 0x44 CALLDATALOAD SWAP1 JUMP JUMPDEST SWAP1 PUSH1 0x1 DUP3 DUP2 SHR SWAP3 AND DUP1 ISZERO PUSH2 0x2BAE JUMPI JUMPDEST PUSH1 0x20 DUP4 LT EQ PUSH2 0x2B98 JUMPI JUMP JUMPDEST PUSH4 0x4E487B71 PUSH1 0xE0 SHL PUSH1 0x0 MSTORE PUSH1 0x22 PUSH1 0x4 MSTORE PUSH1 0x24 PUSH1 0x0 REVERT JUMPDEST SWAP2 PUSH1 0x7F AND SWAP2 PUSH2 0x2B8D JUMP JUMPDEST PUSH1 0xC0 DUP2 ADD SWAP1 DUP2 LT PUSH1 0x1 PUSH1 0x1 PUSH1 0x40 SHL SUB DUP3 GT OR PUSH2 0x1933 JUMPI PUSH1 0x40 MSTORE JUMP JUMPDEST PUSH1 0x20 DUP2 ADD SWAP1 DUP2 LT PUSH1 0x1 PUSH1 0x1 PUSH1 0x40 SHL SUB DUP3 GT OR PUSH2 0x1933 JUMPI PUSH1 0x40 MSTORE JUMP JUMPDEST PUSH1 0x40 DUP2 ADD SWAP1 DUP2 LT PUSH1 0x1 PUSH1 0x1 PUSH1 0x40 SHL SUB DUP3 GT OR PUSH2 0x1933 JUMPI PUSH1 0x40 MSTORE JUMP JUMPDEST PUSH2 0x160 DUP2 ADD SWAP1 DUP2 LT PUSH1 0x1 PUSH1 0x1 PUSH1 0x40 SHL SUB DUP3 GT OR PUSH2 0x1933 JUMPI PUSH1 0x40 MSTORE JUMP JUMPDEST PUSH1 0x60 DUP2 ADD SWAP1 DUP2 LT PUSH1 0x1 PUSH1 0x1 PUSH1 0x40 SHL SUB DUP3 GT OR PUSH2 0x1933 JUMPI PUSH1 0x40 MSTORE JUMP JUMPDEST SWAP1 PUSH1 0x1F DUP1 NOT SWAP2 ADD AND DUP2 ADD SWAP1 DUP2 LT PUSH1 0x1 PUSH1 0x1 PUSH1 0x40 SHL SUB DUP3 GT OR PUSH2 0x1933 JUMPI PUSH1 0x40 MSTORE JUMP JUMPDEST SWAP1 PUSH1 0x40 MLOAD SWAP2 DUP3 PUSH1 0x0 DUP3 SLOAD SWAP3 PUSH2 0x2C75 DUP5 PUSH2 0x2B7E JUMP JUMPDEST SWAP1 DUP2 DUP5 MSTORE PUSH1 0x1 SWAP5 DUP6 DUP2 AND SWAP1 DUP2 PUSH1 0x0 EQ PUSH2 0x2CE4 JUMPI POP PUSH1 0x1 EQ PUSH2 0x2CA1 JUMPI JUMPDEST POP POP PUSH2 0x2C9F SWAP3 POP SUB DUP4 PUSH2 0x2C40 JUMP JUMPDEST JUMP JUMPDEST SWAP1 SWAP4 SWAP2 POP PUSH1 0x0 MSTORE PUSH1 0x20 SWAP1 DUP2 PUSH1 0x0 KECCAK256 SWAP4 PUSH1 0x0 SWAP2 JUMPDEST DUP2 DUP4 LT PUSH2 0x2CCC JUMPI POP POP PUSH2 0x2C9F SWAP4 POP DUP3 ADD ADD CODESIZE DUP1 PUSH2 0x2C91 JUMP JUMPDEST DUP6 SLOAD DUP9 DUP5 ADD DUP6 ADD MSTORE SWAP5 DUP6 ADD SWAP5 DUP8 SWAP5 POP SWAP2 DUP4 ADD SWAP2 PUSH2 0x2CB4 JUMP JUMPDEST SWAP2 POP POP PUSH2 0x2C9F SWAP5 POP PUSH1 0x20 SWAP3 POP PUSH1 0xFF NOT AND DUP3 DUP5 ADD MSTORE ISZERO ISZERO PUSH1 0x5 SHL DUP3 ADD ADD CODESIZE DUP1 PUSH2 0x2C91 JUMP JUMPDEST PUSH1 0x1 PUSH1 0x1 PUSH1 0x40 SHL SUB DUP2 GT PUSH2 0x1933 JUMPI PUSH1 0x1F ADD PUSH1 0x1F NOT AND PUSH1 0x20 ADD SWAP1 JUMP JUMPDEST SWAP3 SWAP2 SWAP3 PUSH2 0x2D2E DUP3 PUSH2 0x2D07 JUMP JUMPDEST SWAP2 PUSH2 0x2D3C PUSH1 0x40 MLOAD SWAP4 DUP5 PUSH2 0x2C40 JUMP JUMPDEST DUP3 SWAP5 DUP2 DUP5 MSTORE DUP2 DUP4 ADD GT PUSH2 0x194 JUMPI DUP3 DUP2 PUSH1 0x20 SWAP4 DUP5 PUSH1 0x0 SWAP7 ADD CALLDATACOPY ADD ADD MSTORE JUMP JUMPDEST SWAP1 DUP1 PUSH1 0x1F DUP4 ADD SLT ISZERO PUSH2 0x194 JUMPI DUP2 PUSH1 0x20 PUSH2 0x2D74 SWAP4 CALLDATALOAD SWAP2 ADD PUSH2 0x2D22 JUMP JUMPDEST SWAP1 JUMP JUMPDEST PUSH1 0xB SLOAD PUSH1 0x1 PUSH1 0x1 PUSH1 0xA0 SHL SUB AND CALLER SUB PUSH2 0x2D8B JUMPI JUMP JUMPDEST PUSH1 0x40 MLOAD PUSH4 0x118CDAA7 PUSH1 0xE0 SHL DUP2 MSTORE CALLER PUSH1 0x4 DUP3 ADD MSTORE PUSH1 0x24 SWAP1 REVERT JUMPDEST PUSH1 0x1 PUSH1 0x1 PUSH1 0xA0 SHL SUB AND DUP1 ISZERO PUSH2 0x2DC3 JUMPI PUSH1 0x0 MSTORE PUSH1 0x3 PUSH1 0x20 MSTORE PUSH1 0x40 PUSH1 0x0 KECCAK256 SLOAD SWAP1 JUMP JUMPDEST PUSH1 0x40 MLOAD PUSH4 0x22718AD9 PUSH1 0xE2 SHL DUP2 MSTORE PUSH1 0x0 PUSH1 0x4 DUP3 ADD MSTORE PUSH1 0x24 SWAP1 REVERT JUMPDEST PUSH1 0x1 PUSH1 0x1 PUSH1 0xA0 SHL SUB DUP3 DUP2 AND SWAP4 SWAP2 DUP5 ISZERO PUSH2 0x306E JUMPI PUSH1 0x0 SWAP5 DUP4 DUP7 MSTORE PUSH1 0x20 SWAP6 PUSH1 0x2 DUP8 MSTORE PUSH1 0x40 SWAP7 DUP5 DUP9 DUP4 KECCAK256 SLOAD AND SWAP7 CALLER ISZERO ISZERO DUP1 PUSH2 0x2FE0 JUMPI JUMPDEST POP DUP8 ISZERO DUP1 ISZERO PUSH2 0x2FAD JUMPI JUMPDEST DUP5 DUP5 MSTORE PUSH1 0x3 DUP4 MSTORE DUP10 DUP5 KECCAK256 DUP1 SLOAD PUSH1 0x1 ADD SWAP1 SSTORE DUP8 DUP5 MSTORE PUSH1 0x2 DUP4 MSTORE DUP10 DUP5 KECCAK256 DUP1 SLOAD PUSH1 0x1 PUSH1 0x1 PUSH1 0xA0 SHL SUB NOT AND DUP7 OR SWAP1 SSTORE DUP8 DUP6 DUP11 PUSH32 0xDDF252AD1BE2C89B69C2B068FC378DAA952BA7F163C4A11628F55A4DF523B3EF DUP8 DUP1 LOG4 ISZERO PUSH2 0x2F41 JUMPI PUSH1 0x9 SLOAD DUP8 DUP5 MSTORE PUSH1 0xA DUP4 MSTORE DUP1 DUP11 DUP6 KECCAK256 SSTORE PUSH1 0x1 PUSH1 0x40 SHL DUP2 LT ISZERO PUSH2 0x2F2D JUMPI DUP8 PUSH2 0x1E1B DUP3 PUSH1 0x1 PUSH2 0x2E9F SWAP5 ADD PUSH1 0x9 SSTORE PUSH2 0x30C2 JUMP JUMPDEST DUP4 DUP9 SUB PUSH2 0x2EDB JUMPI JUMPDEST POP POP POP POP AND SWAP3 DUP4 DUP4 SUB PUSH2 0x2EBA JUMPI POP POP POP POP JUMP JUMPDEST PUSH1 0x64 SWAP5 POP MLOAD SWAP3 PUSH4 0x64283D7B PUSH1 0xE0 SHL DUP5 MSTORE PUSH1 0x4 DUP5 ADD MSTORE PUSH1 0x24 DUP4 ADD MSTORE PUSH1 0x44 DUP3 ADD MSTORE REVERT JUMPDEST PUSH2 0x2EE4 SWAP1 PUSH2 0x2DA3 JUMP JUMPDEST PUSH1 0x0 NOT DUP2 ADD SWAP4 SWAP1 DUP5 GT PUSH2 0x2F19 JUMPI DUP3 SWAP2 PUSH1 0x8 SWAP2 DUP11 SWAP5 MSTORE PUSH1 0x7 DUP2 MSTORE DUP4 DUP4 KECCAK256 DUP6 DUP5 MSTORE DUP2 MSTORE DUP8 DUP5 DUP5 KECCAK256 SSTORE DUP8 DUP4 MSTORE MSTORE KECCAK256 SSTORE CODESIZE DUP1 DUP1 DUP1 PUSH2 0x2EA7 JUMP JUMPDEST PUSH4 0x4E487B71 PUSH1 0xE0 SHL DUP4 MSTORE PUSH1 0x11 PUSH1 0x4 MSTORE PUSH1 0x24 DUP4 REVERT JUMPDEST PUSH4 0x4E487B71 PUSH1 0xE0 SHL DUP5 MSTORE PUSH1 0x41 PUSH1 0x4 MSTORE PUSH1 0x24 DUP5 REVERT JUMPDEST DUP8 DUP5 EQ PUSH2 0x2E9F JUMPI PUSH2 0x2F51 DUP9 PUSH2 0x2DA3 JUMP JUMPDEST DUP8 DUP5 MSTORE PUSH1 0x8 DUP4 MSTORE DUP10 DUP5 KECCAK256 SLOAD SWAP1 DUP10 DUP6 MSTORE PUSH1 0x7 DUP5 MSTORE DUP11 DUP6 KECCAK256 SWAP2 DUP2 DUP2 SUB PUSH2 0x2F8B JUMPI JUMPDEST POP DUP9 DUP6 MSTORE PUSH1 0x8 DUP5 MSTORE DUP5 DUP12 DUP2 KECCAK256 SSTORE DUP5 MSTORE DUP3 MSTORE DUP3 DUP10 DUP2 KECCAK256 SSTORE PUSH2 0x2E9F JUMP JUMPDEST DUP2 DUP7 MSTORE DUP3 DUP6 MSTORE DUP12 DUP7 KECCAK256 SLOAD DUP2 DUP8 MSTORE DUP1 DUP14 DUP9 KECCAK256 SSTORE DUP7 MSTORE PUSH1 0x8 DUP6 MSTORE DUP12 DUP7 KECCAK256 SSTORE CODESIZE PUSH2 0x2F70 JUMP JUMPDEST PUSH1 0x0 DUP9 DUP2 MSTORE PUSH1 0x4 PUSH1 0x20 MSTORE PUSH1 0x40 SWAP1 KECCAK256 DUP1 SLOAD PUSH1 0x1 PUSH1 0x1 PUSH1 0xA0 SHL SUB NOT AND SWAP1 SSTORE DUP9 DUP5 MSTORE PUSH1 0x3 DUP4 MSTORE DUP10 DUP5 KECCAK256 DUP1 SLOAD PUSH1 0x0 NOT ADD SWAP1 SSTORE PUSH2 0x2E19 JUMP JUMPDEST DUP1 PUSH2 0x302D JUMPI JUMPDEST ISZERO PUSH2 0x2FF1 JUMPI CODESIZE PUSH2 0x2E0F JUMP JUMPDEST DUP9 DUP8 DUP10 PUSH2 0x300E JUMPI PUSH1 0x24 SWAP2 MLOAD SWAP1 PUSH4 0x7E273289 PUSH1 0xE0 SHL DUP3 MSTORE PUSH1 0x4 DUP3 ADD MSTORE REVERT JUMPDEST SWAP1 MLOAD PUSH4 0x177E802F PUSH1 0xE0 SHL DUP2 MSTORE CALLER PUSH1 0x4 DUP3 ADD MSTORE PUSH1 0x24 DUP2 ADD SWAP2 SWAP1 SWAP2 MSTORE PUSH1 0x44 SWAP1 REVERT JUMPDEST POP CALLER DUP9 EQ DUP1 ISZERO PUSH2 0x3052 JUMPI JUMPDEST DUP1 PUSH2 0x2FE6 JUMPI POP DUP7 DUP4 MSTORE PUSH1 0x4 DUP3 MSTORE CALLER DUP7 DUP11 DUP6 KECCAK256 SLOAD AND EQ PUSH2 0x2FE6 JUMP JUMPDEST POP DUP8 DUP4 MSTORE PUSH1 0x5 DUP3 MSTORE DUP9 DUP4 KECCAK256 CALLER DUP5 MSTORE DUP3 MSTORE PUSH1 0xFF DUP10 DUP5 KECCAK256 SLOAD AND PUSH2 0x3038 JUMP JUMPDEST PUSH1 0x40 MLOAD PUSH4 0x32505749 PUSH1 0xE1 SHL DUP2 MSTORE PUSH1 0x0 PUSH1 0x4 DUP3 ADD MSTORE PUSH1 0x24 SWAP1 REVERT JUMPDEST PUSH1 0x0 DUP2 DUP2 MSTORE PUSH1 0x2 PUSH1 0x20 MSTORE PUSH1 0x40 SWAP1 KECCAK256 SLOAD PUSH1 0x1 PUSH1 0x1 PUSH1 0xA0 SHL SUB AND SWAP1 DUP2 ISZERO PUSH2 0x30AA JUMPI POP SWAP1 JUMP JUMPDEST PUSH1 0x24 SWAP1 PUSH1 0x40 MLOAD SWAP1 PUSH4 0x7E273289 PUSH1 0xE0 SHL DUP3 MSTORE PUSH1 0x4 DUP3 ADD MSTORE REVERT JUMPDEST PUSH1 0x9 SLOAD DUP2 LT ISZERO PUSH2 0x191D JUMPI PUSH1 0x9 PUSH1 0x0 MSTORE PUSH32 0x6E1540171B6C0C960B71A7020D9F60077F6AF931A8BBF590DA0223DACF75C7AF ADD SWAP1 PUSH1 0x0 SWAP1 JUMP JUMPDEST SWAP1 SWAP4 SWAP2 SWAP3 DUP4 EXTCODESIZE PUSH2 0x310B JUMPI JUMPDEST POP POP POP POP POP JUMP JUMPDEST PUSH1 0x40 MLOAD PUSH4 0xA85BD01 PUSH1 0xE1 SHL DUP1 DUP3 MSTORE PUSH1 0x1 PUSH1 0x1 PUSH1 0xA0 SHL SUB SWAP4 DUP5 AND PUSH1 0x4 DUP4 ADD MSTORE SWAP6 DUP4 AND PUSH1 0x24 DUP3 ADD MSTORE PUSH1 0x44 DUP2 ADD SWAP2 SWAP1 SWAP2 MSTORE PUSH1 0x80 PUSH1 0x64 DUP3 ADD MSTORE SWAP5 SWAP3 AND SWAP3 PUSH1 0x20 SWAP3 SWAP2 DUP6 SWAP1 PUSH2 0x3158 SWAP1 PUSH1 0x84 DUP4 ADD SWAP1 PUSH2 0x2AF8 JUMP JUMPDEST SUB SWAP5 DUP4 DUP2 PUSH1 0x0 SWAP8 DUP2 DUP10 DUP10 GAS CALL DUP7 SWAP2 DUP2 PUSH2 0x3203 JUMPI JUMPDEST POP PUSH2 0x31CD JUMPI POP POP POP RETURNDATASIZE PUSH1 0x0 EQ PUSH2 0x31C4 JUMPI RETURNDATASIZE PUSH2 0x3186 DUP2 PUSH2 0x2D07 JUMP JUMPDEST SWAP1 PUSH2 0x3194 PUSH1 0x40 MLOAD SWAP3 DUP4 PUSH2 0x2C40 JUMP JUMPDEST DUP2 MSTORE DUP1 SWAP4 DUP3 RETURNDATASIZE SWAP3 ADD RETURNDATACOPY JUMPDEST DUP3 MLOAD SWAP3 DUP4 PUSH2 0x31BF JUMPI PUSH1 0x40 MLOAD PUSH4 0x32505749 PUSH1 0xE1 SHL DUP2 MSTORE PUSH1 0x4 DUP2 ADD DUP5 SWAP1 MSTORE PUSH1 0x24 SWAP1 REVERT JUMPDEST ADD SWAP1 POP REVERT JUMPDEST PUSH1 0x60 SWAP3 POP PUSH2 0x319E JUMP JUMPDEST SWAP2 SWAP5 POP SWAP2 POP PUSH4 0xFFFFFFFF PUSH1 0xE0 SHL AND SUB PUSH2 0x31EB JUMPI POP CODESIZE DUP1 DUP1 DUP1 DUP1 PUSH2 0x3104 JUMP JUMPDEST PUSH1 0x24 SWAP1 PUSH1 0x40 MLOAD SWAP1 PUSH4 0x32505749 PUSH1 0xE1 SHL DUP3 MSTORE PUSH1 0x4 DUP3 ADD MSTORE REVERT JUMPDEST SWAP1 SWAP2 POP DUP5 DUP2 DUP2 RETURNDATASIZE DUP4 GT PUSH2 0x3240 JUMPI JUMPDEST PUSH2 0x321B DUP2 DUP4 PUSH2 0x2C40 JUMP JUMPDEST DUP2 ADD SUB SLT PUSH2 0x323C JUMPI MLOAD PUSH1 0x1 PUSH1 0x1 PUSH1 0xE0 SHL SUB NOT DUP2 AND DUP2 SUB PUSH2 0x323C JUMPI SWAP1 CODESIZE PUSH2 0x316C JUMP JUMPDEST DUP7 DUP1 REVERT JUMPDEST POP RETURNDATASIZE PUSH2 0x3211 JUMP JUMPDEST SWAP1 PUSH2 0x3251 DUP3 PUSH2 0x2D07 JUMP JUMPDEST PUSH2 0x325E PUSH1 0x40 MLOAD SWAP2 DUP3 PUSH2 0x2C40 JUMP JUMPDEST DUP3 DUP2 MSTORE DUP1 SWAP3 PUSH2 0x326F PUSH1 0x1F NOT SWAP2 PUSH2 0x2D07 JUMP JUMPDEST ADD SWAP1 PUSH1 0x20 CALLDATASIZE SWAP2 ADD CALLDATACOPY JUMP JUMPDEST DUP1 MLOAD ISZERO PUSH2 0x335C JUMPI DUP1 MLOAD PUSH1 0x2 SWAP2 DUP3 DUP3 ADD DUP1 SWAP3 GT PUSH2 0x1907 JUMPI PUSH1 0x3 SWAP2 DUP3 SWAP1 DIV PUSH1 0x1 PUSH1 0x1 PUSH1 0xFE SHL SUB DUP2 AND DUP2 SUB PUSH2 0x1907 JUMPI PUSH2 0x32B2 SWAP1 DUP5 SWAP6 SWAP5 SHL PUSH2 0x3247 JUMP JUMPDEST SWAP4 PUSH1 0x20 DUP6 ADD SWAP4 DUP3 SWAP2 DUP4 MLOAD DUP5 ADD SWAP1 PUSH1 0x20 DUP3 ADD SWAP3 DUP4 MLOAD SWAP5 PUSH1 0x0 DUP6 MSTORE JUMPDEST DUP4 DUP2 LT PUSH2 0x330B JUMPI POP POP POP POP MSTORE MLOAD MOD DUP1 PUSH1 0x1 EQ PUSH2 0x32F8 JUMPI PUSH1 0x2 EQ PUSH2 0x32ED JUMPI POP SWAP1 JUMP JUMPDEST PUSH1 0x3D SWAP1 PUSH1 0x0 NOT ADD MSTORE8 SWAP1 JUMP JUMPDEST POP PUSH1 0x3D SWAP1 DUP2 PUSH1 0x0 NOT DUP3 ADD MSTORE8 PUSH1 0x1 NOT ADD MSTORE8 SWAP1 JUMP JUMPDEST DUP8 PUSH1 0x4 SWAP2 SWAP10 SWAP3 SWAP4 SWAP5 SWAP10 ADD SWAP2 DUP3 MLOAD PUSH1 0x1 SWAP1 PUSH1 0x3F SWAP1 DUP3 DUP3 DUP3 PUSH1 0x12 SHR AND DUP9 ADD ADD MLOAD DUP5 MSTORE8 DUP3 DUP3 DUP3 PUSH1 0xC SHR AND DUP9 ADD ADD MLOAD DUP4 DUP6 ADD MSTORE8 DUP3 DUP3 DUP3 PUSH1 0x6 SHR AND DUP9 ADD ADD MLOAD DUP9 DUP6 ADD MSTORE8 AND DUP6 ADD ADD MLOAD DUP10 DUP3 ADD MSTORE8 ADD SWAP8 SWAP3 SWAP2 SWAP1 PUSH2 0x32CC JUMP JUMPDEST POP POP PUSH1 0x40 MLOAD PUSH2 0x336A DUP2 PUSH2 0x2BD3 JUMP JUMPDEST PUSH1 0x0 DUP2 MSTORE SWAP1 JUMP JUMPDEST DUP1 PUSH1 0x0 SWAP2 PUSH27 0x184F03E93FF9F4DAA797ED6E38ED64BF6A1F010000000000000000 DUP1 DUP3 LT ISZERO PUSH2 0x34A6 JUMPI JUMPDEST POP PUSH14 0x4EE2D6D415B85ACEF8100000000 DUP1 DUP4 LT ISZERO PUSH2 0x3497 JUMPI JUMPDEST POP PUSH7 0x2386F26FC10000 DUP1 DUP4 LT ISZERO PUSH2 0x3488 JUMPI JUMPDEST POP PUSH4 0x5F5E100 DUP1 DUP4 LT ISZERO PUSH2 0x3479 JUMPI JUMPDEST POP PUSH2 0x2710 DUP1 DUP4 LT ISZERO PUSH2 0x346A JUMPI JUMPDEST POP PUSH1 0x64 DUP3 LT ISZERO PUSH2 0x345A JUMPI JUMPDEST PUSH1 0xA DUP1 SWAP3 LT ISZERO PUSH2 0x3450 JUMPI JUMPDEST PUSH1 0x1 SWAP1 DUP2 PUSH1 0x21 PUSH2 0x3408 DUP3 DUP8 ADD PUSH2 0x3247 JUMP JUMPDEST SWAP6 DUP7 ADD ADD SWAP1 JUMPDEST PUSH2 0x341A JUMPI JUMPDEST POP POP POP POP SWAP1 JUMP JUMPDEST PUSH1 0x0 NOT ADD SWAP1 DUP4 SWAP1 PUSH16 0x181899199A1A9B1B9C1CB0B131B232B3 PUSH1 0x81 SHL DUP3 DUP3 MOD BYTE DUP4 MSTORE8 DIV SWAP2 DUP3 ISZERO PUSH2 0x344B JUMPI SWAP2 SWAP1 DUP3 PUSH2 0x340E JUMP JUMPDEST PUSH2 0x3413 JUMP JUMPDEST SWAP2 PUSH1 0x1 ADD SWAP2 PUSH2 0x33F7 JUMP JUMPDEST SWAP2 SWAP1 PUSH1 0x64 PUSH1 0x2 SWAP2 DIV SWAP2 ADD SWAP2 PUSH2 0x33EC JUMP JUMPDEST PUSH1 0x4 SWAP2 SWAP4 SWAP3 DIV SWAP2 ADD SWAP2 CODESIZE PUSH2 0x33E1 JUMP JUMPDEST PUSH1 0x8 SWAP2 SWAP4 SWAP3 DIV SWAP2 ADD SWAP2 CODESIZE PUSH2 0x33D4 JUMP JUMPDEST PUSH1 0x10 SWAP2 SWAP4 SWAP3 DIV SWAP2 ADD SWAP2 CODESIZE PUSH2 0x33C5 JUMP JUMPDEST PUSH1 0x20 SWAP2 SWAP4 SWAP3 DIV SWAP2 ADD SWAP2 CODESIZE PUSH2 0x33B3 JUMP JUMPDEST PUSH1 0x40 SWAP4 POP DUP2 DIV SWAP2 POP CODESIZE PUSH2 0x339A JUMP JUMPDEST PUSH1 0x0 DUP1 MLOAD PUSH1 0x20 PUSH2 0x38A1 DUP4 CODECOPY DUP2 MLOAD SWAP2 MSTORE DUP2 MSTORE PUSH32 0x2076616C7565733D22302E363B302E323B302E3622206475723D22312E357322 PUSH1 0x20 DUP3 ADD MSTORE PUSH32 0x20726570656174436F756E743D22696E646566696E697465222F3E3C2F706174 PUSH1 0x40 DUP3 ADD MSTORE PUSH2 0x341F PUSH1 0xF1 SHL PUSH1 0x60 DUP3 ADD MSTORE PUSH1 0x62 ADD SWAP1 JUMP JUMPDEST PUSH1 0x3 PUSH1 0xFF DUP3 AND LT PUSH2 0x3813 JUMPI PUSH1 0x1 SHR PUSH1 0x7F AND PUSH1 0x5 DUP2 GT PUSH2 0x380B JUMPI JUMPDEST PUSH1 0x40 SWAP1 DUP2 MLOAD PUSH2 0x354A DUP2 PUSH2 0x2BD3 JUMP JUMPDEST PUSH1 0x0 DUP2 MSTORE DUP3 MLOAD PUSH2 0x3559 DUP2 PUSH2 0x2BD3 JUMP JUMPDEST PUSH1 0x0 DUP2 MSTORE DUP4 MLOAD PUSH2 0x3568 DUP2 PUSH2 0x2BD3 JUMP JUMPDEST PUSH1 0x0 DUP2 MSTORE SWAP3 DUP5 MLOAD PUSH2 0x3578 DUP2 PUSH2 0x2BD3 JUMP JUMPDEST PUSH1 0x0 DUP2 MSTORE PUSH1 0xFF DUP7 MLOAD PUSH2 0x3589 DUP2 PUSH2 0x2BD3 JUMP JUMPDEST PUSH1 0x0 DUP2 MSTORE SWAP3 AND SWAP6 PUSH1 0x1 DUP8 LT ISZERO PUSH2 0x37A4 JUMPI JUMPDEST PUSH1 0x2 DUP8 LT ISZERO PUSH2 0x373D JUMPI JUMPDEST PUSH1 0x3 DUP8 LT ISZERO PUSH2 0x36D2 JUMPI JUMPDEST DUP7 PUSH1 0x4 PUSH2 0x2D74 SWAP8 SWAP9 LT ISZERO PUSH2 0x3667 JUMPI JUMPDEST PUSH1 0x5 GT ISZERO PUSH2 0x35F2 JUMPI JUMPDEST MLOAD SWAP6 DUP7 SWAP4 DUP6 MLOAD PUSH2 0x35DE DUP2 PUSH1 0x20 SWAP9 DUP10 DUP1 DUP11 ADD SWAP2 ADD PUSH2 0x2AD5 JUMP JUMPDEST DUP6 ADD PUSH2 0xD3C DUP3 MLOAD DUP1 SWAP4 DUP10 DUP1 DUP6 ADD SWAP2 ADD PUSH2 0x2AD5 JUMP JUMPDEST DUP1 SWAP3 POP MLOAD PUSH32 0x3C7061746820643D224D3236302C31343020513237302C313230203236302C31 PUSH1 0x20 DUP3 ADD MSTORE PUSH1 0x0 DUP1 MLOAD PUSH1 0x20 PUSH2 0x3881 DUP4 CODECOPY DUP2 MLOAD SWAP2 MSTORE DUP4 DUP3 ADD MSTORE PUSH1 0x0 DUP1 MLOAD PUSH1 0x20 PUSH2 0x3861 DUP4 CODECOPY DUP2 MLOAD SWAP2 MSTORE PUSH1 0x60 DUP3 ADD MSTORE PUSH2 0x3661 DUP2 PUSH2 0x3653 PUSH1 0x80 DUP3 ADD PUSH2 0x34B4 JUMP JUMPDEST SUB PUSH1 0x1F NOT DUP2 ADD DUP4 MSTORE DUP3 PUSH2 0x2C40 JUMP JUMPDEST SWAP2 PUSH2 0x35C6 JUMP JUMPDEST SWAP2 POP PUSH1 0x5 DUP2 MLOAD PUSH32 0x3C7061746820643D224D3233302C31343020513234302C313230203233302C31 PUSH1 0x20 DUP3 ADD MSTORE PUSH1 0x0 DUP1 MLOAD PUSH1 0x20 PUSH2 0x3881 DUP4 CODECOPY DUP2 MLOAD SWAP2 MSTORE DUP4 DUP3 ADD MSTORE PUSH1 0x0 DUP1 MLOAD PUSH1 0x20 PUSH2 0x3861 DUP4 CODECOPY DUP2 MLOAD SWAP2 MSTORE PUSH1 0x60 DUP3 ADD MSTORE PUSH2 0x36CA DUP2 PUSH2 0x3653 PUSH1 0x80 DUP3 ADD PUSH2 0x34B4 JUMP JUMPDEST SWAP3 SWAP1 POP PUSH2 0x35BD JUMP JUMPDEST PUSH2 0x2D74 SWAP6 POP DUP1 MLOAD PUSH32 0x3C7061746820643D224D3230302C31343020513231302C313230203230302C31 PUSH1 0x20 DUP3 ADD MSTORE PUSH1 0x0 DUP1 MLOAD PUSH1 0x20 PUSH2 0x3881 DUP4 CODECOPY DUP2 MLOAD SWAP2 MSTORE DUP3 DUP3 ADD MSTORE PUSH1 0x0 DUP1 MLOAD PUSH1 0x20 PUSH2 0x3861 DUP4 CODECOPY DUP2 MLOAD SWAP2 MSTORE PUSH1 0x60 DUP3 ADD MSTORE PUSH2 0x3736 DUP2 PUSH2 0x3653 PUSH1 0x80 DUP3 ADD PUSH2 0x34B4 JUMP JUMPDEST SWAP6 POP PUSH2 0x35AE JUMP JUMPDEST DUP1 SWAP4 POP MLOAD PUSH32 0x3C7061746820643D224D3137302C31343020513138302C313230203137302C31 PUSH1 0x20 DUP3 ADD MSTORE PUSH1 0x0 DUP1 MLOAD PUSH1 0x20 PUSH2 0x3881 DUP4 CODECOPY DUP2 MLOAD SWAP2 MSTORE DUP5 DUP3 ADD MSTORE PUSH1 0x0 DUP1 MLOAD PUSH1 0x20 PUSH2 0x3861 DUP4 CODECOPY DUP2 MLOAD SWAP2 MSTORE PUSH1 0x60 DUP3 ADD MSTORE PUSH2 0x379E DUP2 PUSH2 0x3653 PUSH1 0x80 DUP3 ADD PUSH2 0x34B4 JUMP JUMPDEST SWAP3 PUSH2 0x35A4 JUMP JUMPDEST DUP1 SWAP5 POP MLOAD PUSH32 0x3C7061746820643D224D3134302C31343020513135302C313230203134302C31 PUSH1 0x20 DUP3 ADD MSTORE PUSH1 0x0 DUP1 MLOAD PUSH1 0x20 PUSH2 0x3881 DUP4 CODECOPY DUP2 MLOAD SWAP2 MSTORE DUP6 DUP3 ADD MSTORE PUSH1 0x0 DUP1 MLOAD PUSH1 0x20 PUSH2 0x3861 DUP4 CODECOPY DUP2 MLOAD SWAP2 MSTORE PUSH1 0x60 DUP3 ADD MSTORE PUSH2 0x3805 DUP2 PUSH2 0x3653 PUSH1 0x80 DUP3 ADD PUSH2 0x34B4 JUMP JUMPDEST SWAP4 PUSH2 0x359A JUMP JUMPDEST POP PUSH1 0x5 PUSH2 0x353C JUMP JUMPDEST POP PUSH1 0x40 MLOAD PUSH2 0x336A DUP2 PUSH2 0x2BD3 JUMP INVALID 0x22 PUSH21 0x72616E73666F726D2220747970653D227363616C65 0x22 KECCAK256 PUSH23 0x616C7565733D3C616E696D6174655472616E73666F726D KECCAK256 PUSH2 0x7474 PUSH19 0x69627574654E616D653D683D2233222066696C PUSH13 0x3D226E6F6E6522206F70616369 PUSH21 0x793D22302E36223E303022207374726F6B653D2223 CODESIZE CALLVALUE NUMBER NUMBER BALANCE CALLDATASIZE 0x22 KECCAK256 PUSH20 0x74726F6B652D776964743C616E696D6174652061 PUSH21 0x747269627574654E616D653D226F70616369747922 LOG2 PUSH5 0x6970667358 0x22 SLT KECCAK256 0x4F CODECOPY SELFBALANCE SWAP14 0xDE 0xD9 ADD 0x4C PUSH10 0xFDE137D48BC2925C8EC6 0xC1 ADD INVALID 0xCF 0xB9 0xAF 0xCD 0xC4 PUSH24 0x938AEF7A64736F6C63430008140033000000000000000000 "},"methodIdentifiers":{"approve(address,uint256)":"095ea7b3","balanceOf(address)":"70a08231","getApproved(uint256)":"081812fc","isApprovedForAll(address,address)":"e985e9c5","name()":"06fdde03","owner()":"8da5cb5b","ownerOf(uint256)":"6352211e","renounceOwnership()":"715018a6","safeTransferFrom(address,address,uint256)":"42842e0e","safeTransferFrom(address,address,uint256,bytes)":"b88d4fde","setApprovalForAll(address,bool)":"a22cb465","supportsInterface(bytes4)":"01ffc9a7","symbol()":"95d89b41","throwTrash(address,string,string,string,uint8)":"b15bf9a8","tokenByIndex(uint256)":"4f6ccce7","tokenOfOwnerByIndex(address,uint256)":"2f745c59","tokenURI(uint256)":"c87b56dd","totalSupply()":"18160ddd","transferFrom(address,address,uint256)":"23b872dd","transferOwnership(address)":"f2fde38b","trashData(uint256)":"7c63f279"}}}}}