{
  "_format": "hh-sol-artifact-1",
  "contractName": "TrashNFT",
  "sourceName": "contracts/TrashNFT.sol",
  "abi": [
    {
      "inputs": [],
      "stateMutability": "nonpayable",
      "type": "constructor"
    },
    {
      "inputs": [
        {
          "internalType": "address",
          "name": "sender",
          "type": "address"
        },
        {
          "internalType": "uint256",
          "name": "tokenId",
          "type": "uint256"
        },
        {
          "internalType": "address",
          "name": "owner",
          "type": "address"
        }
      ],
      "name": "ERC721IncorrectOwner",
      "type": "error"
    },
    {
      "inputs": [
        {
          "internalType": "address",
          "name": "operator",
          "type": "address"
        },
        {
          "internalType": "uint256",
          "name": "tokenId",
          "type": "uint256"
        }
      ],
      "name": "ERC721InsufficientApproval",
      "type": "error"
    },
    {
      "inputs": [
        {
          "internalType": "address",
          "name": "approver",
          "type": "address"
        }
      ],
      "name": "ERC721InvalidApprover",
      "type": "error"
    },
    {
      "inputs": [
        {
          "internalType": "address",
          "name": "operator",
          "type": "address"
        }
      ],
      "name": "ERC721InvalidOperator",
      "type": "error"
    },
    {
      "inputs": [
        {
          "internalType": "address",
          "name": "owner",
          "type": "address"
        }
      ],
      "name": "ERC721InvalidOwner",
      "type": "error"
    },
    {
      "inputs": [
        {
          "internalType": "address",
          "name": "receiver",
          "type": "address"
        }
      ],
      "name": "ERC721InvalidReceiver",
      "type": "error"
    },
    {
      "inputs": [
        {
          "internalType": "address",
          "name": "sender",
          "type": "address"
        }
      ],
      "name": "ERC721InvalidSender",
      "type": "error"
    },
    {
      "inputs": [
        {
          "internalType": "uint256",
          "name": "tokenId",
          "type": "uint256"
        }
      ],
      "name": "ERC721NonexistentToken",
      "type": "error"
    },
    {
      "inputs": [
        {
          "internalType": "address",
          "name": "owner",
          "type": "address"
        }
      ],
      "name": "OwnableInvalidOwner",
      "type": "error"
    },
    {
      "inputs": [
        {
          "internalType": "address",
          "name": "account",
          "type": "address"
        }
      ],
      "name": "OwnableUnauthorizedAccount",
      "type": "error"
    },
    {
      "inputs": [
        {
          "internalType": "uint256",
          "name": "value",
          "type": "uint256"
        },
        {
          "internalType": "uint256",
          "name": "length",
          "type": "uint256"
        }
      ],
      "name": "StringsInsufficientHexLength",
      "type": "error"
    },
    {
      "anonymous": false,
      "inputs": [
        {
          "indexed": true,
          "internalType": "address",
          "name": "owner",
          "type": "address"
        },
        {
          "indexed": true,
          "internalType": "address",
          "name": "approved",
          "type": "address"
        },
        {
          "indexed": true,
          "internalType": "uint256",
          "name": "tokenId",
          "type": "uint256"
        }
      ],
      "name": "Approval",
      "type": "event"
    },
    {
      "anonymous": false,
      "inputs": [
        {
          "indexed": true,
          "internalType": "address",
          "name": "owner",
          "type": "address"
        },
        {
          "indexed": true,
          "internalType": "address",
          "name": "operator",
          "type": "address"
        },
        {
          "indexed": false,
          "internalType": "bool",
          "name": "approved",
          "type": "bool"
        }
      ],
      "name": "ApprovalForAll",
      "type": "event"
    },
    {
      "anonymous": false,
      "inputs": [
        {
          "indexed": false,
          "internalType": "uint256",
          "name": "_fromTokenId",
          "type": "uint256"
        },
        {
          "indexed": false,
          "internalType": "uint256",
          "name": "_toTokenId",
          "type": "uint256"
        }
      ],
      "name": "BatchMetadataUpdate",
      "type": "event"
    },
    {
      "anonymous": false,
      "inputs": [
        {
          "indexed": false,
          "internalType": "uint256",
          "name": "_tokenId",
          "type": "uint256"
        }
      ],
      "name": "MetadataUpdate",
      "type": "event"
    },
    {
      "anonymous": false,
      "inputs": [
        {
          "indexed": true,
          "internalType": "address",
          "name": "previousOwner",
          "type": "address"
        },
        {
          "indexed": true,
          "internalType": "address",
          "name": "newOwner",
          "type": "address"
        }
      ],
      "name": "OwnershipTransferred",
      "type": "event"
    },
    {
      "anonymous": false,
      "inputs": [
        {
          "indexed": true,
          "internalType": "address",
          "name": "from",
          "type": "address"
        },
        {
          "indexed": true,
          "internalType": "address",
          "name": "to",
          "type": "address"
        },
        {
          "indexed": true,
          "internalType": "uint256",
          "name": "tokenId",
          "type": "uint256"
        }
      ],
      "name": "Transfer",
      "type": "event"
    },
    {
      "anonymous": false,
      "inputs": [
        {
          "indexed": true,
          "internalType": "uint256",
          "name": "tokenId",
          "type": "uint256"
        },
        {
          "indexed": true,
          "internalType": "address",
          "name": "from",
          "type": "address"
        },
        {
          "indexed": true,
          "internalType": "address",
          "name": "to",
          "type": "address"
        },
        {
          "indexed": false,
          "internalType": "string",
          "name": "trashName",
          "type": "string"
        },
        {
          "indexed": false,
          "internalType": "uint8",
          "name": "stinkLevel",
          "type": "uint8"
        }
      ],
      "name": "TrashThrown",
      "type": "event"
    },
    {
      "inputs": [
        {
          "internalType": "address",
          "name": "to",
          "type": "address"
        },
        {
          "internalType": "uint256",
          "name": "tokenId",
          "type": "uint256"
        }
      ],
      "name": "approve",
      "outputs": [],
      "stateMutability": "nonpayable",
      "type": "function"
    },
    {
      "inputs": [
        {
          "internalType": "address",
          "name": "owner",
          "type": "address"
        }
      ],
      "name": "balanceOf",
      "outputs": [
        {
          "internalType": "uint256",
          "name": "",
          "type": "uint256"
        }
      ],
      "stateMutability": "view",
      "type": "function"
    },
    {
      "inputs": [
        {
          "internalType": "uint256",
          "name": "tokenId",
          "type": "uint256"
        }
      ],
      "name": "getApproved",
      "outputs": [
        {
          "internalType": "address",
          "name": "",
          "type": "address"
        }
      ],
      "stateMutability": "view",
      "type": "function"
    },
    {
      "inputs": [
        {
          "internalType": "address",
          "name": "owner",
          "type": "address"
        },
        {
          "internalType": "address",
          "name": "operator",
          "type": "address"
        }
      ],
      "name": "isApprovedForAll",
      "outputs": [
        {
          "internalType": "bool",
          "name": "",
          "type": "bool"
        }
      ],
      "stateMutability": "view",
      "type": "function"
    },
    {
      "inputs": [],
      "name": "name",
      "outputs": [
        {
          "internalType": "string",
          "name": "",
          "type": "string"
        }
      ],
      "stateMutability": "view",
      "type": "function"
    },
    {
      "inputs": [],
      "name": "owner",
      "outputs": [
        {
          "internalType": "address",
          "name": "",
          "type": "address"
        }
      ],
      "stateMutability": "view",
      "type": "function"
    },
    {
      "inputs": [
        {
          "internalType": "uint256",
          "name": "tokenId",
          "type": "uint256"
        }
      ],
      "name": "ownerOf",
      "outputs": [
        {
          "internalType": "address",
          "name": "",
          "type": "address"
        }
      ],
      "stateMutability": "view",
      "type": "function"
    },
    {
      "inputs": [],
      "name": "renounceOwnership",
      "outputs": [],
      "stateMutability": "nonpayable",
      "type": "function"
    },
    {
      "inputs": [
        {
          "internalType": "address",
          "name": "from",
          "type": "address"
        },
        {
          "internalType": "address",
          "name": "to",
          "type": "address"
        },
        {
          "internalType": "uint256",
          "name": "tokenId",
          "type": "uint256"
        }
      ],
      "name": "safeTransferFrom",
      "outputs": [],
      "stateMutability": "nonpayable",
      "type": "function"
    },
    {
      "inputs": [
        {
          "internalType": "address",
          "name": "from",
          "type": "address"
        },
        {
          "internalType": "address",
          "name": "to",
          "type": "address"
        },
        {
          "internalType": "uint256",
          "name": "tokenId",
          "type": "uint256"
        },
        {
          "internalType": "bytes",
          "name": "data",
          "type": "bytes"
        }
      ],
      "name": "safeTransferFrom",
      "outputs": [],
      "stateMutability": "nonpayable",
      "type": "function"
    },
    {
      "inputs": [
        {
          "internalType": "address",
          "name": "operator",
          "type": "address"
        },
        {
          "internalType": "bool",
          "name": "approved",
          "type": "bool"
        }
      ],
      "name": "setApprovalForAll",
      "outputs": [],
      "stateMutability": "nonpayable",
      "type": "function"
    },
    {
      "inputs": [
        {
          "internalType": "bytes4",
          "name": "interfaceId",
          "type": "bytes4"
        }
      ],
      "name": "supportsInterface",
      "outputs": [
        {
          "internalType": "bool",
          "name": "",
          "type": "bool"
        }
      ],
      "stateMutability": "view",
      "type": "function"
    },
    {
      "inputs": [],
      "name": "symbol",
      "outputs": [
        {
          "internalType": "string",
          "name": "",
          "type": "string"
        }
      ],
      "stateMutability": "view",
      "type": "function"
    },
    {
      "inputs": [
        {
          "internalType": "address",
          "name": "to",
          "type": "address"
        },
        {
          "internalType": "string",
          "name": "name",
          "type": "string"
        },
        {
          "internalType": "string",
          "name": "emoji",
          "type": "string"
        },
        {
          "internalType": "string",
          "name": "description",
          "type": "string"
        },
        {
          "internalType": "uint8",
          "name": "stinkLevel",
          "type": "uint8"
        }
      ],
      "name": "throwTrash",
      "outputs": [
        {
          "internalType": "uint256",
          "name": "",
          "type": "uint256"
        }
      ],
      "stateMutability": "nonpayable",
      "type": "function"
    },
    {
      "inputs": [
        {
          "internalType": "uint256",
          "name": "tokenId",
          "type": "uint256"
        }
      ],
      "name": "tokenURI",
      "outputs": [
        {
          "internalType": "string",
          "name": "",
          "type": "string"
        }
      ],
      "stateMutability": "view",
      "type": "function"
    },
    {
      "inputs": [],
      "name": "totalSupply",
      "outputs": [
        {
          "internalType": "uint256",
          "name": "",
          "type": "uint256"
        }
      ],
      "stateMutability": "view",
      "type": "function"
    },
    {
      "inputs": [
        {
          "internalType": "address",
          "name": "from",
          "type": "address"
        },
        {
          "internalType": "address",
          "name": "to",
          "type": "address"
        },
        {
          "internalType": "uint256",
          "name": "tokenId",
          "type": "uint256"
        }
      ],
      "name": "transferFrom",
      "outputs": [],
      "stateMutability": "nonpayable",
      "type": "function"
    },
    {
      "inputs": [
        {
          "internalType": "address",
          "name": "newOwner",
          "type": "address"
        }
      ],
      "name": "transferOwnership",
      "outputs": [],
      "stateMutability": "nonpayable",
      "type": "function"
    },
    {
      "inputs": [
        {
          "internalType": "uint256",
          "name": "",
          "type": "uint256"
        }
      ],
      "name": "trashData",
      "outputs": [
        {
          "internalType": "string",
          "name": "name",
          "type": "string"
        },
        {
          "internalType": "string",
          "name": "emoji",
          "type": "string"
        },
        {
          "internalType": "string",
          "name": "description",
          "type": "string"
        },
        {
          "internalType": "uint8",
          "name": "stinkLevel",
          "type": "uint8"
        },
        {
          "internalType": "uint256",
          "name": "thrownAt",
          "type": "uint256"
        },
        {
          "internalType": "address",
          "name": "thrownBy",
          "type": "address"
        }
      ],
      "stateMutability": "view",
      "type": "function"
    }
  ],
  "bytecode": "0x60803462000377576001600160401b0390604081810183811183821017620003615781526009825260209168151c985cda0813919560ba1b83820152815193828501858110828211176200036157835260058552640a8a482a6960db1b84860152815181811162000361576000948554916001948584811c9416801562000356575b8385101462000342578190601f94858111620002ef575b5083908583116001146200028b5789926200027f575b5050600019600383901b1c191690851b1786555b86519283116200026b5783548481811c9116801562000260575b828210146200024c5782811162000204575b50809183116001146200019d57508495829394959262000191575b5050600019600383901b1c191690821b1790555b3315620001795760078054336001600160a01b03198216811790925591519290916001600160a01b0316907f8be0079c531659141344cd1fd0a4f28419497f9722a3daafe3b4186f6b6457e09080a361358790816200037d8239f35b51631e4fbdf760e01b81526004810191909152602490fd5b01519050388062000109565b90601f198316968487528287209287905b898210620001ec575050838596979810620001d2575b505050811b0190556200011d565b015160001960f88460031b161c19169055388080620001c4565b808785968294968601518155019501930190620001ae565b8487528187208380860160051c82019284871062000242575b0160051c019085905b82811062000236575050620000ee565b88815501859062000226565b925081926200021d565b634e487b7160e01b87526022600452602487fd5b90607f1690620000dc565b634e487b7160e01b86526041600452602486fd5b015190503880620000ae565b898052848a208894509190601f1984168b5b87828210620002d85750508411620002be575b505050811b018655620000c2565b015160001960f88460031b161c19169055388080620002b0565b8385015186558b979095019493840193016200029d565b9091508880528389208580850160051c82019286861062000338575b918991869594930160051c01915b8281106200032957505062000098565b8b815585945089910162000319565b925081926200030b565b634e487b7160e01b88526022600452602488fd5b93607f169362000081565b634e487b7160e01b600052604160045260246000fd5b600080fdfe608080604052600436101561001357600080fd5b60003560e01c90816301ffc9a71461285d5750806306fdde03146127ba578063081812fc1461277c578063095ea7b31461269557806318160ddd1461267757806323b872dd1461266057806342842e0e146126325780636352211e1461260257806370a08231146125a9578063715018a61461254c5780637c63f2791461249e5780638da5cb5b1461247557806395d89b41146123aa578063a22cb46514612305578063b15bf9a814611b13578063b88d4fde14611aa6578063c87b56dd146101d9578063e985e9c5146101835763f2fde38b146100f057600080fd5b3461017e57602036600319011261017e5761010961292a565b610111612b84565b6001600160a01b0390811690811561016557600754826bffffffffffffffffffffffff60a01b821617600755167f8be0079c531659141344cd1fd0a4f28419497f9722a3daafe3b4186f6b6457e0600080a3005b604051631e4fbdf760e01b815260006004820152602490fd5b600080fd5b3461017e57604036600319011261017e5761019c61292a565b6101a4612940565b9060018060a01b03809116600052600560205260406000209116600052602052602060ff604060002054166040519015158152f35b3461017e57602036600319011261017e576004356101f681612d4f565b506000526009602052604060002060405190610211826129c5565b61021a81612a6e565b825261022860018201612a6e565b602083015261023960028201612a6e565b6040830152600381015460ff1660608301819052600482015460808401526005909101546001600160a01b031660a08301526007811115611a545750604051610281816129fb565b60078152660234646303030360cc1b60208201525b81516040516102c2602082816102b581830196878151938492016128e2565b8101038084520182612a4d565b5190206040516ee8bc9de3818fe38186e38293e381a160881b6020820152600f81526102ed816129fb565b60208151910120148015611a01575b80156119dc5760405161030e816129fb565b60078152660234646443730360cc1b60208201525b8351604051610342602082816102b581830196878151938492016128e2565b5190206040516b1cd3901cf6b05cb0b6bcb33560a31b60208201908152600c82529061036d816129fb565b519020148015611989575b1561197f57604051610389816129fb565b6004815263f09f92a960e01b60208201525b6103ab60ff6060870151166131b3565b6103bb60ff606088015116613002565b9361040c603060405180976c029ba34b735902632bb32b61d1609d1b60208301526103f0815180926020602d860191016128e2565b81016202f31360ec1b602d820152036010810188520186612a4d565b1561195a57604080517f3c7465787420783d223132302220793d223132302220666f6e742d73697a653d60208201527f223330222066696c6c3d222346464437303022206f7061636974793d22302e399181019190915261111f60f11b6060820152621c539560eb1b606282015260008051602061353283398151915260658201527f2076616c7565733d22302e353b313b302e3522206475723d22302e357322207260858201527f6570656174436f756e743d22696e646566696e697465222f3e0000000000000060a58201526000805160206134d283398151915260be8201526000805160206134b283398151915260de8201527f22302e383b312e323b302e3822206475723d22302e357322207265706561744360fe8201527237bab73a1e9134b73232b334b734ba3291179f60691b61011e820152661e17ba32bc3a1f60c91b6101318201526101188152936001600160401b0361014086019081119086111761194457610140850160408190527f3c7465787420783d223238302220793d223132302220666f6e742d73697a653d6101608701527f223330222066696c6c3d222346464437303022206f7061636974793d22302e3961018087015261111f60f11b6101a0870152621c539560eb1b6101a28701526000805160206135328339815191526101a58701527f2076616c7565733d22302e353b313b302e3522206475723d22302e35732220626101c58701527f6567696e3d22302e3235732220726570656174436f756e743d22696e646566696101e5870152663734ba3291179f60c91b6102058701526000805160206134d283398151915261020c8701526000805160206134b283398151915261022c8701527f22302e383b312e323b302e3822206475723d22302e35732220626567696e3d2261024c8701527f302e3235732220726570656174436f756e743d22696e646566696e697465222f61026c870152601f60f91b61028c870152661e17ba32bc3a1f60c91b61028d870152610134815261138e95602095611297936101059391929091611121919061071390612a16565b610d6b89604051927f3c7465787420783d223130302220793d223230302220666f6e742d73697a653d828501527f223235222066696c6c3d222346464437303022206f7061636974793d22302e38604085015261111f60f11b6060850152621c539560eb1b606285015260008051602061353283398151915260658501527f2076616c7565733d22302e333b313b302e3322206475723d22302e367322206260858501527f6567696e3d22302e31732220726570656174436f756e743d22696e646566696e60a58501526534ba3291179f60d11b60c58501526000805160206134d283398151915260cb8501526000805160206134b283398151915260eb8501527f22302e373b312e333b302e3722206475723d22302e36732220626567696e3d2261010b8501527f302e31732220726570656174436f756e743d22696e646566696e697465222f3e61012b850152661e17ba32bc3a1f60c91b61014b850152610132845261088184612a16565b604080517f3c7465787420783d223330302220793d223230302220666f6e742d73697a653d848201527f223235222066696c6c3d222346464437303022206f7061636974793d22302e389181019190915261111f60f11b6060820152621c539560eb1b606282015260008051602061353283398151915260658201527f2076616c7565733d22302e333b313b302e3322206475723d22302e367322206260858201527f6567696e3d22302e3335732220726570656174436f756e743d22696e6465666960a5820152663734ba3291179f60c91b60c58201526000805160206134d283398151915260cc8201526000805160206134b283398151915260ec8201527f22302e373b312e333b302e3722206475723d22302e36732220626567696e3d2261010c8201527f302e3335732220726570656174436f756e743d22696e646566696e697465222f61012c820152601f60f91b61014c820152661e17ba32bc3a1f60c91b61014d82015261013481526109f981612a16565b604080517f3c7465787420783d223135302220793d223235302220666f6e742d73697a653d858201527f223230222066696c6c3d222346464437303022206f7061636974793d22302e379181019190915261111f60f11b6060820152621c539560eb1b606282015260008051602061353283398151915260658201527f2076616c7565733d22302e323b302e393b302e3222206475723d22302e37732260858201527f20626567696e3d22302e32732220726570656174436f756e743d22696e64656660a58201526734b734ba3291179f60c11b60c58201526000805160206134d283398151915260cd8201526000805160206134b283398151915260ed8201527f22302e363b312e343b302e3622206475723d22302e37732220626567696e3d2261010d8201527f302e32732220726570656174436f756e743d22696e646566696e697465222f3e61012d820152661e17ba32bc3a1f60c91b61014d8201526101348152610b6781612a16565b604080517f3c7465787420783d223235302220793d223235302220666f6e742d73697a653d868201527f223230222066696c6c3d222346464437303022206f7061636974793d22302e379181019190915261111f60f11b6060820152621c539560eb1b606282015260008051602061353283398151915260658201527f2076616c7565733d22302e323b302e393b302e3222206475723d22302e37732260858201527f20626567696e3d22302e3435732220726570656174436f756e743d22696e646560a5820152683334b734ba3291179f60b91b60c58201526000805160206134d283398151915260ce8201526000805160206134b283398151915260ee8201527f22302e363b312e343b302e3622206475723d22302e37732220626567696e3d2261010e8201527f302e3435732220726570656174436f756e743d22696e646566696e697465222f61012e820152601f60f91b61014e820152661e17ba32bc3a1f60c91b61014f820152610136815291610ce283612a16565b6040519684889551610cf9818989018a85016128e2565b8601610d1361014083015180936101608b850191016128e2565b01610d26825180938980850191016128e2565b01610d39825180938880850191016128e2565b01610d4c825180938780850191016128e2565b01610d5f825180938680850191016128e2565b01038084520182612a4d565b60405180987f3c3f786d6c2076657273696f6e3d22312e302220656e636f64696e673d2255548b8301526523169c111f9f60d11b60408301527f3c73766720786d6c6e733d22687474703a2f2f7777772e77332e6f72672f323060468301527f30302f737667222076696577426f783d2230203020343030203430302220776960668301527f6474683d2234303022206865696768743d22343030222070726573657276654160868301527f7370656374526174696f3d22784d6964594d6964206d656574223e000000000060a6830152651e3232b3399f60d11b60c18301527f3c72616469616c4772616469656e742069643d226267222063783d223530252260c7830152711031bc9e911a98129110391e911a9812911f60711b60e78301527f3c73746f70206f66667365743d22302522207374796c653d2273746f702d636f60f98301526d3637b91d1198b09830993291179f60911b6101198301527f3c73746f70206f66667365743d223130302522207374796c653d2273746f702d6101278301526f31b7b637b91d1198331833183311179f60811b610147830152701e17b930b234b0b623b930b234b2b73a1f60791b610157830152711e3334b63a32b91034b21e9133b637bb911f60711b6101688301527f3c6665476175737369616e426c757220737464446576696174696f6e3d22332261017a8301527f20726573756c743d22636f6c6f726564426c7572222f3e00000000000000000061019a8301527f3c66654d657267653e3c66654d657267654e6f646520696e3d22636f6c6f72656101b18301527f64426c7572222f3e3c66654d657267654e6f646520696e3d22536f75726365476101d1830152723930b83434b191179f1e17b332a6b2b933b29f60691b6101f1830152681e17b334b63a32b91f60b91b610204830152661e17b232b3399f60c91b61020d8301527f3c726563742077696474683d2234303022206865696768743d223430302220666102148301526f34b6361e913ab9361411b1339491179f60811b6102348301527f3c7465787420783d223230302220793d223138302220746578742d616e63686f6102448301527f723d226d6964646c652220666f6e742d73697a653d22313230222066696c74656102648301527f723d2275726c2823676c6f7729222066696c6c3d2223464646464646223e0000610284830152661e17ba32bc3a1f60c91b81516110f5816102a2948f86880191016128e2565b830191820152825190611111826102a9958e87850191016128e2565b0103610289810189520187612a4d565b8951604051998a937f3c7465787420783d223230302220793d223236302220746578742d616e63686f8a8601527f723d226d6964646c652220666f6e742d73697a653d223234222066696c6c3d226040860152611187815180928c6060890191016128e2565b8401917f2220666f6e742d66616d696c793d22417269616c2c2073616e732d7365726966928360608201527411103337b73a16bbb2b4b3b43a1e913137b632111f60591b60808201526111e3825180938d6095850191016128e2565b01661e17ba32bc3a1f60c91b60958201527f3c7465787420783d223230302220793d223330302220746578742d616e63686f609c8201527f723d226d6964646c652220666f6e742d73697a653d223136222066696c6c3d2260bc820152611253825180938c60dc850191016128e2565b019060dc82015261111f60f11b60fc820152611278825180938a60fe850191016128e2565b01661e17ba32bc3a1f60c91b60fe8201520360e5810188520186612a4d565b611362609c604051836112b382955180928980860191016128e2565b81017f3c7465787420783d223230302220793d223338302220746578742d616e63686f878201527f723d226d6964646c652220666f6e742d73697a653d223132222066696c6c3d2260408201527f233636362220666f6e742d66616d696c793d22417269616c2c2073616e732d7360608201527532b934b3111f2a2920a9a41027232a1e17ba32bc3a1f60511b6080820152651e17b9bb339f60d11b609682015203607c810184520182612a4d565b604051948261137a87945180928780880191016128e2565b8301610d4c825180938780850191016128e2565b602082015191611403602d825194604051958691693d913730b6b2911d101160b11b60208401526113c9815180926020602a870191016128e2565b8201600160fd1b602a8201526113e9825180936020602b850191016128e2565b0161088b60f21b602b82015203600d810186520184612a4d565b60408101519061141960ff606083015116613002565b60a08201516040519591906001600160a01b03168061143788612a32565b602a885260403660208a013787511561192e576030602089015387516001101561192e576078602189015360295b600181116118cf57506118b0576118ac6118458861180a8961182560208b8b6116446118198d61153a60538f6040519c8d918a8301996f113232b9b1b934b83a34b7b7111d101160811b8b526114c4815180928e6030880191016128e2565b83016f0103e1029ba34b735902632bb32b61d160851b60308201526114f2825180938e6040850191016128e2565b01700179898103e102a343937bbb710313c9d1607d1b6040820152611520825180938d6051850191016128e2565b0161088b60f21b605182015203603381018d52018b612a4d565b611678602f6040519b61154c8d612a32565b60408d526115a77f4142434445464748494a4b4c4d4e4f505152535455565758595a6162636465669d8e8b8201527f6768696a6b6c6d6e6f707172737475767778797a303132333435363738392b2f9c8d6040830152612f0a565b6040516116146046828d8101947f22696d616765223a2022646174613a696d6167652f7376672b786d6c3b626173865263194d8d0b60e21b60408301526115f9815160209281936044860191016128e2565b810161088b60f21b6044820152036026810184520182612a4d565b6116526040519a8b946116448e6116348189019b8c8151938492016128e2565b870191518f9381948401906128e2565b01915180938d8401906128e2565b016e2261747472696275746573223a205b60881b8a82015203600f810188520186612a4d565b6117f8602261168d60ff606088015116613002565b956040519061170c60808b8401997f7b2274726169745f74797065223a20225374696e6b204c6576656c222c2022768b5266030b63ab2911d160cd1b60408601526116e1815180928f6047890191016128e2565b840192611705604986611f4b60f21b96876047820152036029810188520186612a4d565b0151613002565b611776604760405180948e8201947f7b2274726169745f74797065223a20225468726f776e204174222c202276616c86526403ab2911d160dd1b6040840152611760815160209281936045870191016128e2565b8201906045820152036027810185520183612a4d565b6117df6040519161178683612a32565b602c83528c8301937f7b2274726169745f74797065223a202243617465676f7279222c202276616c7585526b65223a20225472617368227d60a01b60408501526040519a8b968f6116349089019e8f92519283916128e2565b01615d7d60f01b8a820152036002810186520184612a4d565b604051988995518092888801906128e2565b840191518093868401906128e2565b01038085520183612a4d565b6040519261183284612a32565b6040845260208401526040830152612f0a565b611898603d60405180937f646174613a6170706c69636174696f6e2f6a736f6e3b6261736536342c000000602083015261188881518092602086860191016128e2565b810103601d810184520182612a4d565b604051918291602083526020830190612905565b0390f35b6044906040519063e22e27eb60e01b8252600482015260146024820152fd5b906010600f8216101561192e57885182101561192e576f181899199a1a9b1b9c1cb0b131b232b360811b600f82161a8983016020015360041c9080156119185760001901611465565b634e487b7160e01b600052601160045260246000fd5b634e487b7160e01b600052603260045260246000fd5b634e487b7160e01b600052604160045260246000fd5b61129761010560209461138e96611121604051611976816129e0565b60008152610d6b565b602084015161039b565b5083516040516119a9602082816102b581830196878151938492016128e2565b51902060405160208101906b2334b730b6102bb2b0b837b760a11b8252600c81526119d3816129fb565b51902014610378565b6040516119e8816129fb565b60078152660233441444538360cc1b6020820152610323565b508151604051611a21602082816102b581830196878151938492016128e2565b51902060405160208101906b05368696e696e6720506f6f760a41b8252600c8152611a4b816129fb565b519020146102fc565b60041015611a8157604051611a68816129fb565b60078152660234646383830360cc1b6020820152610296565b604051611a8d816129fb565b60078152660233838464630360cc1b6020820152610296565b3461017e57608036600319011261017e57611abf61292a565b611ac7612940565b90604435606435926001600160401b03841161017e573660238501121561017e57611aff611b11943690602481600401359101612b2f565b92611b0b838383612bb0565b33612d8a565b005b3461017e5760a036600319011261017e57611b2c61292a565b6024356001600160401b03811161017e57611b4b903690600401612b66565b6044356001600160401b03811161017e57611b6a903690600401612b66565b906064356001600160401b03811161017e57611b8a903690600401612b66565b916084359060ff8216820361017e576001600160a01b038516156122c157600a60ff8316116122705782511561223257600854936000198514611918576001850160085560405191611bdb836129c5565b8483526020830152604082015260ff821660608201524260808201523360a0820152836000526009602052604060002081518051906001600160401b038211611944578190611c2a845461298b565b601f81116121e2575b50602090601f831160011461217c57600092612171575b50508160011b916000199060031b1c19161781555b60208201518051906001600160401b038211611944578190611c84600185015461298b565b601f811161211e575b50602090601f83116001146120b1576000926120a6575b50508160011b916000199060031b1c19161760018201555b60408201518051906001600160401b03821161194457611cdf600284015461298b565b601f811161205f575b50602090601f8311600114611fec57600593929160009183611fe1575b50508160011b916000199060031b1c19161760028201555b6003810160ff60608501511660ff1982541617905560808301516004820155019060a0600180821b0391015116906bffffffffffffffffffffffff60a01b918282541617905560405190611d70826129e0565b6000808352858152600260205260409020546001600160a01b03168015159186919083611faa575b6001600160a01b038916600081815260036020908152604080832080546001019055868352600290915281208054909316821790925591907fddf252ad1be2c89b69c2b068fc378daa952ba7f163c4a11628f55a4df523b3ef9080a4611f9157843b611e5b575b50827f0865d562d0b6b74e1077f5025ae1b9834ba89af77c7f1444cbdb18cbef8c352760209560ff611e3c60405196604088526040880190612905565b9416858801526001600160a01b031693339381900390a4604051908152f35b60405160208180611e95630a85bd0160e11b9586835233600484015260006024840152896044840152608060648401526084830190612905565b038160006001600160a01b038b165af160009181611f4c575b50611f1657853d15611f0e573d90611ec582612b14565b91611ed36040519384612a4d565b82523d6000602084013e5b81519182611f0757604051633250574960e11b81526001600160a01b0383166004820152602490fd5b6020915001fd5b606090611ede565b6001600160e01b03191603611f2b5782611dff565b604051633250574960e11b81526001600160a01b0385166004820152602490fd5b9091506020813d602011611f89575b81611f6860209383612a4d565b8101031261017e57516001600160e01b03198116810361017e579087611eae565b3d9150611f5b565b6040516339e3563760e11b815260006004820152602490fd5b600083815260046020526040902080546001600160a01b031916905581600052600360205260406000206000198154019055611d98565b015190508980611d05565b906002840160005260206000209160005b601f1985168110612047575091839160019360059695601f1981161061202e575b505050811b016002820155611d1d565b015160001960f88460031b161c1916905589808061201e565b91926020600181928685015181550194019201611ffd565b600284016000526020600020601f840160051c81016020851061209f575b601f830160051c82018110612093575050611ce8565b6000815560010161207d565b508061207d565b015190508880611ca4565b600185016000908152602081209350601f198516905b81811061210657509084600195949392106120ed575b505050811b016001820155611cbc565b015160001960f88460031b161c191690558880806120dd565b929360206001819287860151815501950193016120c7565b909150600184016000526020600020601f840160051c81016020851061216a575b90849392915b601f830160051c8201811061215b575050611c8d565b60008155859450600101612145565b508061213f565b015190508880611c4a565b6000858152602081209350601f198516905b8181106121ca57509084600195949392106121b1575b505050811b018155611c5f565b015160001960f88460031b161c191690558880806121a4565b9293602060018192878601518155019501930161218e565b909150836000526020600020601f840160051c81016020851061222b575b90849392915b601f830160051c8201811061221c575050611c33565b60008155859450600101612206565b5080612200565b60405162461bcd60e51b81526020600482015260166024820152755472617368206d75737420686176652061206e616d6560501b6044820152606490fd5b60405162461bcd60e51b815260206004820152602360248201527f5374696e6b206c6576656c20746f6f2068696768206576656e20666f722074726044820152620c2e6d60eb1b6064820152608490fd5b606460405162461bcd60e51b815260206004820152602060248201527f43616e6e6f74207468726f7720747261736820696e746f2074686520766f69646044820152fd5b3461017e57604036600319011261017e5761231e61292a565b6024359081151580920361017e576001600160a01b031690811561239157336000526005602052604060002082600052602052604060002060ff1981541660ff83161790556040519081527f17307eab39ab6107e8899845ad3d59bd9653f200f220920489ca2b5937696c3160203392a3005b604051630b61174360e31b815260048101839052602490fd5b3461017e57600036600319011261017e57604051600060018054906123ce8261298b565b8085529181811690811561244e57506001146123f5575b6118ac8461189881860382612a4d565b600081815292507fb10e2d527612073b26eecdfd717e6a320cf44b4afac2b0732d9fcbe2b7fa0cf65b828410612436575050508101602001611898826123e5565b8054602085870181019190915290930192810161241e565b60ff191660208087019190915292151560051b8501909201925061189891508390506123e5565b3461017e57600036600319011261017e576007546040516001600160a01b039091168152602090f35b3461017e57602036600319011261017e57600435600052600960205261251c60406000206124cb81612a6e565b906124d860018201612a6e565b6124e460028301612a6e565b9161253860ff6003830154169361252a600484015493600560018060a01b03910154169460405198899860c08a5260c08a0190612905565b9088820360208a0152612905565b908682036040880152612905565b926060850152608084015260a08301520390f35b3461017e57600036600319011261017e57612565612b84565b600780546001600160a01b031981169091556000906001600160a01b03167f8be0079c531659141344cd1fd0a4f28419497f9722a3daafe3b4186f6b6457e08280a3005b3461017e57602036600319011261017e576001600160a01b036125ca61292a565b1680156125e95760005260036020526020604060002054604051908152f35b6040516322718ad960e21b815260006004820152602490fd5b3461017e57602036600319011261017e576020612620600435612d4f565b6040516001600160a01b039091168152f35b3461017e57611b1161264336612956565b9060405192612651846129e0565b60008452611b0b838383612bb0565b3461017e57611b1161267136612956565b91612bb0565b3461017e57600036600319011261017e576020600854604051908152f35b3461017e57604036600319011261017e576126ae61292a565b6024356126ba81612d4f565b33151580612769575b8061273c575b612724576001600160a01b039283169282918491167f8c5be1e5ebec7d5bd14f71427d1e84f3dd0314c0f7b2291e5b200ac8c7c3b925600080a4600090815260046020526040902080546001600160a01b0319169091179055005b60405163a9fbf51f60e01b8152336004820152602490fd5b5060018060a01b038116600052600560205260406000203360005260205260ff60406000205416156126c9565b506001600160a01b0381163314156126c3565b3461017e57602036600319011261017e5760043561279981612d4f565b506000526004602052602060018060a01b0360406000205416604051908152f35b3461017e57600036600319011261017e57604051600080546127db8161298b565b8084529060019081811690811561244e5750600114612804576118ac8461189881860382612a4d565b600080805292507f290decd9548b62a8d60345a988386fc84ba6bc95484008f6362f93160ef3e5635b828410612845575050508101602001611898826123e5565b8054602085870181019190915290930192810161282d565b3461017e57602036600319011261017e576004359063ffffffff60e01b821680920361017e57602091632483248360e11b811490811561289f575b5015158152f35b6380ac58cd60e01b8114915081156128d1575b81156128c0575b5083612898565b6301ffc9a760e01b149050836128b9565b635b5e139f60e01b811491506128b2565b60005b8381106128f55750506000910152565b81810151838201526020016128e5565b9060209161291e815180928185528580860191016128e2565b601f01601f1916010190565b600435906001600160a01b038216820361017e57565b602435906001600160a01b038216820361017e57565b606090600319011261017e576001600160a01b0390600435828116810361017e5791602435908116810361017e579060443590565b90600182811c921680156129bb575b60208310146129a557565b634e487b7160e01b600052602260045260246000fd5b91607f169161299a565b60c081019081106001600160401b0382111761194457604052565b602081019081106001600160401b0382111761194457604052565b604081019081106001600160401b0382111761194457604052565b61016081019081106001600160401b0382111761194457604052565b606081019081106001600160401b0382111761194457604052565b90601f801991011681019081106001600160401b0382111761194457604052565b9060405191826000825492612a828461298b565b908184526001948581169081600014612af15750600114612aae575b5050612aac92500383612a4d565b565b9093915060005260209081600020936000915b818310612ad9575050612aac93508201013880612a9e565b85548884018501529485019487945091830191612ac1565b915050612aac94506020925060ff191682840152151560051b8201013880612a9e565b6001600160401b03811161194457601f01601f191660200190565b929192612b3b82612b14565b91612b496040519384612a4d565b82948184528183011161017e578281602093846000960137010152565b9080601f8301121561017e57816020612b8193359101612b2f565b90565b6007546001600160a01b03163303612b9857565b60405163118cdaa760e01b8152336004820152602490fd5b6001600160a01b039182169290918315612d3657600092828452826020956002875260409684888820541696879133151580612ca0575b509060027fddf252ad1be2c89b69c2b068fc378daa952ba7f163c4a11628f55a4df523b3ef9284612c6d575b858352600381528b8320805460010190558683525289812080546001600160a01b0319168517905580a41692838303612c4c5750505050565b6064945051926364283d7b60e01b8452600484015260248301526044820152fd5b600087815260046020526040902080546001600160a01b0319169055848352600381528b83208054600019019055612c13565b91939450915080612cf5575b15612cbc57859291879138612be7565b878688612cd9576024915190637e27328960e01b82526004820152fd5b604491519063177e802f60e01b82523360048301526024820152fd5b503387148015612d1a575b80612cac5750858252600481523385898420541614612cac565b5086825260058152878220338352815260ff8883205416612d00565b604051633250574960e11b815260006004820152602490fd5b6000818152600260205260409020546001600160a01b0316908115612d72575090565b60249060405190637e27328960e01b82526004820152fd5b90939192833b612d9c575b5050505050565b604051630a85bd0160e11b8082526001600160a01b039384166004830152958316602482015260448101919091526080606482015294921692602092918590612de9906084830190612905565b039483816000978189895af1869181612e94575b50612e5e575050503d600014612e55573d612e1781612b14565b90612e256040519283612a4d565b81528093823d92013e5b82519283612e5057604051633250574960e11b815260048101849052602490fd5b019050fd5b60609250612e2f565b919450915063ffffffff60e01b1603612e7c57503880808080612d95565b60249060405190633250574960e11b82526004820152fd5b9091508481813d8311612ed1575b612eac8183612a4d565b81010312612ecd57516001600160e01b031981168103612ecd579038612dfd565b8680fd5b503d612ea2565b90612ee282612b14565b612eef6040519182612a4d565b8281528092612f00601f1991612b14565b0190602036910137565b805115612fed578051600291828201809211611918576003918290046001600160fe1b038116810361191857612f43908495941b612ed8565b936020850193829183518401906020820192835194600085525b838110612f9c575050505052510680600114612f8957600214612f7e575090565b603d90600019015390565b50603d9081600019820153600119015390565b87600491999293949901918251600190603f9082828260121c16880101518453828282600c1c16880101518385015382828260061c1688010151888501531685010151898201530197929190612f5d565b5050604051612ffb816129e0565b6000815290565b806000917a184f03e93ff9f4daa797ed6e38ed64bf6a1f01000000000000000080821015613137575b506d04ee2d6d415b85acef810000000080831015613128575b50662386f26fc1000080831015613119575b506305f5e1008083101561310a575b50612710808310156130fb575b5060648210156130eb575b600a809210156130e1575b600190816021613099828701612ed8565b95860101905b6130ab575b5050505090565b600019019083906f181899199a1a9b1b9c1cb0b131b232b360811b8282061a8353049182156130dc5791908261309f565b6130a4565b9160010191613088565b919060646002910491019161307d565b60049193920491019138613072565b60089193920491019138613065565b60109193920491019138613056565b60209193920491019138613044565b60409350810491503861302b565b60008051602061353283398151915281527f2076616c7565733d22302e363b302e323b302e3622206475723d22312e35732260208201527f20726570656174436f756e743d22696e646566696e697465222f3e3c2f706174604082015261341f60f11b606082015260620190565b600360ff8216106134a45760011c607f166005811161349c575b60409081516131db816129e0565b6000815282516131ea816129e0565b6000815283516131f9816129e0565b60008152928451613209816129e0565b6000815260ff865161321a816129e0565b600081529216956001871015613435575b60028710156133ce575b6003871015613363575b866004612b81979810156132f8575b60051115613283575b51958693855161326f8160209889808a0191016128e2565b8501610d26825180938980850191016128e2565b809250517f3c7061746820643d224d3236302c31343020513237302c313230203236302c316020820152600080516020613512833981519152838201526000805160206134f283398151915260608201526132f2816132e460808201613145565b03601f198101835282612a4d565b91613257565b9150600581517f3c7061746820643d224d3233302c31343020513234302c313230203233302c316020820152600080516020613512833981519152838201526000805160206134f2833981519152606082015261335b816132e460808201613145565b92905061324e565b612b81955080517f3c7061746820643d224d3230302c31343020513231302c313230203230302c316020820152600080516020613512833981519152828201526000805160206134f283398151915260608201526133c7816132e460808201613145565b955061323f565b809350517f3c7061746820643d224d3137302c31343020513138302c313230203137302c316020820152600080516020613512833981519152848201526000805160206134f2833981519152606082015261342f816132e460808201613145565b92613235565b809450517f3c7061746820643d224d3134302c31343020513135302c313230203134302c316020820152600080516020613512833981519152858201526000805160206134f28339815191526060820152613496816132e460808201613145565b9361322b565b5060056131cd565b50604051612ffb816129e056fe227472616e73666f726d2220747970653d227363616c65222076616c7565733d3c616e696d6174655472616e73666f726d206174747269627574654e616d653d683d2233222066696c6c3d226e6f6e6522206f7061636974793d22302e36223e303022207374726f6b653d222338344343313622207374726f6b652d776964743c616e696d617465206174747269627574654e616d653d226f70616369747922a264697066735822122031c64b87093599d4465195754e4838ed9a5964722ae40cb54792caf805da2c4164736f6c63430008140033",
  "linkReferences": {},
  "deployedLinkReferences": {}
}